{
  "address": "0xEe6683D4553AA2E7519e2D65eB16815681B3B180",
  "abi": [
    {
      "inputs": [
        {
          "internalType": "address",
          "name": "_admin",
          "type": "address"
        }
      ],
      "stateMutability": "nonpayable",
      "type": "constructor"
    },
    {
      "anonymous": false,
      "inputs": [
        {
          "indexed": true,
          "internalType": "address",
          "name": "owner",
          "type": "address"
        },
        {
          "indexed": true,
          "internalType": "address",
          "name": "approved",
          "type": "address"
        },
        {
          "indexed": true,
          "internalType": "uint256",
          "name": "tokenId",
          "type": "uint256"
        }
      ],
      "name": "Approval",
      "type": "event"
    },
    {
      "anonymous": false,
      "inputs": [
        {
          "indexed": true,
          "internalType": "address",
          "name": "owner",
          "type": "address"
        },
        {
          "indexed": true,
          "internalType": "address",
          "name": "operator",
          "type": "address"
        },
        {
          "indexed": false,
          "internalType": "bool",
          "name": "approved",
          "type": "bool"
        }
      ],
      "name": "ApprovalForAll",
      "type": "event"
    },
    {
      "anonymous": false,
      "inputs": [
        {
          "indexed": false,
          "internalType": "uint256",
          "name": "tokenID",
          "type": "uint256"
        },
        {
          "indexed": false,
          "internalType": "uint256",
          "name": "buildingId",
          "type": "uint256"
        },
        {
          "indexed": false,
          "internalType": "uint256",
          "name": "level",
          "type": "uint256"
        }
      ],
      "name": "KingdomBuildingUpgraded",
      "type": "event"
    },
    {
      "anonymous": false,
      "inputs": [
        {
          "indexed": false,
          "internalType": "uint256",
          "name": "tokenID",
          "type": "uint256"
        },
        {
          "indexed": false,
          "internalType": "string",
          "name": "kingdomName",
          "type": "string"
        },
        {
          "indexed": false,
          "internalType": "address",
          "name": "owner",
          "type": "address"
        }
      ],
      "name": "KingdomCreated",
      "type": "event"
    },
    {
      "anonymous": false,
      "inputs": [
        {
          "indexed": false,
          "internalType": "uint256",
          "name": "tokenID",
          "type": "uint256"
        },
        {
          "indexed": false,
          "internalType": "string",
          "name": "newUri",
          "type": "string"
        }
      ],
      "name": "KingdomURIChanged",
      "type": "event"
    },
    {
      "anonymous": false,
      "inputs": [
        {
          "indexed": true,
          "internalType": "bytes32",
          "name": "role",
          "type": "bytes32"
        },
        {
          "indexed": true,
          "internalType": "bytes32",
          "name": "previousAdminRole",
          "type": "bytes32"
        },
        {
          "indexed": true,
          "internalType": "bytes32",
          "name": "newAdminRole",
          "type": "bytes32"
        }
      ],
      "name": "RoleAdminChanged",
      "type": "event"
    },
    {
      "anonymous": false,
      "inputs": [
        {
          "indexed": true,
          "internalType": "bytes32",
          "name": "role",
          "type": "bytes32"
        },
        {
          "indexed": true,
          "internalType": "address",
          "name": "account",
          "type": "address"
        },
        {
          "indexed": true,
          "internalType": "address",
          "name": "sender",
          "type": "address"
        }
      ],
      "name": "RoleGranted",
      "type": "event"
    },
    {
      "anonymous": false,
      "inputs": [
        {
          "indexed": true,
          "internalType": "bytes32",
          "name": "role",
          "type": "bytes32"
        },
        {
          "indexed": true,
          "internalType": "address",
          "name": "account",
          "type": "address"
        },
        {
          "indexed": true,
          "internalType": "address",
          "name": "sender",
          "type": "address"
        }
      ],
      "name": "RoleRevoked",
      "type": "event"
    },
    {
      "anonymous": false,
      "inputs": [
        {
          "indexed": true,
          "internalType": "address",
          "name": "from",
          "type": "address"
        },
        {
          "indexed": true,
          "internalType": "address",
          "name": "to",
          "type": "address"
        },
        {
          "indexed": true,
          "internalType": "uint256",
          "name": "tokenId",
          "type": "uint256"
        }
      ],
      "name": "Transfer",
      "type": "event"
    },
    {
      "inputs": [],
      "name": "ADMIN_ROLE",
      "outputs": [
        {
          "internalType": "bytes32",
          "name": "",
          "type": "bytes32"
        }
      ],
      "stateMutability": "view",
      "type": "function"
    },
    {
      "inputs": [],
      "name": "DEFAULT_ADMIN_ROLE",
      "outputs": [
        {
          "internalType": "bytes32",
          "name": "",
          "type": "bytes32"
        }
      ],
      "stateMutability": "view",
      "type": "function"
    },
    {
      "inputs": [
        {
          "internalType": "address",
          "name": "to",
          "type": "address"
        },
        {
          "internalType": "uint256",
          "name": "tokenId",
          "type": "uint256"
        }
      ],
      "name": "approve",
      "outputs": [],
      "stateMutability": "nonpayable",
      "type": "function"
    },
    {
      "inputs": [
        {
          "internalType": "address",
          "name": "owner",
          "type": "address"
        }
      ],
      "name": "balanceOf",
      "outputs": [
        {
          "internalType": "uint256",
          "name": "",
          "type": "uint256"
        }
      ],
      "stateMutability": "view",
      "type": "function"
    },
    {
      "inputs": [
        {
          "internalType": "uint256",
          "name": "tokenID",
          "type": "uint256"
        }
      ],
      "name": "destroyKingdom",
      "outputs": [],
      "stateMutability": "nonpayable",
      "type": "function"
    },
    {
      "inputs": [
        {
          "internalType": "uint256",
          "name": "tokenId",
          "type": "uint256"
        }
      ],
      "name": "getApproved",
      "outputs": [
        {
          "internalType": "address",
          "name": "",
          "type": "address"
        }
      ],
      "stateMutability": "view",
      "type": "function"
    },
    {
      "inputs": [
        {
          "internalType": "uint256",
          "name": "tokenId",
          "type": "uint256"
        },
        {
          "internalType": "enum KingdomNFT.Building",
          "name": "building",
          "type": "uint8"
        }
      ],
      "name": "getBuildingLevel",
      "outputs": [
        {
          "internalType": "uint256",
          "name": "level",
          "type": "uint256"
        }
      ],
      "stateMutability": "view",
      "type": "function"
    },
    {
      "inputs": [
        {
          "internalType": "uint256",
          "name": "tokenId",
          "type": "uint256"
        }
      ],
      "name": "getLastClaimTime",
      "outputs": [
        {
          "internalType": "uint256",
          "name": "",
          "type": "uint256"
        }
      ],
      "stateMutability": "view",
      "type": "function"
    },
    {
      "inputs": [
        {
          "internalType": "uint256",
          "name": "tokenID",
          "type": "uint256"
        }
      ],
      "name": "getName",
      "outputs": [
        {
          "internalType": "string",
          "name": "",
          "type": "string"
        }
      ],
      "stateMutability": "view",
      "type": "function"
    },
    {
      "inputs": [
        {
          "internalType": "uint256",
          "name": "tokenID",
          "type": "uint256"
        }
      ],
      "name": "getOccupation",
      "outputs": [
        {
          "internalType": "bool",
          "name": "",
          "type": "bool"
        }
      ],
      "stateMutability": "view",
      "type": "function"
    },
    {
      "inputs": [
        {
          "internalType": "bytes32",
          "name": "role",
          "type": "bytes32"
        }
      ],
      "name": "getRoleAdmin",
      "outputs": [
        {
          "internalType": "bytes32",
          "name": "",
          "type": "bytes32"
        }
      ],
      "stateMutability": "view",
      "type": "function"
    },
    {
      "inputs": [
        {
          "internalType": "uint256",
          "name": "tokenId",
          "type": "uint256"
        }
      ],
      "name": "getRuler",
      "outputs": [
        {
          "internalType": "address",
          "name": "",
          "type": "address"
        }
      ],
      "stateMutability": "view",
      "type": "function"
    },
    {
      "inputs": [
        {
          "internalType": "string",
          "name": "kingdomName",
          "type": "string"
        }
      ],
      "name": "getTokenFromName",
      "outputs": [
        {
          "internalType": "uint256",
          "name": "tokenId",
          "type": "uint256"
        }
      ],
      "stateMutability": "view",
      "type": "function"
    },
    {
      "inputs": [
        {
          "internalType": "string",
          "name": "kingdomName",
          "type": "string"
        }
      ],
      "name": "getURIFromName",
      "outputs": [
        {
          "internalType": "string",
          "name": "uri",
          "type": "string"
        }
      ],
      "stateMutability": "view",
      "type": "function"
    },
    {
      "inputs": [
        {
          "internalType": "bytes32",
          "name": "role",
          "type": "bytes32"
        },
        {
          "internalType": "address",
          "name": "account",
          "type": "address"
        }
      ],
      "name": "grantRole",
      "outputs": [],
      "stateMutability": "nonpayable",
      "type": "function"
    },
    {
      "inputs": [
        {
          "internalType": "bytes32",
          "name": "role",
          "type": "bytes32"
        },
        {
          "internalType": "address",
          "name": "account",
          "type": "address"
        }
      ],
      "name": "hasRole",
      "outputs": [
        {
          "internalType": "bool",
          "name": "",
          "type": "bool"
        }
      ],
      "stateMutability": "view",
      "type": "function"
    },
    {
      "inputs": [
        {
          "internalType": "address",
          "name": "owner",
          "type": "address"
        },
        {
          "internalType": "address",
          "name": "operator",
          "type": "address"
        }
      ],
      "name": "isApprovedForAll",
      "outputs": [
        {
          "internalType": "bool",
          "name": "",
          "type": "bool"
        }
      ],
      "stateMutability": "view",
      "type": "function"
    },
    {
      "inputs": [
        {
          "internalType": "address",
          "name": "to",
          "type": "address"
        },
        {
          "internalType": "string",
          "name": "kingdomName",
          "type": "string"
        }
      ],
      "name": "mint",
      "outputs": [
        {
          "internalType": "uint256",
          "name": "",
          "type": "uint256"
        }
      ],
      "stateMutability": "nonpayable",
      "type": "function"
    },
    {
      "inputs": [],
      "name": "name",
      "outputs": [
        {
          "internalType": "string",
          "name": "",
          "type": "string"
        }
      ],
      "stateMutability": "view",
      "type": "function"
    },
    {
      "inputs": [
        {
          "internalType": "uint256",
          "name": "tokenId",
          "type": "uint256"
        }
      ],
      "name": "ownerOf",
      "outputs": [
        {
          "internalType": "address",
          "name": "",
          "type": "address"
        }
      ],
      "stateMutability": "view",
      "type": "function"
    },
    {
      "inputs": [
        {
          "internalType": "bytes32",
          "name": "role",
          "type": "bytes32"
        },
        {
          "internalType": "address",
          "name": "account",
          "type": "address"
        }
      ],
      "name": "renounceRole",
      "outputs": [],
      "stateMutability": "nonpayable",
      "type": "function"
    },
    {
      "inputs": [
        {
          "internalType": "bytes32",
          "name": "role",
          "type": "bytes32"
        },
        {
          "internalType": "address",
          "name": "account",
          "type": "address"
        }
      ],
      "name": "revokeRole",
      "outputs": [],
      "stateMutability": "nonpayable",
      "type": "function"
    },
    {
      "inputs": [
        {
          "internalType": "address",
          "name": "from",
          "type": "address"
        },
        {
          "internalType": "address",
          "name": "to",
          "type": "address"
        },
        {
          "internalType": "uint256",
          "name": "tokenId",
          "type": "uint256"
        }
      ],
      "name": "safeTransferFrom",
      "outputs": [],
      "stateMutability": "nonpayable",
      "type": "function"
    },
    {
      "inputs": [
        {
          "internalType": "address",
          "name": "from",
          "type": "address"
        },
        {
          "internalType": "address",
          "name": "to",
          "type": "address"
        },
        {
          "internalType": "uint256",
          "name": "tokenId",
          "type": "uint256"
        },
        {
          "internalType": "bytes",
          "name": "_data",
          "type": "bytes"
        }
      ],
      "name": "safeTransferFrom",
      "outputs": [],
      "stateMutability": "nonpayable",
      "type": "function"
    },
    {
      "inputs": [
        {
          "internalType": "address",
          "name": "operator",
          "type": "address"
        },
        {
          "internalType": "bool",
          "name": "approved",
          "type": "bool"
        }
      ],
      "name": "setApprovalForAll",
      "outputs": [],
      "stateMutability": "nonpayable",
      "type": "function"
    },
    {
      "inputs": [
        {
          "internalType": "uint256",
          "name": "tokenID",
          "type": "uint256"
        },
        {
          "internalType": "uint256",
          "name": "_buildingId",
          "type": "uint256"
        },
        {
          "internalType": "uint256",
          "name": "level",
          "type": "uint256"
        }
      ],
      "name": "setBuildingLevel",
      "outputs": [],
      "stateMutability": "nonpayable",
      "type": "function"
    },
    {
      "inputs": [
        {
          "internalType": "uint256",
          "name": "tokenID",
          "type": "uint256"
        },
        {
          "internalType": "uint256",
          "name": "time",
          "type": "uint256"
        }
      ],
      "name": "setClaimTime",
      "outputs": [],
      "stateMutability": "nonpayable",
      "type": "function"
    },
    {
      "inputs": [
        {
          "internalType": "uint256",
          "name": "tokenID",
          "type": "uint256"
        },
        {
          "internalType": "bool",
          "name": "occupation",
          "type": "bool"
        }
      ],
      "name": "setOccupation",
      "outputs": [],
      "stateMutability": "nonpayable",
      "type": "function"
    },
    {
      "inputs": [
        {
          "internalType": "uint256",
          "name": "tokenId",
          "type": "uint256"
        },
        {
          "internalType": "string",
          "name": "newUri",
          "type": "string"
        }
      ],
      "name": "setTokenURI",
      "outputs": [],
      "stateMutability": "nonpayable",
      "type": "function"
    },
    {
      "inputs": [
        {
          "internalType": "bytes4",
          "name": "interfaceId",
          "type": "bytes4"
        }
      ],
      "name": "supportsInterface",
      "outputs": [
        {
          "internalType": "bool",
          "name": "",
          "type": "bool"
        }
      ],
      "stateMutability": "view",
      "type": "function"
    },
    {
      "inputs": [],
      "name": "symbol",
      "outputs": [
        {
          "internalType": "string",
          "name": "",
          "type": "string"
        }
      ],
      "stateMutability": "view",
      "type": "function"
    },
    {
      "inputs": [
        {
          "internalType": "uint256",
          "name": "index",
          "type": "uint256"
        }
      ],
      "name": "tokenByIndex",
      "outputs": [
        {
          "internalType": "uint256",
          "name": "",
          "type": "uint256"
        }
      ],
      "stateMutability": "view",
      "type": "function"
    },
    {
      "inputs": [
        {
          "internalType": "address",
          "name": "owner",
          "type": "address"
        },
        {
          "internalType": "uint256",
          "name": "index",
          "type": "uint256"
        }
      ],
      "name": "tokenOfOwnerByIndex",
      "outputs": [
        {
          "internalType": "uint256",
          "name": "",
          "type": "uint256"
        }
      ],
      "stateMutability": "view",
      "type": "function"
    },
    {
      "inputs": [
        {
          "internalType": "uint256",
          "name": "tokenId",
          "type": "uint256"
        }
      ],
      "name": "tokenURI",
      "outputs": [
        {
          "internalType": "string",
          "name": "",
          "type": "string"
        }
      ],
      "stateMutability": "view",
      "type": "function"
    },
    {
      "inputs": [],
      "name": "totalSupply",
      "outputs": [
        {
          "internalType": "uint256",
          "name": "",
          "type": "uint256"
        }
      ],
      "stateMutability": "view",
      "type": "function"
    },
    {
      "inputs": [
        {
          "internalType": "address",
          "name": "from",
          "type": "address"
        },
        {
          "internalType": "address",
          "name": "to",
          "type": "address"
        },
        {
          "internalType": "uint256",
          "name": "tokenId",
          "type": "uint256"
        }
      ],
      "name": "transferFrom",
      "outputs": [],
      "stateMutability": "nonpayable",
      "type": "function"
    }
  ],
  "transactionHash": "0x05b1d8b17ffa58245eeb28266447e656b3ec45eb1c51f105ec4fc6a53843bb7d",
  "args": [
    "0x9c9242F46692c0D3d262Cc3247c33359755Fd228"
  ],
  "numDeployments": 2,
  "solcInputHash": "04961b500b8243a3dc10c74aa4f504ab",
  "bytecode": "0x60806040526000600b553480156200001657600080fd5b5060405162004d4938038062004d4983398181016040528101906200003c91906200036a565b6040518060400160405280600781526020017f4b696e67646f6d000000000000000000000000000000000000000000000000008152506040518060400160405280600381526020017f4b444d00000000000000000000000000000000000000000000000000000000008152508160019080519060200190620000c0929190620002a3565b508060029080519060200190620000d9929190620002a3565b505050620000f16000801b826200012a60201b60201c565b620001237fa49807205ce4d355092ef5a8a18f56e8913cf4a201fbe287825b095693c21775826200014060201b60201c565b5062000449565b6200013c82826200014060201b60201c565b5050565b6200015282826200023160201b60201c565b6200022d57600160008084815260200190815260200160002060000160008373ffffffffffffffffffffffffffffffffffffffff1673ffffffffffffffffffffffffffffffffffffffff16815260200190815260200160002060006101000a81548160ff021916908315150217905550620001d26200029b60201b60201c565b73ffffffffffffffffffffffffffffffffffffffff168173ffffffffffffffffffffffffffffffffffffffff16837f2f8788117e7eff1d82e926ec794901d17c78024a50270940304540a733656f0d60405160405180910390a45b5050565b600080600084815260200190815260200160002060000160008373ffffffffffffffffffffffffffffffffffffffff1673ffffffffffffffffffffffffffffffffffffffff16815260200190815260200160002060009054906101000a900460ff16905092915050565b600033905090565b828054620002b190620003ca565b90600052602060002090601f016020900481019282620002d5576000855562000321565b82601f10620002f057805160ff191683800117855562000321565b8280016001018555821562000321579182015b828111156200032057825182559160200191906001019062000303565b5b50905062000330919062000334565b5090565b5b808211156200034f57600081600090555060010162000335565b5090565b60008151905062000364816200042f565b92915050565b6000602082840312156200037d57600080fd5b60006200038d8482850162000353565b91505092915050565b6000620003a382620003aa565b9050919050565b600073ffffffffffffffffffffffffffffffffffffffff82169050919050565b60006002820490506001821680620003e357607f821691505b60208210811415620003fa57620003f962000400565b5b50919050565b7f4e487b7100000000000000000000000000000000000000000000000000000000600052602260045260246000fd5b6200043a8162000396565b81146200044657600080fd5b50565b6148f080620004596000396000f3fe608060405234801561001057600080fd5b506004361061021c5760003560e01c80636352211e11610125578063a217fddf116100ad578063c87b56dd1161007c578063c87b56dd146106a7578063cec4267b146106d7578063d0def52114610707578063d547741f14610737578063e985e9c5146107535761021c565b8063a217fddf14610635578063a22cb46514610653578063b04275361461066f578063b88d4fde1461068b5761021c565b806385290e0a116100f457806385290e0a1461056b5780638cd715701461058757806391d14854146105b757806393f546eb146105e757806395d89b41146106175761021c565b80636352211e146104bd5780636b8ff574146104ed57806370a082311461051d57806375b238fc1461054d5761021c565b80632919aec0116101a8578063372e1e0911610177578063372e1e09146103f55780633c23a9a61461042557806342842e0e146104555780634f6ccce71461047157806351df4f5b146104a15761021c565b80632919aec0146103715780632f2ff15d1461038d5780632f745c59146103a957806336568abe146103d95761021c565b806315b2d0f6116101ef57806315b2d0f6146102bb578063162094c4146102eb57806318160ddd1461030757806323b872dd14610325578063248a9ca3146103415761021c565b806301ffc9a71461022157806306fdde0314610251578063081812fc1461026f578063095ea7b31461029f575b600080fd5b61023b60048036038101906102369190613477565b610783565b6040516102489190613b23565b60405180910390f35b610259610795565b6040516102669190613b59565b60405180910390f35b6102896004803603810190610284919061350a565b610827565b6040516102969190613abc565b60405180910390f35b6102b960048036038101906102b491906133d6565b6108ac565b005b6102d560048036038101906102d0919061350a565b6109c4565b6040516102e29190613b23565b60405180910390f35b610305600480360381019061030091906135ab565b6109f1565b005b61030f610ad8565b60405161031c9190613dfb565b60405180910390f35b61033f600480360381019061033a919061327c565b610ae5565b005b61035b60048036038101906103569190613412565b610b45565b6040516103689190613b3e565b60405180910390f35b61038b6004803603810190610386919061350a565b610b64565b005b6103a760048036038101906103a2919061343b565b610ba3565b005b6103c360048036038101906103be91906133d6565b610bcc565b6040516103d09190613dfb565b60405180910390f35b6103f360048036038101906103ee919061343b565b610c71565b005b61040f600480360381019061040a919061350a565b610cf4565b60405161041c9190613abc565b60405180910390f35b61043f600480360381019061043a91906134c9565b610d06565b60405161044c9190613dfb565b60405180910390f35b61046f600480360381019061046a919061327c565b610d2e565b005b61048b6004803603810190610486919061350a565b610d4e565b6040516104989190613dfb565b60405180910390f35b6104bb60048036038101906104b691906135ff565b610de5565b005b6104d760048036038101906104d2919061350a565b610e3d565b6040516104e49190613abc565b60405180910390f35b6105076004803603810190610502919061350a565b610eef565b6040516105149190613b59565b60405180910390f35b61053760048036038101906105329190613217565b610f94565b6040516105449190613dfb565b60405180910390f35b61055561104c565b6040516105629190613b3e565b60405180910390f35b61058560048036038101906105809190613533565b611070565b005b6105a1600480360381019061059c91906134c9565b6110db565b6040516105ae9190613b59565b60405180910390f35b6105d160048036038101906105cc919061343b565b6111a1565b6040516105de9190613b23565b60405180910390f35b61060160048036038101906105fc919061356f565b61120b565b60405161060e9190613dfb565b60405180910390f35b61061f6112a6565b60405161062c9190613b59565b60405180910390f35b61063d611338565b60405161064a9190613b3e565b60405180910390f35b61066d60048036038101906106689190613346565b61133f565b005b6106896004803603810190610684919061363b565b611355565b005b6106a560048036038101906106a091906132cb565b61142b565b005b6106c160048036038101906106bc919061350a565b61148d565b6040516106ce9190613b59565b60405180910390f35b6106f160048036038101906106ec919061350a565b61155a565b6040516106fe9190613dfb565b60405180910390f35b610721600480360381019061071c9190613382565b61157a565b60405161072e9190613dfb565b60405180910390f35b610751600480360381019061074c919061343b565b6117ed565b005b61076d60048036038101906107689190613240565b611816565b60405161077a9190613b23565b60405180910390f35b600061078e826118aa565b9050919050565b6060600180546107a490614153565b80601f01602080910402602001604051908101604052809291908181526020018280546107d090614153565b801561081d5780601f106107f25761010080835404028352916020019161081d565b820191906000526020600020905b81548152906001019060200180831161080057829003601f168201915b5050505050905090565b600061083282611924565b610871576040517f08c379a000000000000000000000000000000000000000000000000000000000815260040161086890613d1b565b60405180910390fd5b6005600083815260200190815260200160002060009054906101000a900473ffffffffffffffffffffffffffffffffffffffff169050919050565b60006108b782610e3d565b90508073ffffffffffffffffffffffffffffffffffffffff168373ffffffffffffffffffffffffffffffffffffffff161415610928576040517f08c379a000000000000000000000000000000000000000000000000000000000815260040161091f90613d5b565b60405180910390fd5b8073ffffffffffffffffffffffffffffffffffffffff16610947611990565b73ffffffffffffffffffffffffffffffffffffffff161480610976575061097581610970611990565b611816565b5b6109b5576040517f08c379a00000000000000000000000000000000000000000000000000000000081526004016109ac90613c9b565b60405180910390fd5b6109bf8383611998565b505050565b6000600e600083815260200190815260200160002060010160009054906101000a900460ff169050919050565b816109fb81610e3d565b73ffffffffffffffffffffffffffffffffffffffff16610a19611990565b73ffffffffffffffffffffffffffffffffffffffff1614610a6f576040517f08c379a0000000000000000000000000000000000000000000000000000000008152600401610a6690613b9b565b60405180910390fd5b81600e60008581526020019081526020016000206003019080519060200190610a99929190612fc4565b507f1c74d1602a63ddfffdbc8a7dc45638b1ea2a6f4054d6033432c00b6a4072b2598383604051610acb929190613e16565b60405180910390a1505050565b6000600980549050905090565b610af6610af0611990565b82611a51565b610b35576040517f08c379a0000000000000000000000000000000000000000000000000000000008152600401610b2c90613d7b565b60405180910390fd5b610b40838383611b2f565b505050565b6000806000838152602001908152602001600020600101549050919050565b7fa49807205ce4d355092ef5a8a18f56e8913cf4a201fbe287825b095693c21775610b9681610b91611990565b611d96565b610b9f82611e33565b5050565b610bac82610b45565b610bbd81610bb8611990565b611d96565b610bc78383611f50565b505050565b6000610bd783610f94565b8210610c18576040517f08c379a0000000000000000000000000000000000000000000000000000000008152600401610c0f90613bbb565b60405180910390fd5b600760008473ffffffffffffffffffffffffffffffffffffffff1673ffffffffffffffffffffffffffffffffffffffff168152602001908152602001600020600083815260200190815260200160002054905092915050565b610c79611990565b73ffffffffffffffffffffffffffffffffffffffff168173ffffffffffffffffffffffffffffffffffffffff1614610ce6576040517f08c379a0000000000000000000000000000000000000000000000000000000008152600401610cdd90613ddb565b60405180910390fd5b610cf08282612030565b5050565b6000610cff82610e3d565b9050919050565b6000600d82604051610d189190613a6b565b9081526020016040518091039020549050919050565b610d498383836040518060200160405280600081525061142b565b505050565b6000610d58610ad8565b8210610d99576040517f08c379a0000000000000000000000000000000000000000000000000000000008152600401610d9090613d9b565b60405180910390fd5b60098281548110610dd3577f4e487b7100000000000000000000000000000000000000000000000000000000600052603260045260246000fd5b90600052602060002001549050919050565b7fa49807205ce4d355092ef5a8a18f56e8913cf4a201fbe287825b095693c21775610e1781610e12611990565b611d96565b6000600e6000858152602001908152602001600020905082816000018190555050505050565b6000806003600084815260200190815260200160002060009054906101000a900473ffffffffffffffffffffffffffffffffffffffff169050600073ffffffffffffffffffffffffffffffffffffffff168173ffffffffffffffffffffffffffffffffffffffff161415610ee6576040517f08c379a0000000000000000000000000000000000000000000000000000000008152600401610edd90613cdb565b60405180910390fd5b80915050919050565b6060600c60008381526020019081526020016000208054610f0f90614153565b80601f0160208091040260200160405190810160405280929190818152602001828054610f3b90614153565b8015610f885780601f10610f5d57610100808354040283529160200191610f88565b820191906000526020600020905b815481529060010190602001808311610f6b57829003601f168201915b50505050509050919050565b60008073ffffffffffffffffffffffffffffffffffffffff168273ffffffffffffffffffffffffffffffffffffffff161415611005576040517f08c379a0000000000000000000000000000000000000000000000000000000008152600401610ffc90613cbb565b60405180910390fd5b600460008373ffffffffffffffffffffffffffffffffffffffff1673ffffffffffffffffffffffffffffffffffffffff168152602001908152602001600020549050919050565b7fa49807205ce4d355092ef5a8a18f56e8913cf4a201fbe287825b095693c2177581565b7fa49807205ce4d355092ef5a8a18f56e8913cf4a201fbe287825b095693c217756110a28161109d611990565b611d96565b6000600e60008581526020019081526020016000209050828160010160006101000a81548160ff02191690831515021790555050505050565b6060600e6000600d846040516110f19190613a6b565b9081526020016040518091039020548152602001908152602001600020600301805461111c90614153565b80601f016020809104026020016040519081016040528092919081815260200182805461114890614153565b80156111955780601f1061116a57610100808354040283529160200191611195565b820191906000526020600020905b81548152906001019060200180831161117857829003601f168201915b50505050509050919050565b600080600084815260200190815260200160002060000160008373ffffffffffffffffffffffffffffffffffffffff1673ffffffffffffffffffffffffffffffffffffffff16815260200190815260200160002060009054906101000a900460ff16905092915050565b6000600e600084815260200190815260200160002060020182600281111561125c577f4e487b7100000000000000000000000000000000000000000000000000000000600052602160045260246000fd5b81548110611293577f4e487b7100000000000000000000000000000000000000000000000000000000600052603260045260246000fd5b9060005260206000200154905092915050565b6060600280546112b590614153565b80601f01602080910402602001604051908101604052809291908181526020018280546112e190614153565b801561132e5780601f106113035761010080835404028352916020019161132e565b820191906000526020600020905b81548152906001019060200180831161131157829003601f168201915b5050505050905090565b6000801b81565b61135161134a611990565b8383612111565b5050565b7fa49807205ce4d355092ef5a8a18f56e8913cf4a201fbe287825b095693c2177561138781611382611990565b611d96565b6000600e60008681526020019081526020016000209050828160020185815481106113db577f4e487b7100000000000000000000000000000000000000000000000000000000600052603260045260246000fd5b90600052602060002001819055507fd76dbaf3ca98cf50baff1d9ebf5d39fc2d76f2191d8ee50fedcee61510979cb285858560405161141c93929190613e84565b60405180910390a15050505050565b61143c611436611990565b83611a51565b61147b576040517f08c379a000000000000000000000000000000000000000000000000000000000815260040161147290613d7b565b60405180910390fd5b6114878484848461227e565b50505050565b60606000600e600084815260200190815260200160002060030180546114b290614153565b80601f01602080910402602001604051908101604052809291908181526020018280546114de90614153565b801561152b5780601f106115005761010080835404028352916020019161152b565b820191906000526020600020905b81548152906001019060200180831161150e57829003601f168201915b5050505050905060008151116115505760405180602001604052806000815250611552565b805b915050919050565b6000600e6000838152602001908152602001600020600001549050919050565b60007fa49807205ce4d355092ef5a8a18f56e8913cf4a201fbe287825b095693c217756115ae816115a9611990565b611d96565b60008351116115f2576040517f08c379a00000000000000000000000000000000000000000000000000000000081526004016115e990613d3b565b60405180910390fd5b60006115fd84610d06565b1461163d576040517f08c379a000000000000000000000000000000000000000000000000000000000815260040161163490613dbb565b60405180910390fd5b600b6000815480929190611650906141b6565b91905055506000600b54905061166685826122da565b83600c6000838152602001908152602001600020908051906020019061168d929190612fc4565b5080600d8560405161169f9190613a6b565b9081526020016040518091039020819055506000600e60008381526020019081526020016000209050428160000181905550600367ffffffffffffffff811115611712577f4e487b7100000000000000000000000000000000000000000000000000000000600052604160045260246000fd5b6040519080825280602002602001820160405280156117405781602001602082028036833780820191505090505b5081600201908051906020019061175892919061304a565b50600181600201600081548110611798577f4e487b7100000000000000000000000000000000000000000000000000000000600052603260045260246000fd5b90600052602060002001819055507f801e4f094ca77008fe5357fb00f363025c9d277075e313a6493b2d780d3270308286886040516117d993929190613e46565b60405180910390a181935050505092915050565b6117f682610b45565b61180781611802611990565b611d96565b6118118383612030565b505050565b6000600660008473ffffffffffffffffffffffffffffffffffffffff1673ffffffffffffffffffffffffffffffffffffffff16815260200190815260200160002060008373ffffffffffffffffffffffffffffffffffffffff1673ffffffffffffffffffffffffffffffffffffffff16815260200190815260200160002060009054906101000a900460ff16905092915050565b60007f780e9d63000000000000000000000000000000000000000000000000000000007bffffffffffffffffffffffffffffffffffffffffffffffffffffffff1916827bffffffffffffffffffffffffffffffffffffffffffffffffffffffff1916148061191d575061191c826124b4565b5b9050919050565b60008073ffffffffffffffffffffffffffffffffffffffff166003600084815260200190815260200160002060009054906101000a900473ffffffffffffffffffffffffffffffffffffffff1673ffffffffffffffffffffffffffffffffffffffff1614159050919050565b600033905090565b816005600083815260200190815260200160002060006101000a81548173ffffffffffffffffffffffffffffffffffffffff021916908373ffffffffffffffffffffffffffffffffffffffff160217905550808273ffffffffffffffffffffffffffffffffffffffff16611a0b83610e3d565b73ffffffffffffffffffffffffffffffffffffffff167f8c5be1e5ebec7d5bd14f71427d1e84f3dd0314c0f7b2291e5b200ac8c7c3b92560405160405180910390a45050565b6000611a5c82611924565b611a9b576040517f08c379a0000000000000000000000000000000000000000000000000000000008152600401611a9290613c7b565b60405180910390fd5b6000611aa683610e3d565b90508073ffffffffffffffffffffffffffffffffffffffff168473ffffffffffffffffffffffffffffffffffffffff161480611b1557508373ffffffffffffffffffffffffffffffffffffffff16611afd84610827565b73ffffffffffffffffffffffffffffffffffffffff16145b80611b265750611b258185611816565b5b91505092915050565b8273ffffffffffffffffffffffffffffffffffffffff16611b4f82610e3d565b73ffffffffffffffffffffffffffffffffffffffff1614611ba5576040517f08c379a0000000000000000000000000000000000000000000000000000000008152600401611b9c90613bfb565b60405180910390fd5b600073ffffffffffffffffffffffffffffffffffffffff168273ffffffffffffffffffffffffffffffffffffffff161415611c15576040517f08c379a0000000000000000000000000000000000000000000000000000000008152600401611c0c90613c3b565b60405180910390fd5b611c20838383612596565b611c2b600082611998565b6001600460008573ffffffffffffffffffffffffffffffffffffffff1673ffffffffffffffffffffffffffffffffffffffff1681526020019081526020016000206000828254611c7b9190614035565b925050819055506001600460008473ffffffffffffffffffffffffffffffffffffffff1673ffffffffffffffffffffffffffffffffffffffff1681526020019081526020016000206000828254611cd29190613f85565b92505081905550816003600083815260200190815260200160002060006101000a81548173ffffffffffffffffffffffffffffffffffffffff021916908373ffffffffffffffffffffffffffffffffffffffff160217905550808273ffffffffffffffffffffffffffffffffffffffff168473ffffffffffffffffffffffffffffffffffffffff167fddf252ad1be2c89b69c2b068fc378daa952ba7f163c4a11628f55a4df523b3ef60405160405180910390a4611d918383836126aa565b505050565b611da082826111a1565b611e2f57611dc58173ffffffffffffffffffffffffffffffffffffffff1660146126af565b611dd38360001c60206126af565b604051602001611de4929190613a82565b6040516020818303038152906040526040517f08c379a0000000000000000000000000000000000000000000000000000000008152600401611e269190613b59565b60405180910390fd5b5050565b6000611e3e82610e3d565b9050611e4c81600084612596565b611e57600083611998565b6001600460008373ffffffffffffffffffffffffffffffffffffffff1673ffffffffffffffffffffffffffffffffffffffff1681526020019081526020016000206000828254611ea79190614035565b925050819055506003600083815260200190815260200160002060006101000a81549073ffffffffffffffffffffffffffffffffffffffff021916905581600073ffffffffffffffffffffffffffffffffffffffff168273ffffffffffffffffffffffffffffffffffffffff167fddf252ad1be2c89b69c2b068fc378daa952ba7f163c4a11628f55a4df523b3ef60405160405180910390a4611f4c816000846126aa565b5050565b611f5a82826111a1565b61202c57600160008084815260200190815260200160002060000160008373ffffffffffffffffffffffffffffffffffffffff1673ffffffffffffffffffffffffffffffffffffffff16815260200190815260200160002060006101000a81548160ff021916908315150217905550611fd1611990565b73ffffffffffffffffffffffffffffffffffffffff168173ffffffffffffffffffffffffffffffffffffffff16837f2f8788117e7eff1d82e926ec794901d17c78024a50270940304540a733656f0d60405160405180910390a45b5050565b61203a82826111a1565b1561210d57600080600084815260200190815260200160002060000160008373ffffffffffffffffffffffffffffffffffffffff1673ffffffffffffffffffffffffffffffffffffffff16815260200190815260200160002060006101000a81548160ff0219169083151502179055506120b2611990565b73ffffffffffffffffffffffffffffffffffffffff168173ffffffffffffffffffffffffffffffffffffffff16837ff6391f5c32d9c69d2a47ea670b442974b53935d1edc7fd64eb21e047a839171b60405160405180910390a45b5050565b8173ffffffffffffffffffffffffffffffffffffffff168373ffffffffffffffffffffffffffffffffffffffff161415612180576040517f08c379a000000000000000000000000000000000000000000000000000000000815260040161217790613c5b565b60405180910390fd5b80600660008573ffffffffffffffffffffffffffffffffffffffff1673ffffffffffffffffffffffffffffffffffffffff16815260200190815260200160002060008473ffffffffffffffffffffffffffffffffffffffff1673ffffffffffffffffffffffffffffffffffffffff16815260200190815260200160002060006101000a81548160ff0219169083151502179055508173ffffffffffffffffffffffffffffffffffffffff168373ffffffffffffffffffffffffffffffffffffffff167f17307eab39ab6107e8899845ad3d59bd9653f200f220920489ca2b5937696c31836040516122719190613b23565b60405180910390a3505050565b612289848484611b2f565b612295848484846129a9565b6122d4576040517f08c379a00000000000000000000000000000000000000000000000000000000081526004016122cb90613bdb565b60405180910390fd5b50505050565b600073ffffffffffffffffffffffffffffffffffffffff168273ffffffffffffffffffffffffffffffffffffffff16141561234a576040517f08c379a000000000000000000000000000000000000000000000000000000000815260040161234190613cfb565b60405180910390fd5b61235381611924565b15612393576040517f08c379a000000000000000000000000000000000000000000000000000000000815260040161238a90613c1b565b60405180910390fd5b61239f60008383612596565b6001600460008473ffffffffffffffffffffffffffffffffffffffff1673ffffffffffffffffffffffffffffffffffffffff16815260200190815260200160002060008282546123ef9190613f85565b92505081905550816003600083815260200190815260200160002060006101000a81548173ffffffffffffffffffffffffffffffffffffffff021916908373ffffffffffffffffffffffffffffffffffffffff160217905550808273ffffffffffffffffffffffffffffffffffffffff16600073ffffffffffffffffffffffffffffffffffffffff167fddf252ad1be2c89b69c2b068fc378daa952ba7f163c4a11628f55a4df523b3ef60405160405180910390a46124b0600083836126aa565b5050565b60007f80ac58cd000000000000000000000000000000000000000000000000000000007bffffffffffffffffffffffffffffffffffffffffffffffffffffffff1916827bffffffffffffffffffffffffffffffffffffffffffffffffffffffff1916148061257f57507f5b5e139f000000000000000000000000000000000000000000000000000000007bffffffffffffffffffffffffffffffffffffffffffffffffffffffff1916827bffffffffffffffffffffffffffffffffffffffffffffffffffffffff1916145b8061258f575061258e82612b40565b5b9050919050565b6125a1838383612bba565b600073ffffffffffffffffffffffffffffffffffffffff168373ffffffffffffffffffffffffffffffffffffffff1614156125e4576125df81612bbf565b612623565b8173ffffffffffffffffffffffffffffffffffffffff168373ffffffffffffffffffffffffffffffffffffffff1614612622576126218382612c08565b5b5b600073ffffffffffffffffffffffffffffffffffffffff168273ffffffffffffffffffffffffffffffffffffffff1614156126665761266181612d75565b6126a5565b8273ffffffffffffffffffffffffffffffffffffffff168273ffffffffffffffffffffffffffffffffffffffff16146126a4576126a38282612eb8565b5b5b505050565b505050565b6060600060028360026126c29190613fdb565b6126cc9190613f85565b67ffffffffffffffff81111561270b577f4e487b7100000000000000000000000000000000000000000000000000000000600052604160045260246000fd5b6040519080825280601f01601f19166020018201604052801561273d5781602001600182028036833780820191505090505b5090507f30000000000000000000000000000000000000000000000000000000000000008160008151811061279b577f4e487b7100000000000000000000000000000000000000000000000000000000600052603260045260246000fd5b60200101907effffffffffffffffffffffffffffffffffffffffffffffffffffffffffffff1916908160001a9053507f780000000000000000000000000000000000000000000000000000000000000081600181518110612825577f4e487b7100000000000000000000000000000000000000000000000000000000600052603260045260246000fd5b60200101907effffffffffffffffffffffffffffffffffffffffffffffffffffffffffffff1916908160001a905350600060018460026128659190613fdb565b61286f9190613f85565b90505b600181111561295b577f3031323334353637383961626364656600000000000000000000000000000000600f8616601081106128d7577f4e487b7100000000000000000000000000000000000000000000000000000000600052603260045260246000fd5b1a60f81b828281518110612914577f4e487b7100000000000000000000000000000000000000000000000000000000600052603260045260246000fd5b60200101907effffffffffffffffffffffffffffffffffffffffffffffffffffffffffffff1916908160001a905350600485901c94508061295490614129565b9050612872565b506000841461299f576040517f08c379a000000000000000000000000000000000000000000000000000000000815260040161299690613b7b565b60405180910390fd5b8091505092915050565b60006129ca8473ffffffffffffffffffffffffffffffffffffffff16612f37565b15612b33578373ffffffffffffffffffffffffffffffffffffffff1663150b7a026129f3611990565b8786866040518563ffffffff1660e01b8152600401612a159493929190613ad7565b602060405180830381600087803b158015612a2f57600080fd5b505af1925050508015612a6057506040513d601f19601f82011682018060405250810190612a5d91906134a0565b60015b612ae3573d8060008114612a90576040519150601f19603f3d011682016040523d82523d6000602084013e612a95565b606091505b50600081511415612adb576040517f08c379a0000000000000000000000000000000000000000000000000000000008152600401612ad290613bdb565b60405180910390fd5b805181602001fd5b63150b7a0260e01b7bffffffffffffffffffffffffffffffffffffffffffffffffffffffff1916817bffffffffffffffffffffffffffffffffffffffffffffffffffffffff191614915050612b38565b600190505b949350505050565b60007f7965db0b000000000000000000000000000000000000000000000000000000007bffffffffffffffffffffffffffffffffffffffffffffffffffffffff1916827bffffffffffffffffffffffffffffffffffffffffffffffffffffffff19161480612bb35750612bb282612f5a565b5b9050919050565b505050565b600980549050600a600083815260200190815260200160002081905550600981908060018154018082558091505060019003906000526020600020016000909190919091505550565b60006001612c1584610f94565b612c1f9190614035565b9050600060086000848152602001908152602001600020549050818114612d04576000600760008673ffffffffffffffffffffffffffffffffffffffff1673ffffffffffffffffffffffffffffffffffffffff168152602001908152602001600020600084815260200190815260200160002054905080600760008773ffffffffffffffffffffffffffffffffffffffff1673ffffffffffffffffffffffffffffffffffffffff168152602001908152602001600020600084815260200190815260200160002081905550816008600083815260200190815260200160002081905550505b6008600084815260200190815260200160002060009055600760008573ffffffffffffffffffffffffffffffffffffffff1673ffffffffffffffffffffffffffffffffffffffff16815260200190815260200160002060008381526020019081526020016000206000905550505050565b60006001600980549050612d899190614035565b90506000600a6000848152602001908152602001600020549050600060098381548110612ddf577f4e487b7100000000000000000000000000000000000000000000000000000000600052603260045260246000fd5b906000526020600020015490508060098381548110612e27577f4e487b7100000000000000000000000000000000000000000000000000000000600052603260045260246000fd5b906000526020600020018190555081600a600083815260200190815260200160002081905550600a6000858152602001908152602001600020600090556009805480612e9c577f4e487b7100000000000000000000000000000000000000000000000000000000600052603160045260246000fd5b6001900381819060005260206000200160009055905550505050565b6000612ec383610f94565b905081600760008573ffffffffffffffffffffffffffffffffffffffff1673ffffffffffffffffffffffffffffffffffffffff168152602001908152602001600020600083815260200190815260200160002081905550806008600084815260200190815260200160002081905550505050565b6000808273ffffffffffffffffffffffffffffffffffffffff163b119050919050565b60007f01ffc9a7000000000000000000000000000000000000000000000000000000007bffffffffffffffffffffffffffffffffffffffffffffffffffffffff1916827bffffffffffffffffffffffffffffffffffffffffffffffffffffffff1916149050919050565b828054612fd090614153565b90600052602060002090601f016020900481019282612ff25760008555613039565b82601f1061300b57805160ff1916838001178555613039565b82800160010185558215613039579182015b8281111561303857825182559160200191906001019061301d565b5b5090506130469190613097565b5090565b828054828255906000526020600020908101928215613086579160200282015b8281111561308557825182559160200191906001019061306a565b5b5090506130939190613097565b5090565b5b808211156130b0576000816000905550600101613098565b5090565b60006130c76130c284613ee0565b613ebb565b9050828152602081018484840111156130df57600080fd5b6130ea8482856140e7565b509392505050565b600061310561310084613f11565b613ebb565b90508281526020810184848401111561311d57600080fd5b6131288482856140e7565b509392505050565b60008135905061313f81614837565b92915050565b6000813590506131548161484e565b92915050565b60008135905061316981614865565b92915050565b60008135905061317e8161487c565b92915050565b6000815190506131938161487c565b92915050565b600082601f8301126131aa57600080fd5b81356131ba8482602086016130b4565b91505092915050565b6000813590506131d281614893565b92915050565b600082601f8301126131e957600080fd5b81356131f98482602086016130f2565b91505092915050565b600081359050613211816148a3565b92915050565b60006020828403121561322957600080fd5b600061323784828501613130565b91505092915050565b6000806040838503121561325357600080fd5b600061326185828601613130565b925050602061327285828601613130565b9150509250929050565b60008060006060848603121561329157600080fd5b600061329f86828701613130565b93505060206132b086828701613130565b92505060406132c186828701613202565b9150509250925092565b600080600080608085870312156132e157600080fd5b60006132ef87828801613130565b945050602061330087828801613130565b935050604061331187828801613202565b925050606085013567ffffffffffffffff81111561332e57600080fd5b61333a87828801613199565b91505092959194509250565b6000806040838503121561335957600080fd5b600061336785828601613130565b925050602061337885828601613145565b9150509250929050565b6000806040838503121561339557600080fd5b60006133a385828601613130565b925050602083013567ffffffffffffffff8111156133c057600080fd5b6133cc858286016131d8565b9150509250929050565b600080604083850312156133e957600080fd5b60006133f785828601613130565b925050602061340885828601613202565b9150509250929050565b60006020828403121561342457600080fd5b60006134328482850161315a565b91505092915050565b6000806040838503121561344e57600080fd5b600061345c8582860161315a565b925050602061346d85828601613130565b9150509250929050565b60006020828403121561348957600080fd5b60006134978482850161316f565b91505092915050565b6000602082840312156134b257600080fd5b60006134c084828501613184565b91505092915050565b6000602082840312156134db57600080fd5b600082013567ffffffffffffffff8111156134f557600080fd5b613501848285016131d8565b91505092915050565b60006020828403121561351c57600080fd5b600061352a84828501613202565b91505092915050565b6000806040838503121561354657600080fd5b600061355485828601613202565b925050602061356585828601613145565b9150509250929050565b6000806040838503121561358257600080fd5b600061359085828601613202565b92505060206135a1858286016131c3565b9150509250929050565b600080604083850312156135be57600080fd5b60006135cc85828601613202565b925050602083013567ffffffffffffffff8111156135e957600080fd5b6135f5858286016131d8565b9150509250929050565b6000806040838503121561361257600080fd5b600061362085828601613202565b925050602061363185828601613202565b9150509250929050565b60008060006060848603121561365057600080fd5b600061365e86828701613202565b935050602061366f86828701613202565b925050604061368086828701613202565b9150509250925092565b61369381614069565b82525050565b6136a28161407b565b82525050565b6136b181614087565b82525050565b60006136c282613f42565b6136cc8185613f58565b93506136dc8185602086016140f6565b6136e58161428c565b840191505092915050565b60006136fb82613f4d565b6137058185613f69565b93506137158185602086016140f6565b61371e8161428c565b840191505092915050565b600061373482613f4d565b61373e8185613f7a565b935061374e8185602086016140f6565b80840191505092915050565b6000613767602083613f69565b91506137728261429d565b602082019050919050565b600061378a602783613f69565b9150613795826142c6565b604082019050919050565b60006137ad602b83613f69565b91506137b882614315565b604082019050919050565b60006137d0603283613f69565b91506137db82614364565b604082019050919050565b60006137f3602583613f69565b91506137fe826143b3565b604082019050919050565b6000613816601c83613f69565b915061382182614402565b602082019050919050565b6000613839602483613f69565b91506138448261442b565b604082019050919050565b600061385c601983613f69565b91506138678261447a565b602082019050919050565b600061387f602c83613f69565b915061388a826144a3565b604082019050919050565b60006138a2603883613f69565b91506138ad826144f2565b604082019050919050565b60006138c5602a83613f69565b91506138d082614541565b604082019050919050565b60006138e8602983613f69565b91506138f382614590565b604082019050919050565b600061390b602083613f69565b9150613916826145df565b602082019050919050565b600061392e602c83613f69565b915061393982614608565b604082019050919050565b6000613951601c83613f69565b915061395c82614657565b602082019050919050565b6000613974602183613f69565b915061397f82614680565b604082019050919050565b6000613997603183613f69565b91506139a2826146cf565b604082019050919050565b60006139ba602c83613f69565b91506139c58261471e565b604082019050919050565b60006139dd601783613f7a565b91506139e88261476d565b601782019050919050565b6000613a00601283613f69565b9150613a0b82614796565b602082019050919050565b6000613a23601183613f7a565b9150613a2e826147bf565b601182019050919050565b6000613a46602f83613f69565b9150613a51826147e8565b604082019050919050565b613a65816140dd565b82525050565b6000613a778284613729565b915081905092915050565b6000613a8d826139d0565b9150613a998285613729565b9150613aa482613a16565b9150613ab08284613729565b91508190509392505050565b6000602082019050613ad1600083018461368a565b92915050565b6000608082019050613aec600083018761368a565b613af9602083018661368a565b613b066040830185613a5c565b8181036060830152613b1881846136b7565b905095945050505050565b6000602082019050613b386000830184613699565b92915050565b6000602082019050613b5360008301846136a8565b92915050565b60006020820190508181036000830152613b7381846136f0565b905092915050565b60006020820190508181036000830152613b948161375a565b9050919050565b60006020820190508181036000830152613bb48161377d565b9050919050565b60006020820190508181036000830152613bd4816137a0565b9050919050565b60006020820190508181036000830152613bf4816137c3565b9050919050565b60006020820190508181036000830152613c14816137e6565b9050919050565b60006020820190508181036000830152613c3481613809565b9050919050565b60006020820190508181036000830152613c548161382c565b9050919050565b60006020820190508181036000830152613c748161384f565b9050919050565b60006020820190508181036000830152613c9481613872565b9050919050565b60006020820190508181036000830152613cb481613895565b9050919050565b60006020820190508181036000830152613cd4816138b8565b9050919050565b60006020820190508181036000830152613cf4816138db565b9050919050565b60006020820190508181036000830152613d14816138fe565b9050919050565b60006020820190508181036000830152613d3481613921565b9050919050565b60006020820190508181036000830152613d5481613944565b9050919050565b60006020820190508181036000830152613d7481613967565b9050919050565b60006020820190508181036000830152613d948161398a565b9050919050565b60006020820190508181036000830152613db4816139ad565b9050919050565b60006020820190508181036000830152613dd4816139f3565b9050919050565b60006020820190508181036000830152613df481613a39565b9050919050565b6000602082019050613e106000830184613a5c565b92915050565b6000604082019050613e2b6000830185613a5c565b8181036020830152613e3d81846136f0565b90509392505050565b6000606082019050613e5b6000830186613a5c565b8181036020830152613e6d81856136f0565b9050613e7c604083018461368a565b949350505050565b6000606082019050613e996000830186613a5c565b613ea66020830185613a5c565b613eb36040830184613a5c565b949350505050565b6000613ec5613ed6565b9050613ed18282614185565b919050565b6000604051905090565b600067ffffffffffffffff821115613efb57613efa61425d565b5b613f048261428c565b9050602081019050919050565b600067ffffffffffffffff821115613f2c57613f2b61425d565b5b613f358261428c565b9050602081019050919050565b600081519050919050565b600081519050919050565b600082825260208201905092915050565b600082825260208201905092915050565b600081905092915050565b6000613f90826140dd565b9150613f9b836140dd565b9250827fffffffffffffffffffffffffffffffffffffffffffffffffffffffffffffffff03821115613fd057613fcf6141ff565b5b828201905092915050565b6000613fe6826140dd565b9150613ff1836140dd565b9250817fffffffffffffffffffffffffffffffffffffffffffffffffffffffffffffffff048311821515161561402a576140296141ff565b5b828202905092915050565b6000614040826140dd565b915061404b836140dd565b92508282101561405e5761405d6141ff565b5b828203905092915050565b6000614074826140bd565b9050919050565b60008115159050919050565b6000819050919050565b60007fffffffff0000000000000000000000000000000000000000000000000000000082169050919050565b600073ffffffffffffffffffffffffffffffffffffffff82169050919050565b6000819050919050565b82818337600083830152505050565b60005b838110156141145780820151818401526020810190506140f9565b83811115614123576000848401525b50505050565b6000614134826140dd565b91506000821415614148576141476141ff565b5b600182039050919050565b6000600282049050600182168061416b57607f821691505b6020821081141561417f5761417e61422e565b5b50919050565b61418e8261428c565b810181811067ffffffffffffffff821117156141ad576141ac61425d565b5b80604052505050565b60006141c1826140dd565b91507fffffffffffffffffffffffffffffffffffffffffffffffffffffffffffffffff8214156141f4576141f36141ff565b5b600182019050919050565b7f4e487b7100000000000000000000000000000000000000000000000000000000600052601160045260246000fd5b7f4e487b7100000000000000000000000000000000000000000000000000000000600052602260045260246000fd5b7f4e487b7100000000000000000000000000000000000000000000000000000000600052604160045260246000fd5b6000601f19601f8301169050919050565b7f537472696e67733a20686578206c656e67746820696e73756666696369656e74600082015250565b7f4f6e6c7920746f6b656e206f776e65722063616e2063616c6c2074686973206660008201527f756e6374696f6e00000000000000000000000000000000000000000000000000602082015250565b7f455243373231456e756d657261626c653a206f776e657220696e646578206f7560008201527f74206f6620626f756e6473000000000000000000000000000000000000000000602082015250565b7f4552433732313a207472616e7366657220746f206e6f6e20455243373231526560008201527f63656976657220696d706c656d656e7465720000000000000000000000000000602082015250565b7f4552433732313a207472616e736665722066726f6d20696e636f72726563742060008201527f6f776e6572000000000000000000000000000000000000000000000000000000602082015250565b7f4552433732313a20746f6b656e20616c7265616479206d696e74656400000000600082015250565b7f4552433732313a207472616e7366657220746f20746865207a65726f2061646460008201527f7265737300000000000000000000000000000000000000000000000000000000602082015250565b7f4552433732313a20617070726f766520746f2063616c6c657200000000000000600082015250565b7f4552433732313a206f70657261746f7220717565727920666f72206e6f6e657860008201527f697374656e7420746f6b656e0000000000000000000000000000000000000000602082015250565b7f4552433732313a20617070726f76652063616c6c6572206973206e6f74206f7760008201527f6e6572206e6f7220617070726f76656420666f7220616c6c0000000000000000602082015250565b7f4552433732313a2062616c616e636520717565727920666f7220746865207a6560008201527f726f206164647265737300000000000000000000000000000000000000000000602082015250565b7f4552433732313a206f776e657220717565727920666f72206e6f6e657869737460008201527f656e7420746f6b656e0000000000000000000000000000000000000000000000602082015250565b7f4552433732313a206d696e7420746f20746865207a65726f2061646472657373600082015250565b7f4552433732313a20617070726f76656420717565727920666f72206e6f6e657860008201527f697374656e7420746f6b656e0000000000000000000000000000000000000000602082015250565b7f4b696e67646f6d206e616d652063616e6e6f7420626520656d70747900000000600082015250565b7f4552433732313a20617070726f76616c20746f2063757272656e74206f776e6560008201527f7200000000000000000000000000000000000000000000000000000000000000602082015250565b7f4552433732313a207472616e736665722063616c6c6572206973206e6f74206f60008201527f776e6572206e6f7220617070726f766564000000000000000000000000000000602082015250565b7f455243373231456e756d657261626c653a20676c6f62616c20696e646578206f60008201527f7574206f6620626f756e64730000000000000000000000000000000000000000602082015250565b7f416363657373436f6e74726f6c3a206163636f756e7420000000000000000000600082015250565b7f4e616d6520616c72656164792065786973740000000000000000000000000000600082015250565b7f206973206d697373696e6720726f6c6520000000000000000000000000000000600082015250565b7f416363657373436f6e74726f6c3a2063616e206f6e6c792072656e6f756e636560008201527f20726f6c657320666f722073656c660000000000000000000000000000000000602082015250565b61484081614069565b811461484b57600080fd5b50565b6148578161407b565b811461486257600080fd5b50565b61486e81614087565b811461487957600080fd5b50565b61488581614091565b811461489057600080fd5b50565b600381106148a057600080fd5b50565b6148ac816140dd565b81146148b757600080fd5b5056fea264697066735822122046b82dbb3c0693b41cc05594607e3f21a0db885f975c7d436c27a1e8e347e4d864736f6c63430008040033",
  "devdoc": {
    "kind": "dev",
    "methods": {
      "approve(address,uint256)": {
        "details": "See {IERC721-approve}."
      },
      "balanceOf(address)": {
        "details": "See {IERC721-balanceOf}."
      },
      "getApproved(uint256)": {
        "details": "See {IERC721-getApproved}."
      },
      "getRoleAdmin(bytes32)": {
        "details": "Returns the admin role that controls `role`. See {grantRole} and {revokeRole}. To change a role's admin, use {_setRoleAdmin}."
      },
      "grantRole(bytes32,address)": {
        "details": "Grants `role` to `account`. If `account` had not been already granted `role`, emits a {RoleGranted} event. Requirements: - the caller must have ``role``'s admin role."
      },
      "hasRole(bytes32,address)": {
        "details": "Returns `true` if `account` has been granted `role`."
      },
      "isApprovedForAll(address,address)": {
        "details": "See {IERC721-isApprovedForAll}."
      },
      "name()": {
        "details": "See {IERC721Metadata-name}."
      },
      "ownerOf(uint256)": {
        "details": "See {IERC721-ownerOf}."
      },
      "renounceRole(bytes32,address)": {
        "details": "Revokes `role` from the calling account. Roles are often managed via {grantRole} and {revokeRole}: this function's purpose is to provide a mechanism for accounts to lose their privileges if they are compromised (such as when a trusted device is misplaced). If the calling account had been revoked `role`, emits a {RoleRevoked} event. Requirements: - the caller must be `account`."
      },
      "revokeRole(bytes32,address)": {
        "details": "Revokes `role` from `account`. If `account` had been granted `role`, emits a {RoleRevoked} event. Requirements: - the caller must have ``role``'s admin role."
      },
      "safeTransferFrom(address,address,uint256)": {
        "details": "See {IERC721-safeTransferFrom}."
      },
      "safeTransferFrom(address,address,uint256,bytes)": {
        "details": "See {IERC721-safeTransferFrom}."
      },
      "setApprovalForAll(address,bool)": {
        "details": "See {IERC721-setApprovalForAll}."
      },
      "symbol()": {
        "details": "See {IERC721Metadata-symbol}."
      },
      "tokenByIndex(uint256)": {
        "details": "See {IERC721Enumerable-tokenByIndex}."
      },
      "tokenOfOwnerByIndex(address,uint256)": {
        "details": "See {IERC721Enumerable-tokenOfOwnerByIndex}."
      },
      "totalSupply()": {
        "details": "See {IERC721Enumerable-totalSupply}."
      },
      "transferFrom(address,address,uint256)": {
        "details": "See {IERC721-transferFrom}."
      }
    },
    "version": 1
  },
  "userdoc": {
    "kind": "user",
    "methods": {
      "mint(address,string)": {
        "notice": "Mint new kingdom token All building start from level 0. Towncenter start from lv 1."
      },
      "setTokenURI(uint256,string)": {
        "notice": "every time player change portrait,flag, we push new IPFS URI to kingdom contract."
      },
      "tokenURI(uint256)": {
        "notice": "Return default icon if have one."
      }
    },
    "notice": "An extension version from ERC721Enumerable and ERC721URIStorage Enumerable allow query current address list of kingdom token",
    "version": 1
  },
  "storageLayout": {
    "storage": [
      {
        "astId": 24,
        "contract": "contracts/KingdomNFT.sol:KingdomNFT",
        "label": "_roles",
        "offset": 0,
        "slot": "0",
        "type": "t_mapping(t_bytes32,t_struct(RoleData)19_storage)"
      },
      {
        "astId": 1203,
        "contract": "contracts/KingdomNFT.sol:KingdomNFT",
        "label": "_name",
        "offset": 0,
        "slot": "1",
        "type": "t_string_storage"
      },
      {
        "astId": 1205,
        "contract": "contracts/KingdomNFT.sol:KingdomNFT",
        "label": "_symbol",
        "offset": 0,
        "slot": "2",
        "type": "t_string_storage"
      },
      {
        "astId": 1209,
        "contract": "contracts/KingdomNFT.sol:KingdomNFT",
        "label": "_owners",
        "offset": 0,
        "slot": "3",
        "type": "t_mapping(t_uint256,t_address)"
      },
      {
        "astId": 1213,
        "contract": "contracts/KingdomNFT.sol:KingdomNFT",
        "label": "_balances",
        "offset": 0,
        "slot": "4",
        "type": "t_mapping(t_address,t_uint256)"
      },
      {
        "astId": 1217,
        "contract": "contracts/KingdomNFT.sol:KingdomNFT",
        "label": "_tokenApprovals",
        "offset": 0,
        "slot": "5",
        "type": "t_mapping(t_uint256,t_address)"
      },
      {
        "astId": 1223,
        "contract": "contracts/KingdomNFT.sol:KingdomNFT",
        "label": "_operatorApprovals",
        "offset": 0,
        "slot": "6",
        "type": "t_mapping(t_address,t_mapping(t_address,t_bool))"
      },
      {
        "astId": 2192,
        "contract": "contracts/KingdomNFT.sol:KingdomNFT",
        "label": "_ownedTokens",
        "offset": 0,
        "slot": "7",
        "type": "t_mapping(t_address,t_mapping(t_uint256,t_uint256))"
      },
      {
        "astId": 2196,
        "contract": "contracts/KingdomNFT.sol:KingdomNFT",
        "label": "_ownedTokensIndex",
        "offset": 0,
        "slot": "8",
        "type": "t_mapping(t_uint256,t_uint256)"
      },
      {
        "astId": 2199,
        "contract": "contracts/KingdomNFT.sol:KingdomNFT",
        "label": "_allTokens",
        "offset": 0,
        "slot": "9",
        "type": "t_array(t_uint256)dyn_storage"
      },
      {
        "astId": 2203,
        "contract": "contracts/KingdomNFT.sol:KingdomNFT",
        "label": "_allTokensIndex",
        "offset": 0,
        "slot": "10",
        "type": "t_mapping(t_uint256,t_uint256)"
      },
      {
        "astId": 3547,
        "contract": "contracts/KingdomNFT.sol:KingdomNFT",
        "label": "tokenCounter",
        "offset": 0,
        "slot": "11",
        "type": "t_uint256"
      },
      {
        "astId": 3551,
        "contract": "contracts/KingdomNFT.sol:KingdomNFT",
        "label": "_tokenName",
        "offset": 0,
        "slot": "12",
        "type": "t_mapping(t_uint256,t_string_storage)"
      },
      {
        "astId": 3555,
        "contract": "contracts/KingdomNFT.sol:KingdomNFT",
        "label": "_nameToToken",
        "offset": 0,
        "slot": "13",
        "type": "t_mapping(t_string_memory_ptr,t_uint256)"
      },
      {
        "astId": 3561,
        "contract": "contracts/KingdomNFT.sol:KingdomNFT",
        "label": "_tokenData",
        "offset": 0,
        "slot": "14",
        "type": "t_mapping(t_uint256,t_struct(Kingdom)3544_storage)"
      }
    ],
    "types": {
      "t_address": {
        "encoding": "inplace",
        "label": "address",
        "numberOfBytes": "20"
      },
      "t_array(t_uint256)dyn_storage": {
        "base": "t_uint256",
        "encoding": "dynamic_array",
        "label": "uint256[]",
        "numberOfBytes": "32"
      },
      "t_bool": {
        "encoding": "inplace",
        "label": "bool",
        "numberOfBytes": "1"
      },
      "t_bytes32": {
        "encoding": "inplace",
        "label": "bytes32",
        "numberOfBytes": "32"
      },
      "t_mapping(t_address,t_bool)": {
        "encoding": "mapping",
        "key": "t_address",
        "label": "mapping(address => bool)",
        "numberOfBytes": "32",
        "value": "t_bool"
      },
      "t_mapping(t_address,t_mapping(t_address,t_bool))": {
        "encoding": "mapping",
        "key": "t_address",
        "label": "mapping(address => mapping(address => bool))",
        "numberOfBytes": "32",
        "value": "t_mapping(t_address,t_bool)"
      },
      "t_mapping(t_address,t_mapping(t_uint256,t_uint256))": {
        "encoding": "mapping",
        "key": "t_address",
        "label": "mapping(address => mapping(uint256 => uint256))",
        "numberOfBytes": "32",
        "value": "t_mapping(t_uint256,t_uint256)"
      },
      "t_mapping(t_address,t_uint256)": {
        "encoding": "mapping",
        "key": "t_address",
        "label": "mapping(address => uint256)",
        "numberOfBytes": "32",
        "value": "t_uint256"
      },
      "t_mapping(t_bytes32,t_struct(RoleData)19_storage)": {
        "encoding": "mapping",
        "key": "t_bytes32",
        "label": "mapping(bytes32 => struct AccessControl.RoleData)",
        "numberOfBytes": "32",
        "value": "t_struct(RoleData)19_storage"
      },
      "t_mapping(t_string_memory_ptr,t_uint256)": {
        "encoding": "mapping",
        "key": "t_string_memory_ptr",
        "label": "mapping(string => uint256)",
        "numberOfBytes": "32",
        "value": "t_uint256"
      },
      "t_mapping(t_uint256,t_address)": {
        "encoding": "mapping",
        "key": "t_uint256",
        "label": "mapping(uint256 => address)",
        "numberOfBytes": "32",
        "value": "t_address"
      },
      "t_mapping(t_uint256,t_string_storage)": {
        "encoding": "mapping",
        "key": "t_uint256",
        "label": "mapping(uint256 => string)",
        "numberOfBytes": "32",
        "value": "t_string_storage"
      },
      "t_mapping(t_uint256,t_struct(Kingdom)3544_storage)": {
        "encoding": "mapping",
        "key": "t_uint256",
        "label": "mapping(uint256 => struct KingdomNFT.Kingdom)",
        "numberOfBytes": "32",
        "value": "t_struct(Kingdom)3544_storage"
      },
      "t_mapping(t_uint256,t_uint256)": {
        "encoding": "mapping",
        "key": "t_uint256",
        "label": "mapping(uint256 => uint256)",
        "numberOfBytes": "32",
        "value": "t_uint256"
      },
      "t_string_memory_ptr": {
        "encoding": "bytes",
        "label": "string",
        "numberOfBytes": "32"
      },
      "t_string_storage": {
        "encoding": "bytes",
        "label": "string",
        "numberOfBytes": "32"
      },
      "t_struct(Kingdom)3544_storage": {
        "encoding": "inplace",
        "label": "struct KingdomNFT.Kingdom",
        "members": [
          {
            "astId": 3536,
            "contract": "contracts/KingdomNFT.sol:KingdomNFT",
            "label": "lastRewardClaimTime",
            "offset": 0,
            "slot": "0",
            "type": "t_uint256"
          },
          {
            "astId": 3538,
            "contract": "contracts/KingdomNFT.sol:KingdomNFT",
            "label": "underOccupation",
            "offset": 0,
            "slot": "1",
            "type": "t_bool"
          },
          {
            "astId": 3541,
            "contract": "contracts/KingdomNFT.sol:KingdomNFT",
            "label": "buildingsLevel",
            "offset": 0,
            "slot": "2",
            "type": "t_array(t_uint256)dyn_storage"
          },
          {
            "astId": 3543,
            "contract": "contracts/KingdomNFT.sol:KingdomNFT",
            "label": "uri",
            "offset": 0,
            "slot": "3",
            "type": "t_string_storage"
          }
        ],
        "numberOfBytes": "128"
      },
      "t_struct(RoleData)19_storage": {
        "encoding": "inplace",
        "label": "struct AccessControl.RoleData",
        "members": [
          {
            "astId": 16,
            "contract": "contracts/KingdomNFT.sol:KingdomNFT",
            "label": "members",
            "offset": 0,
            "slot": "0",
            "type": "t_mapping(t_address,t_bool)"
          },
          {
            "astId": 18,
            "contract": "contracts/KingdomNFT.sol:KingdomNFT",
            "label": "adminRole",
            "offset": 0,
            "slot": "1",
            "type": "t_bytes32"
          }
        ],
        "numberOfBytes": "64"
      },
      "t_uint256": {
        "encoding": "inplace",
        "label": "uint256",
        "numberOfBytes": "32"
      }
    }
  }
}