{
  "address": "0xC34541DEec223F4a24bD7Eeda28D56cA16c927fd",
  "abi": [
    {
      "inputs": [
        {
          "internalType": "contract FadingHopeToken",
          "name": "gameToken",
          "type": "address"
        },
        {
          "internalType": "contract KingdomNFT",
          "name": "gameKingdoms",
          "type": "address"
        }
      ],
      "stateMutability": "nonpayable",
      "type": "constructor"
    },
    {
      "anonymous": false,
      "inputs": [
        {
          "indexed": false,
          "internalType": "string",
          "name": "message",
          "type": "string"
        }
      ],
      "name": "GlobalMessageEvent",
      "type": "event"
    },
    {
      "anonymous": false,
      "inputs": [
        {
          "indexed": true,
          "internalType": "address",
          "name": "previousOwner",
          "type": "address"
        },
        {
          "indexed": true,
          "internalType": "address",
          "name": "newOwner",
          "type": "address"
        }
      ],
      "name": "OwnershipTransferred",
      "type": "event"
    },
    {
      "anonymous": false,
      "inputs": [
        {
          "indexed": false,
          "internalType": "string",
          "name": "message",
          "type": "string"
        }
      ],
      "name": "PinGlobalMessageEvent",
      "type": "event"
    },
    {
      "inputs": [
        {
          "internalType": "uint256",
          "name": "fromTokenId",
          "type": "uint256"
        },
        {
          "internalType": "uint256",
          "name": "targetTokenId",
          "type": "uint256"
        },
        {
          "internalType": "string",
          "name": "reason",
          "type": "string"
        }
      ],
      "name": "AttackKingdom",
      "outputs": [],
      "stateMutability": "nonpayable",
      "type": "function"
    },
    {
      "inputs": [
        {
          "internalType": "uint256",
          "name": "tokenId",
          "type": "uint256"
        }
      ],
      "name": "BurnKingdom",
      "outputs": [],
      "stateMutability": "nonpayable",
      "type": "function"
    },
    {
      "inputs": [
        {
          "internalType": "uint256",
          "name": "tokenId",
          "type": "uint256"
        }
      ],
      "name": "ClaimKingdomReward",
      "outputs": [],
      "stateMutability": "nonpayable",
      "type": "function"
    },
    {
      "inputs": [
        {
          "internalType": "uint256",
          "name": "tokenId",
          "type": "uint256"
        },
        {
          "internalType": "bytes32",
          "name": "name",
          "type": "bytes32"
        }
      ],
      "name": "MintNewUnit",
      "outputs": [],
      "stateMutability": "nonpayable",
      "type": "function"
    },
    {
      "inputs": [
        {
          "internalType": "uint256",
          "name": "kingdomTokenId",
          "type": "uint256"
        },
        {
          "internalType": "address",
          "name": "to",
          "type": "address"
        },
        {
          "internalType": "string",
          "name": "kingdomName",
          "type": "string"
        }
      ],
      "name": "MintPlayerKingdom",
      "outputs": [],
      "stateMutability": "nonpayable",
      "type": "function"
    },
    {
      "inputs": [
        {
          "internalType": "string",
          "name": "message",
          "type": "string"
        }
      ],
      "name": "PinGlobalMessage",
      "outputs": [],
      "stateMutability": "nonpayable",
      "type": "function"
    },
    {
      "inputs": [
        {
          "internalType": "string",
          "name": "message",
          "type": "string"
        }
      ],
      "name": "SendGlobalMessage",
      "outputs": [],
      "stateMutability": "nonpayable",
      "type": "function"
    },
    {
      "inputs": [
        {
          "internalType": "uint256",
          "name": "buildingId",
          "type": "uint256"
        },
        {
          "internalType": "uint256[]",
          "name": "_upgradeCost",
          "type": "uint256[]"
        }
      ],
      "name": "SetBuildingCost",
      "outputs": [],
      "stateMutability": "nonpayable",
      "type": "function"
    },
    {
      "inputs": [
        {
          "internalType": "uint256[]",
          "name": "incomePerSec",
          "type": "uint256[]"
        }
      ],
      "name": "SetTownCenterIncome",
      "outputs": [],
      "stateMutability": "nonpayable",
      "type": "function"
    },
    {
      "inputs": [
        {
          "internalType": "uint256",
          "name": "tokenId",
          "type": "uint256"
        },
        {
          "internalType": "uint256",
          "name": "buildingId",
          "type": "uint256"
        }
      ],
      "name": "UpgradeKingdomBuilding",
      "outputs": [],
      "stateMutability": "nonpayable",
      "type": "function"
    },
    {
      "inputs": [
        {
          "internalType": "uint256",
          "name": "count",
          "type": "uint256"
        }
      ],
      "name": "ViewLastPinnedMessage",
      "outputs": [
        {
          "internalType": "string[]",
          "name": "messages",
          "type": "string[]"
        },
        {
          "internalType": "uint256[]",
          "name": "timestamps",
          "type": "uint256[]"
        }
      ],
      "stateMutability": "view",
      "type": "function"
    },
    {
      "inputs": [
        {
          "internalType": "uint256",
          "name": "",
          "type": "uint256"
        },
        {
          "internalType": "uint256",
          "name": "",
          "type": "uint256"
        }
      ],
      "name": "buildingCosts",
      "outputs": [
        {
          "internalType": "uint256",
          "name": "",
          "type": "uint256"
        }
      ],
      "stateMutability": "view",
      "type": "function"
    },
    {
      "inputs": [
        {
          "internalType": "uint256",
          "name": "buildingLevel",
          "type": "uint256"
        },
        {
          "internalType": "uint256",
          "name": "timePassed",
          "type": "uint256"
        }
      ],
      "name": "calculateTownIncome",
      "outputs": [
        {
          "internalType": "uint256",
          "name": "",
          "type": "uint256"
        }
      ],
      "stateMutability": "view",
      "type": "function"
    },
    {
      "inputs": [
        {
          "internalType": "address",
          "name": "_to",
          "type": "address"
        },
        {
          "internalType": "string",
          "name": "kingdomName",
          "type": "string"
        }
      ],
      "name": "freeMint",
      "outputs": [],
      "stateMutability": "nonpayable",
      "type": "function"
    },
    {
      "inputs": [
        {
          "internalType": "address",
          "name": "_to",
          "type": "address"
        },
        {
          "internalType": "string",
          "name": "kingdomName",
          "type": "string"
        },
        {
          "internalType": "string",
          "name": "uri",
          "type": "string"
        }
      ],
      "name": "freeMintWithURI",
      "outputs": [],
      "stateMutability": "nonpayable",
      "type": "function"
    },
    {
      "inputs": [
        {
          "internalType": "uint256",
          "name": "buildingId",
          "type": "uint256"
        },
        {
          "internalType": "uint256",
          "name": "buildingLevel",
          "type": "uint256"
        }
      ],
      "name": "getBuildingCost",
      "outputs": [
        {
          "internalType": "uint256",
          "name": "",
          "type": "uint256"
        }
      ],
      "stateMutability": "view",
      "type": "function"
    },
    {
      "inputs": [],
      "name": "getLength",
      "outputs": [
        {
          "internalType": "uint256",
          "name": "",
          "type": "uint256"
        }
      ],
      "stateMutability": "view",
      "type": "function"
    },
    {
      "inputs": [],
      "name": "kingdoms",
      "outputs": [
        {
          "internalType": "contract KingdomNFT",
          "name": "",
          "type": "address"
        }
      ],
      "stateMutability": "view",
      "type": "function"
    },
    {
      "inputs": [],
      "name": "mintKingdomPenalty",
      "outputs": [
        {
          "internalType": "uint256",
          "name": "",
          "type": "uint256"
        }
      ],
      "stateMutability": "view",
      "type": "function"
    },
    {
      "inputs": [],
      "name": "mintKingdomPenaltyMultiplier",
      "outputs": [
        {
          "internalType": "uint256",
          "name": "",
          "type": "uint256"
        }
      ],
      "stateMutability": "view",
      "type": "function"
    },
    {
      "inputs": [],
      "name": "owner",
      "outputs": [
        {
          "internalType": "address",
          "name": "",
          "type": "address"
        }
      ],
      "stateMutability": "view",
      "type": "function"
    },
    {
      "inputs": [
        {
          "internalType": "uint256",
          "name": "",
          "type": "uint256"
        }
      ],
      "name": "pinMessages",
      "outputs": [
        {
          "internalType": "string",
          "name": "",
          "type": "string"
        }
      ],
      "stateMutability": "view",
      "type": "function"
    },
    {
      "inputs": [
        {
          "internalType": "uint256",
          "name": "",
          "type": "uint256"
        }
      ],
      "name": "pinTimestamps",
      "outputs": [
        {
          "internalType": "uint256",
          "name": "",
          "type": "uint256"
        }
      ],
      "stateMutability": "view",
      "type": "function"
    },
    {
      "inputs": [],
      "name": "renounceOwnership",
      "outputs": [],
      "stateMutability": "nonpayable",
      "type": "function"
    },
    {
      "inputs": [],
      "name": "token",
      "outputs": [
        {
          "internalType": "contract FadingHopeToken",
          "name": "",
          "type": "address"
        }
      ],
      "stateMutability": "view",
      "type": "function"
    },
    {
      "inputs": [
        {
          "internalType": "address",
          "name": "newOwner",
          "type": "address"
        }
      ],
      "name": "transferOwnership",
      "outputs": [],
      "stateMutability": "nonpayable",
      "type": "function"
    }
  ],
  "transactionHash": "0xddd7ebc2ff0fc63660b01cbc017f46b33e09b31de7060c538b8cb3768febcc06",
  "args": [
    "0x629818C12CfE117a686aC219776B0c7d8f03d6e4",
    "0xEe6683D4553AA2E7519e2D65eB16815681B3B180"
  ],
  "numDeployments": 2,
  "solcInputHash": "04961b500b8243a3dc10c74aa4f504ab",
  "bytecode": "0x60806040526201518060055560026006553480156200001d57600080fd5b5060405162002dc738038062002dc78339818101604052810190620000439190620001e7565b6200006362000057620000ed60201b60201c565b620000f560201b60201c565b81600460006101000a81548173ffffffffffffffffffffffffffffffffffffffff021916908373ffffffffffffffffffffffffffffffffffffffff16021790555080600360006101000a81548173ffffffffffffffffffffffffffffffffffffffff021916908373ffffffffffffffffffffffffffffffffffffffff1602179055505050620002b8565b600033905090565b60008060009054906101000a900473ffffffffffffffffffffffffffffffffffffffff169050816000806101000a81548173ffffffffffffffffffffffffffffffffffffffff021916908373ffffffffffffffffffffffffffffffffffffffff1602179055508173ffffffffffffffffffffffffffffffffffffffff168173ffffffffffffffffffffffffffffffffffffffff167f8be0079c531659141344cd1fd0a4f28419497f9722a3daafe3b4186f6b6457e060405160405180910390a35050565b600081519050620001ca8162000284565b92915050565b600081519050620001e1816200029e565b92915050565b60008060408385031215620001fb57600080fd5b60006200020b85828601620001b9565b92505060206200021e85828601620001d0565b9150509250929050565b6000620002358262000264565b9050919050565b6000620002498262000228565b9050919050565b60006200025d8262000228565b9050919050565b600073ffffffffffffffffffffffffffffffffffffffff82169050919050565b6200028f816200023c565b81146200029b57600080fd5b50565b620002a98162000250565b8114620002b557600080fd5b50565b612aff80620002c86000396000f3fe608060405234801561001057600080fd5b506004361061018e5760003560e01c8063901ef9ba116100de578063dbd78b0c11610097578063f2fde38b11610071578063f2fde38b14610458578063f87e716b14610474578063f9714dbb14610490578063fc0c546a146104c05761018e565b8063dbd78b0c146103f0578063e7525d4f1461040c578063e96e00c21461043c5761018e565b8063901ef9ba1461031c578063ac9101c21461033a578063be1c766b14610356578063c080322f14610374578063c0a6eb3d14610390578063d8ba84d7146103c05761018e565b80635a9b74a21161014b578063711112be11610125578063711112be146102bc578063715018a6146102d8578063735d64dd146102e25780638da5cb5b146102fe5761018e565b80635a9b74a2146102685780635acd72c714610284578063668da47e146102a05761018e565b80631069eb2e146101935780631b355029146101c45780633c4f2da5146101e0578063420165bd146101fe5780634daf890c1461021c578063518483e71461024c575b600080fd5b6101ad60048036038101906101a89190611e0e565b6104de565b6040516101bb929190612332565b60405180910390f35b6101de60048036038101906101d99190611d43565b6107a8565b005b6101e86108ca565b6040516101f59190612465565b60405180910390f35b6102066108d0565b6040516102139190612465565b60405180910390f35b61023660048036038101906102319190611e0e565b6108d6565b6040516102439190612465565b60405180910390f35b61026660048036038101906102619190611e0e565b6108fa565b005b610282600480360381019061027d9190611d88565b6108fd565b005b61029e60048036038101906102999190611f9c565b61093a565b005b6102ba60048036038101906102b59190611dcd565b610940565b005b6102d660048036038101906102d19190611c70565b6109df565b005b6102e0610a93565b005b6102fc60048036038101906102f79190611cc4565b610b1b565b005b610306610c63565b604051610313919061228c565b60405180910390f35b610324610c8c565b6040516103319190612384565b60405180910390f35b610354600480360381019061034f9190611ecc565b610cb2565b005b61035e610de6565b60405161036b9190612465565b60405180910390f35b61038e60048036038101906103899190611f60565b610df3565b005b6103aa60048036038101906103a59190611e0e565b611142565b6040516103b791906123c3565b60405180910390f35b6103da60048036038101906103d59190611f60565b6111ee565b6040516103e79190612465565b60405180910390f35b61040a60048036038101906104059190611e0e565b611246565b005b61042660048036038101906104219190611f60565b6115d6565b6040516104339190612465565b60405180910390f35b61045660048036038101906104519190611f24565b6115ff565b005b610472600480360381019061046d9190611c1e565b611603565b005b61048e60048036038101906104899190611e60565b6116fb565b005b6104aa60048036038101906104a59190611f60565b6118d2565b6040516104b79190612465565b60405180910390f35b6104c8611924565b6040516104d59190612369565b60405180910390f35b6060808267ffffffffffffffff811115610521577f4e487b7100000000000000000000000000000000000000000000000000000000600052604160045260246000fd5b60405190808252806020026020018201604052801561055457816020015b606081526020019060019003908161053f5790505b5091508267ffffffffffffffff811115610597577f4e487b7100000000000000000000000000000000000000000000000000000000600052604160045260246000fd5b6040519080825280602002602001820160405280156105c55781602001602082028036833780820191505090505b50905060008383516105d791906126de565b905060005b83518210156107a1576001828154811061061f577f4e487b7100000000000000000000000000000000000000000000000000000000600052603260045260246000fd5b90600052602060002001805461063490612807565b80601f016020809104026020016040519081016040528092919081815260200182805461066090612807565b80156106ad5780601f10610682576101008083540402835291602001916106ad565b820191906000526020600020905b81548152906001019060200180831161069057829003601f168201915b50505050508482815181106106eb577f4e487b7100000000000000000000000000000000000000000000000000000000600052603260045260246000fd5b602002602001018190525060028281548110610730577f4e487b7100000000000000000000000000000000000000000000000000000000600052603260045260246000fd5b9060005260206000200154838281518110610774577f4e487b7100000000000000000000000000000000000000000000000000000000600052603260045260246000fd5b602002602001018181525050808061078b9061286a565b91505081806107999061286a565b9250506105dc565b5050915091565b6107b061194a565b73ffffffffffffffffffffffffffffffffffffffff166107ce610c63565b73ffffffffffffffffffffffffffffffffffffffff1614610824576040517f08c379a000000000000000000000000000000000000000000000000000000000815260040161081b90612405565b60405180910390fd5b60005b828290508110156108c55782828281811061086b577f4e487b7100000000000000000000000000000000000000000000000000000000600052603260045260246000fd5b9050602002013560088261010081106108ad577f4e487b7100000000000000000000000000000000000000000000000000000000600052603260045260246000fd5b018190555080806108bd9061286a565b915050610827565b505050565b60055481565b60065481565b600281815481106108e657600080fd5b906000526020600020016000915090505481565b50565b7ff419b786d98b9272bc769f7e5437c247072be1ccc66f7e4be74dec87874632cd828260405161092e92919061239f565b60405180910390a15050565b50505050565b60018190806001815401808255809150506001900390600052602060002001600090919091909150908051906020019061097b929190611a16565b5060024290806001815401808255809150506001900390600052602060002001600090919091909150557fd25cfcf1df45c6b69e723c4444d28d651b8a002c38172ef9bb9b8f97eb2e95dc816040516109d491906123c3565b60405180910390a150565b600360009054906101000a900473ffffffffffffffffffffffffffffffffffffffff1673ffffffffffffffffffffffffffffffffffffffff1663d0def52183836040518363ffffffff1660e01b8152600401610a3c9291906122d9565b602060405180830381600087803b158015610a5657600080fd5b505af1158015610a6a573d6000803e3d6000fd5b505050506040513d601f19601f82011682018060405250810190610a8e9190611e37565b505050565b610a9b61194a565b73ffffffffffffffffffffffffffffffffffffffff16610ab9610c63565b73ffffffffffffffffffffffffffffffffffffffff1614610b0f576040517f08c379a0000000000000000000000000000000000000000000000000000000008152600401610b0690612405565b60405180910390fd5b610b196000611952565b565b6000600360009054906101000a900473ffffffffffffffffffffffffffffffffffffffff1673ffffffffffffffffffffffffffffffffffffffff1663d0def52185856040518363ffffffff1660e01b8152600401610b7a9291906122d9565b602060405180830381600087803b158015610b9457600080fd5b505af1158015610ba8573d6000803e3d6000fd5b505050506040513d601f19601f82011682018060405250810190610bcc9190611e37565b9050600360009054906101000a900473ffffffffffffffffffffffffffffffffffffffff1673ffffffffffffffffffffffffffffffffffffffff1663162094c482846040518363ffffffff1660e01b8152600401610c2b9291906124a9565b600060405180830381600087803b158015610c4557600080fd5b505af1158015610c59573d6000803e3d6000fd5b5050505050505050565b60008060009054906101000a900473ffffffffffffffffffffffffffffffffffffffff16905090565b600360009054906101000a900473ffffffffffffffffffffffffffffffffffffffff1681565b610cba61194a565b73ffffffffffffffffffffffffffffffffffffffff16610cd8610c63565b73ffffffffffffffffffffffffffffffffffffffff1614610d2e576040517f08c379a0000000000000000000000000000000000000000000000000000000008152600401610d2590612405565b60405180910390fd5b60005b82829050811015610de057828282818110610d75577f4e487b7100000000000000000000000000000000000000000000000000000000600052603260045260246000fd5b9050602002013560076000868152602001908152602001600020826101008110610dc8577f4e487b7100000000000000000000000000000000000000000000000000000000600052603260045260246000fd5b01819055508080610dd89061286a565b915050610d31565b50505050565b6000600180549050905090565b610dfb61194a565b73ffffffffffffffffffffffffffffffffffffffff16600360009054906101000a900473ffffffffffffffffffffffffffffffffffffffff1673ffffffffffffffffffffffffffffffffffffffff1663372e1e09846040518263ffffffff1660e01b8152600401610e6c9190612465565b60206040518083038186803b158015610e8457600080fd5b505afa158015610e98573d6000803e3d6000fd5b505050506040513d601f19601f82011682018060405250810190610ebc9190611c47565b73ffffffffffffffffffffffffffffffffffffffff1614610f12576040517f08c379a0000000000000000000000000000000000000000000000000000000008152600401610f0990612445565b60405180910390fd5b60006001600360009054906101000a900473ffffffffffffffffffffffffffffffffffffffff1673ffffffffffffffffffffffffffffffffffffffff166393f546eb85856002811115610f8e577f4e487b7100000000000000000000000000000000000000000000000000000000600052602160045260246000fd5b6040518363ffffffff1660e01b8152600401610fab929190612480565b60206040518083038186803b158015610fc357600080fd5b505afa158015610fd7573d6000803e3d6000fd5b505050506040513d601f19601f82011682018060405250810190610ffb9190611e37565b611005919061262e565b9050600061101383836111ee565b9050600460009054906101000a900473ffffffffffffffffffffffffffffffffffffffff1673ffffffffffffffffffffffffffffffffffffffff16639dc29fac61105b61194a565b836040518363ffffffff1660e01b8152600401611079929190612309565b600060405180830381600087803b15801561109357600080fd5b505af11580156110a7573d6000803e3d6000fd5b50505050600360009054906101000a900473ffffffffffffffffffffffffffffffffffffffff1673ffffffffffffffffffffffffffffffffffffffff1663b04275368585856040518463ffffffff1660e01b815260040161110a93929190612502565b600060405180830381600087803b15801561112457600080fd5b505af1158015611138573d6000803e3d6000fd5b5050505050505050565b6001818154811061115257600080fd5b90600052602060002001600091509050805461116d90612807565b80601f016020809104026020016040519081016040528092919081815260200182805461119990612807565b80156111e65780601f106111bb576101008083540402835291602001916111e6565b820191906000526020600020905b8154815290600101906020018083116111c957829003601f168201915b505050505081565b60006007600084815260200190815260200160002082610100811061123c577f4e487b7100000000000000000000000000000000000000000000000000000000600052603260045260246000fd5b0154905092915050565b6000600360009054906101000a900473ffffffffffffffffffffffffffffffffffffffff1673ffffffffffffffffffffffffffffffffffffffff1663cec4267b836040518263ffffffff1660e01b81526004016112a39190612465565b60206040518083038186803b1580156112bb57600080fd5b505afa1580156112cf573d6000803e3d6000fd5b505050506040513d601f19601f820116820180604052508101906112f39190611e37565b9050804211611337576040517f08c379a000000000000000000000000000000000000000000000000000000000815260040161132e90612425565b60405180910390fd5b6000814261134591906126de565b90506000600360009054906101000a900473ffffffffffffffffffffffffffffffffffffffff1673ffffffffffffffffffffffffffffffffffffffff166393f546eb8560006040518363ffffffff1660e01b81526004016113a7929190612480565b60206040518083038186803b1580156113bf57600080fd5b505afa1580156113d3573d6000803e3d6000fd5b505050506040513d601f19601f820116820180604052508101906113f79190611e37565b9050600061140582846118d2565b9050600360009054906101000a900473ffffffffffffffffffffffffffffffffffffffff1673ffffffffffffffffffffffffffffffffffffffff166351df4f5b86426040518363ffffffff1660e01b81526004016114649291906124d9565b600060405180830381600087803b15801561147e57600080fd5b505af1158015611492573d6000803e3d6000fd5b50505050600460009054906101000a900473ffffffffffffffffffffffffffffffffffffffff1673ffffffffffffffffffffffffffffffffffffffff166340c10f19600360009054906101000a900473ffffffffffffffffffffffffffffffffffffffff1673ffffffffffffffffffffffffffffffffffffffff1663372e1e09886040518263ffffffff1660e01b815260040161152f9190612465565b60206040518083038186803b15801561154757600080fd5b505afa15801561155b573d6000803e3d6000fd5b505050506040513d601f19601f8201168201806040525081019061157f9190611c47565b836040518363ffffffff1660e01b815260040161159d929190612309565b600060405180830381600087803b1580156115b757600080fd5b505af11580156115cb573d6000803e3d6000fd5b505050505050505050565b60076020528160005260406000208161010081106115f357600080fd5b01600091509150505481565b5050565b61160b61194a565b73ffffffffffffffffffffffffffffffffffffffff16611629610c63565b73ffffffffffffffffffffffffffffffffffffffff161461167f576040517f08c379a000000000000000000000000000000000000000000000000000000000815260040161167690612405565b60405180910390fd5b600073ffffffffffffffffffffffffffffffffffffffff168173ffffffffffffffffffffffffffffffffffffffff1614156116ef576040517f08c379a00000000000000000000000000000000000000000000000000000000081526004016116e6906123e5565b60405180910390fd5b6116f881611952565b50565b61170361194a565b73ffffffffffffffffffffffffffffffffffffffff16600360009054906101000a900473ffffffffffffffffffffffffffffffffffffffff1673ffffffffffffffffffffffffffffffffffffffff1663372e1e09866040518263ffffffff1660e01b81526004016117749190612465565b60206040518083038186803b15801561178c57600080fd5b505afa1580156117a0573d6000803e3d6000fd5b505050506040513d601f19601f820116820180604052508101906117c49190611c47565b73ffffffffffffffffffffffffffffffffffffffff161461181a576040517f08c379a000000000000000000000000000000000000000000000000000000000815260040161181190612445565b60405180910390fd5b600360009054906101000a900473ffffffffffffffffffffffffffffffffffffffff1673ffffffffffffffffffffffffffffffffffffffff1663d0def5218484846040518463ffffffff1660e01b8152600401611879939291906122a7565b602060405180830381600087803b15801561189357600080fd5b505af11580156118a7573d6000803e3d6000fd5b505050506040513d601f19601f820116820180604052508101906118cb9190611e37565b5050505050565b6000600883610100811061190f577f4e487b7100000000000000000000000000000000000000000000000000000000600052603260045260246000fd5b01548261191c9190612684565b905092915050565b600460009054906101000a900473ffffffffffffffffffffffffffffffffffffffff1681565b600033905090565b60008060009054906101000a900473ffffffffffffffffffffffffffffffffffffffff169050816000806101000a81548173ffffffffffffffffffffffffffffffffffffffff021916908373ffffffffffffffffffffffffffffffffffffffff1602179055508173ffffffffffffffffffffffffffffffffffffffff168173ffffffffffffffffffffffffffffffffffffffff167f8be0079c531659141344cd1fd0a4f28419497f9722a3daafe3b4186f6b6457e060405160405180910390a35050565b828054611a2290612807565b90600052602060002090601f016020900481019282611a445760008555611a8b565b82601f10611a5d57805160ff1916838001178555611a8b565b82800160010185558215611a8b579182015b82811115611a8a578251825591602001919060010190611a6f565b5b509050611a989190611a9c565b5090565b5b80821115611ab5576000816000905550600101611a9d565b5090565b6000611acc611ac78461255e565b612539565b905082815260208101848484011115611ae457600080fd5b611aef8482856127c5565b509392505050565b600081359050611b0681612a84565b92915050565b600081519050611b1b81612a84565b92915050565b60008083601f840112611b3357600080fd5b8235905067ffffffffffffffff811115611b4c57600080fd5b602083019150836020820283011115611b6457600080fd5b9250929050565b600081359050611b7a81612a9b565b92915050565b60008083601f840112611b9257600080fd5b8235905067ffffffffffffffff811115611bab57600080fd5b602083019150836001820283011115611bc357600080fd5b9250929050565b600082601f830112611bdb57600080fd5b8135611beb848260208601611ab9565b91505092915050565b600081359050611c0381612ab2565b92915050565b600081519050611c1881612ab2565b92915050565b600060208284031215611c3057600080fd5b6000611c3e84828501611af7565b91505092915050565b600060208284031215611c5957600080fd5b6000611c6784828501611b0c565b91505092915050565b60008060408385031215611c8357600080fd5b6000611c9185828601611af7565b925050602083013567ffffffffffffffff811115611cae57600080fd5b611cba85828601611bca565b9150509250929050565b600080600060608486031215611cd957600080fd5b6000611ce786828701611af7565b935050602084013567ffffffffffffffff811115611d0457600080fd5b611d1086828701611bca565b925050604084013567ffffffffffffffff811115611d2d57600080fd5b611d3986828701611bca565b9150509250925092565b60008060208385031215611d5657600080fd5b600083013567ffffffffffffffff811115611d7057600080fd5b611d7c85828601611b21565b92509250509250929050565b60008060208385031215611d9b57600080fd5b600083013567ffffffffffffffff811115611db557600080fd5b611dc185828601611b80565b92509250509250929050565b600060208284031215611ddf57600080fd5b600082013567ffffffffffffffff811115611df957600080fd5b611e0584828501611bca565b91505092915050565b600060208284031215611e2057600080fd5b6000611e2e84828501611bf4565b91505092915050565b600060208284031215611e4957600080fd5b6000611e5784828501611c09565b91505092915050565b60008060008060608587031215611e7657600080fd5b6000611e8487828801611bf4565b9450506020611e9587828801611af7565b935050604085013567ffffffffffffffff811115611eb257600080fd5b611ebe87828801611b80565b925092505092959194509250565b600080600060408486031215611ee157600080fd5b6000611eef86828701611bf4565b935050602084013567ffffffffffffffff811115611f0c57600080fd5b611f1886828701611b21565b92509250509250925092565b60008060408385031215611f3757600080fd5b6000611f4585828601611bf4565b9250506020611f5685828601611b6b565b9150509250929050565b60008060408385031215611f7357600080fd5b6000611f8185828601611bf4565b9250506020611f9285828601611bf4565b9150509250929050565b60008060008060608587031215611fb257600080fd5b6000611fc087828801611bf4565b9450506020611fd187828801611bf4565b935050604085013567ffffffffffffffff811115611fee57600080fd5b611ffa87828801611b80565b925092505092959194509250565b60006120148383612170565b905092915050565b6000612028838361226e565b60208301905092915050565b61203d81612712565b82525050565b600061204e826125af565b61205881856125ea565b93508360208202850161206a8561258f565b8060005b858110156120a657848403895281516120878582612008565b9450612092836125d0565b925060208a0199505060018101905061206e565b50829750879550505050505092915050565b60006120c3826125ba565b6120cd81856125fb565b93506120d88361259f565b8060005b838110156121095781516120f0888261201c565b97506120fb836125dd565b9250506001810190506120dc565b5085935050505092915050565b61211f8161276b565b82525050565b61212e8161278f565b82525050565b61213d816127b3565b82525050565b600061214f838561261d565b935061215c8385846127c5565b6121658361296f565b840190509392505050565b600061217b826125c5565b612185818561260c565b93506121958185602086016127d4565b61219e8161296f565b840191505092915050565b60006121b4826125c5565b6121be818561261d565b93506121ce8185602086016127d4565b6121d78161296f565b840191505092915050565b60006121ef60268361261d565b91506121fa82612980565b604082019050919050565b600061221260208361261d565b915061221d826129cf565b602082019050919050565b600061223560248361261d565b9150612240826129f8565b604082019050919050565b600061225860148361261d565b915061226382612a47565b602082019050919050565b61227781612761565b82525050565b61228681612761565b82525050565b60006020820190506122a16000830184612034565b92915050565b60006040820190506122bc6000830186612034565b81810360208301526122cf818486612143565b9050949350505050565b60006040820190506122ee6000830185612034565b818103602083015261230081846121a9565b90509392505050565b600060408201905061231e6000830185612034565b61232b602083018461227d565b9392505050565b6000604082019050818103600083015261234c8185612043565b9050818103602083015261236081846120b8565b90509392505050565b600060208201905061237e6000830184612116565b92915050565b60006020820190506123996000830184612125565b92915050565b600060208201905081810360008301526123ba818486612143565b90509392505050565b600060208201905081810360008301526123dd81846121a9565b905092915050565b600060208201905081810360008301526123fe816121e2565b9050919050565b6000602082019050818103600083015261241e81612205565b9050919050565b6000602082019050818103600083015261243e81612228565b9050919050565b6000602082019050818103600083015261245e8161224b565b9050919050565b600060208201905061247a600083018461227d565b92915050565b6000604082019050612495600083018561227d565b6124a26020830184612134565b9392505050565b60006040820190506124be600083018561227d565b81810360208301526124d081846121a9565b90509392505050565b60006040820190506124ee600083018561227d565b6124fb602083018461227d565b9392505050565b6000606082019050612517600083018661227d565b612524602083018561227d565b612531604083018461227d565b949350505050565b6000612543612554565b905061254f8282612839565b919050565b6000604051905090565b600067ffffffffffffffff82111561257957612578612940565b5b6125828261296f565b9050602081019050919050565b6000819050602082019050919050565b6000819050602082019050919050565b600081519050919050565b600081519050919050565b600081519050919050565b6000602082019050919050565b6000602082019050919050565b600082825260208201905092915050565b600082825260208201905092915050565b600082825260208201905092915050565b600082825260208201905092915050565b600061263982612761565b915061264483612761565b9250827fffffffffffffffffffffffffffffffffffffffffffffffffffffffffffffffff03821115612679576126786128b3565b5b828201905092915050565b600061268f82612761565b915061269a83612761565b9250817fffffffffffffffffffffffffffffffffffffffffffffffffffffffffffffffff04831182151516156126d3576126d26128b3565b5b828202905092915050565b60006126e982612761565b91506126f483612761565b925082821015612707576127066128b3565b5b828203905092915050565b600061271d82612741565b9050919050565b6000819050919050565b600081905061273c82612a70565b919050565b600073ffffffffffffffffffffffffffffffffffffffff82169050919050565b6000819050919050565b60006127768261277d565b9050919050565b600061278882612741565b9050919050565b600061279a826127a1565b9050919050565b60006127ac82612741565b9050919050565b60006127be8261272e565b9050919050565b82818337600083830152505050565b60005b838110156127f25780820151818401526020810190506127d7565b83811115612801576000848401525b50505050565b6000600282049050600182168061281f57607f821691505b6020821081141561283357612832612911565b5b50919050565b6128428261296f565b810181811067ffffffffffffffff8211171561286157612860612940565b5b80604052505050565b600061287582612761565b91507fffffffffffffffffffffffffffffffffffffffffffffffffffffffffffffffff8214156128a8576128a76128b3565b5b600182019050919050565b7f4e487b7100000000000000000000000000000000000000000000000000000000600052601160045260246000fd5b7f4e487b7100000000000000000000000000000000000000000000000000000000600052602160045260246000fd5b7f4e487b7100000000000000000000000000000000000000000000000000000000600052602260045260246000fd5b7f4e487b7100000000000000000000000000000000000000000000000000000000600052604160045260246000fd5b6000601f19601f8301169050919050565b7f4f776e61626c653a206e6577206f776e657220697320746865207a65726f206160008201527f6464726573730000000000000000000000000000000000000000000000000000602082015250565b7f4f776e61626c653a2063616c6c6572206973206e6f7420746865206f776e6572600082015250565b7f63616e277420636c61696d20726577617264206265666f726520636c61696d2060008201527f74696d6500000000000000000000000000000000000000000000000000000000602082015250565b7f6e6f742072756c6572206f66206b696e67646f6d000000000000000000000000600082015250565b60038110612a8157612a806128e2565b5b50565b612a8d81612712565b8114612a9857600080fd5b50565b612aa481612724565b8114612aaf57600080fd5b50565b612abb81612761565b8114612ac657600080fd5b5056fea2646970667358221220d586943436d0105d012c10965c3ce7df51f082de107fdc0afe301168b41ae32364736f6c63430008040033",
  "devdoc": {
    "kind": "dev",
    "methods": {
      "owner()": {
        "details": "Returns the address of the current owner."
      },
      "renounceOwnership()": {
        "details": "Leaves the contract without owner. It will not be possible to call `onlyOwner` functions anymore. Can only be called by the current owner. NOTE: Renouncing ownership will leave the contract without an owner, thereby removing any functionality that is only available to the owner."
      },
      "transferOwnership(address)": {
        "details": "Transfers ownership of the contract to a new account (`newOwner`). Can only be called by the current owner."
      }
    },
    "version": 1
  },
  "userdoc": {
    "kind": "user",
    "methods": {
      "ClaimKingdomReward(uint256)": {
        "notice": "Claim rewards and Mint token for player"
      },
      "MintPlayerKingdom(uint256,address,string)": {
        "notice": "To mint new kingdom, only owner of another kingdom can mint. Some penalty will be enforced. To have cost of creating new kingdom."
      },
      "SetBuildingCost(uint256,uint256[])": {
        "notice": "Setup data Function"
      },
      "SetTownCenterIncome(uint256[])": {
        "notice": "Setup data Function"
      },
      "calculateTownIncome(uint256,uint256)": {
        "notice": "GetPlayerReward based on time passed"
      }
    },
    "notice": "So this contract will handle most of logic in game without modular code. Store most of logic here. The master contract have authority to change storage on NFT. But the complexity to write set/get function for all kind of static storage is too long to implemented.",
    "version": 1
  },
  "storageLayout": {
    "storage": [
      {
        "astId": 389,
        "contract": "contracts/MasterContract.sol:MasterContract",
        "label": "_owner",
        "offset": 0,
        "slot": "0",
        "type": "t_address"
      },
      {
        "astId": 3262,
        "contract": "contracts/MasterContract.sol:MasterContract",
        "label": "pinMessages",
        "offset": 0,
        "slot": "1",
        "type": "t_array(t_string_storage)dyn_storage"
      },
      {
        "astId": 3265,
        "contract": "contracts/MasterContract.sol:MasterContract",
        "label": "pinTimestamps",
        "offset": 0,
        "slot": "2",
        "type": "t_array(t_uint256)dyn_storage"
      },
      {
        "astId": 3941,
        "contract": "contracts/MasterContract.sol:MasterContract",
        "label": "kingdoms",
        "offset": 0,
        "slot": "3",
        "type": "t_contract(KingdomNFT)3927"
      },
      {
        "astId": 3944,
        "contract": "contracts/MasterContract.sol:MasterContract",
        "label": "token",
        "offset": 0,
        "slot": "4",
        "type": "t_contract(FadingHopeToken)3452"
      },
      {
        "astId": 3965,
        "contract": "contracts/MasterContract.sol:MasterContract",
        "label": "mintKingdomPenalty",
        "offset": 0,
        "slot": "5",
        "type": "t_uint256"
      },
      {
        "astId": 3968,
        "contract": "contracts/MasterContract.sol:MasterContract",
        "label": "mintKingdomPenaltyMultiplier",
        "offset": 0,
        "slot": "6",
        "type": "t_uint256"
      },
      {
        "astId": 3974,
        "contract": "contracts/MasterContract.sol:MasterContract",
        "label": "buildingCosts",
        "offset": 0,
        "slot": "7",
        "type": "t_mapping(t_uint256,t_array(t_uint256)256_storage)"
      },
      {
        "astId": 3978,
        "contract": "contracts/MasterContract.sol:MasterContract",
        "label": "towncenterIncomePerSecond",
        "offset": 0,
        "slot": "8",
        "type": "t_array(t_uint256)256_storage"
      }
    ],
    "types": {
      "t_address": {
        "encoding": "inplace",
        "label": "address",
        "numberOfBytes": "20"
      },
      "t_array(t_string_storage)dyn_storage": {
        "base": "t_string_storage",
        "encoding": "dynamic_array",
        "label": "string[]",
        "numberOfBytes": "32"
      },
      "t_array(t_uint256)256_storage": {
        "base": "t_uint256",
        "encoding": "inplace",
        "label": "uint256[256]",
        "numberOfBytes": "8192"
      },
      "t_array(t_uint256)dyn_storage": {
        "base": "t_uint256",
        "encoding": "dynamic_array",
        "label": "uint256[]",
        "numberOfBytes": "32"
      },
      "t_contract(FadingHopeToken)3452": {
        "encoding": "inplace",
        "label": "contract FadingHopeToken",
        "numberOfBytes": "20"
      },
      "t_contract(KingdomNFT)3927": {
        "encoding": "inplace",
        "label": "contract KingdomNFT",
        "numberOfBytes": "20"
      },
      "t_mapping(t_uint256,t_array(t_uint256)256_storage)": {
        "encoding": "mapping",
        "key": "t_uint256",
        "label": "mapping(uint256 => uint256[256])",
        "numberOfBytes": "32",
        "value": "t_array(t_uint256)256_storage"
      },
      "t_string_storage": {
        "encoding": "bytes",
        "label": "string",
        "numberOfBytes": "32"
      },
      "t_uint256": {
        "encoding": "inplace",
        "label": "uint256",
        "numberOfBytes": "32"
      }
    }
  }
}