{
  "address": "0x4AEAd9bEcF5F7794dF6618885c283F68b4a0C848",
  "abi": [
    {
      "inputs": [
        {
          "internalType": "contract FadingHopeToken",
          "name": "gameToken",
          "type": "address"
        },
        {
          "internalType": "contract KingdomNFT",
          "name": "gameKingdoms",
          "type": "address"
        },
        {
          "internalType": "address",
          "name": "_imx",
          "type": "address"
        }
      ],
      "stateMutability": "nonpayable",
      "type": "constructor"
    },
    {
      "anonymous": false,
      "inputs": [
        {
          "indexed": false,
          "internalType": "string",
          "name": "message",
          "type": "string"
        }
      ],
      "name": "GlobalMessageEvent",
      "type": "event"
    },
    {
      "anonymous": false,
      "inputs": [
        {
          "indexed": true,
          "internalType": "address",
          "name": "previousOwner",
          "type": "address"
        },
        {
          "indexed": true,
          "internalType": "address",
          "name": "newOwner",
          "type": "address"
        }
      ],
      "name": "OwnershipTransferred",
      "type": "event"
    },
    {
      "anonymous": false,
      "inputs": [
        {
          "indexed": false,
          "internalType": "string",
          "name": "message",
          "type": "string"
        }
      ],
      "name": "PinGlobalMessageEvent",
      "type": "event"
    },
    {
      "inputs": [
        {
          "internalType": "uint256",
          "name": "fromTokenId",
          "type": "uint256"
        },
        {
          "internalType": "uint256",
          "name": "targetTokenId",
          "type": "uint256"
        },
        {
          "internalType": "string",
          "name": "reason",
          "type": "string"
        }
      ],
      "name": "AttackKingdom",
      "outputs": [],
      "stateMutability": "nonpayable",
      "type": "function"
    },
    {
      "inputs": [
        {
          "internalType": "uint256",
          "name": "tokenId",
          "type": "uint256"
        }
      ],
      "name": "BurnKingdom",
      "outputs": [],
      "stateMutability": "nonpayable",
      "type": "function"
    },
    {
      "inputs": [
        {
          "internalType": "uint256",
          "name": "tokenId",
          "type": "uint256"
        }
      ],
      "name": "ClaimKingdomReward",
      "outputs": [],
      "stateMutability": "nonpayable",
      "type": "function"
    },
    {
      "inputs": [
        {
          "internalType": "uint256",
          "name": "tokenId",
          "type": "uint256"
        },
        {
          "internalType": "bytes32",
          "name": "name",
          "type": "bytes32"
        }
      ],
      "name": "MintNewUnit",
      "outputs": [],
      "stateMutability": "nonpayable",
      "type": "function"
    },
    {
      "inputs": [
        {
          "internalType": "uint256",
          "name": "kingdomTokenId",
          "type": "uint256"
        },
        {
          "internalType": "address",
          "name": "to",
          "type": "address"
        },
        {
          "internalType": "string",
          "name": "kingdomName",
          "type": "string"
        }
      ],
      "name": "MintPlayerKingdom",
      "outputs": [],
      "stateMutability": "nonpayable",
      "type": "function"
    },
    {
      "inputs": [
        {
          "internalType": "string",
          "name": "message",
          "type": "string"
        }
      ],
      "name": "PinGlobalMessage",
      "outputs": [],
      "stateMutability": "nonpayable",
      "type": "function"
    },
    {
      "inputs": [
        {
          "internalType": "string",
          "name": "message",
          "type": "string"
        }
      ],
      "name": "SendGlobalMessage",
      "outputs": [],
      "stateMutability": "nonpayable",
      "type": "function"
    },
    {
      "inputs": [
        {
          "internalType": "uint256",
          "name": "buildingId",
          "type": "uint256"
        },
        {
          "internalType": "uint256[]",
          "name": "_upgradeCost",
          "type": "uint256[]"
        }
      ],
      "name": "SetBuildingCost",
      "outputs": [],
      "stateMutability": "nonpayable",
      "type": "function"
    },
    {
      "inputs": [
        {
          "internalType": "uint256[]",
          "name": "incomePerSec",
          "type": "uint256[]"
        }
      ],
      "name": "SetTownCenterIncome",
      "outputs": [],
      "stateMutability": "nonpayable",
      "type": "function"
    },
    {
      "inputs": [
        {
          "internalType": "uint256",
          "name": "tokenId",
          "type": "uint256"
        },
        {
          "internalType": "uint256",
          "name": "buildingId",
          "type": "uint256"
        }
      ],
      "name": "UpgradeKingdomBuilding",
      "outputs": [],
      "stateMutability": "nonpayable",
      "type": "function"
    },
    {
      "inputs": [
        {
          "internalType": "uint256",
          "name": "count",
          "type": "uint256"
        }
      ],
      "name": "ViewLastPinnedMessage",
      "outputs": [
        {
          "internalType": "string[]",
          "name": "messages",
          "type": "string[]"
        },
        {
          "internalType": "uint256[]",
          "name": "timestamps",
          "type": "uint256[]"
        }
      ],
      "stateMutability": "view",
      "type": "function"
    },
    {
      "inputs": [
        {
          "internalType": "uint256",
          "name": "",
          "type": "uint256"
        }
      ],
      "name": "blueprints",
      "outputs": [
        {
          "internalType": "bytes",
          "name": "",
          "type": "bytes"
        }
      ],
      "stateMutability": "view",
      "type": "function"
    },
    {
      "inputs": [
        {
          "internalType": "uint256",
          "name": "",
          "type": "uint256"
        },
        {
          "internalType": "uint256",
          "name": "",
          "type": "uint256"
        }
      ],
      "name": "buildingCosts",
      "outputs": [
        {
          "internalType": "uint256",
          "name": "",
          "type": "uint256"
        }
      ],
      "stateMutability": "view",
      "type": "function"
    },
    {
      "inputs": [
        {
          "internalType": "uint256",
          "name": "buildingLevel",
          "type": "uint256"
        },
        {
          "internalType": "uint256",
          "name": "timePassed",
          "type": "uint256"
        }
      ],
      "name": "calculateTownIncome",
      "outputs": [
        {
          "internalType": "uint256",
          "name": "",
          "type": "uint256"
        }
      ],
      "stateMutability": "view",
      "type": "function"
    },
    {
      "inputs": [
        {
          "internalType": "address",
          "name": "_to",
          "type": "address"
        },
        {
          "internalType": "string",
          "name": "kingdomName",
          "type": "string"
        }
      ],
      "name": "freeMint",
      "outputs": [],
      "stateMutability": "nonpayable",
      "type": "function"
    },
    {
      "inputs": [
        {
          "internalType": "address",
          "name": "_to",
          "type": "address"
        },
        {
          "internalType": "string",
          "name": "kingdomName",
          "type": "string"
        },
        {
          "internalType": "string",
          "name": "uri",
          "type": "string"
        }
      ],
      "name": "freeMintWithURI",
      "outputs": [],
      "stateMutability": "nonpayable",
      "type": "function"
    },
    {
      "inputs": [
        {
          "internalType": "uint256",
          "name": "buildingId",
          "type": "uint256"
        },
        {
          "internalType": "uint256",
          "name": "buildingLevel",
          "type": "uint256"
        }
      ],
      "name": "getBuildingCost",
      "outputs": [
        {
          "internalType": "uint256",
          "name": "",
          "type": "uint256"
        }
      ],
      "stateMutability": "view",
      "type": "function"
    },
    {
      "inputs": [],
      "name": "getLength",
      "outputs": [
        {
          "internalType": "uint256",
          "name": "",
          "type": "uint256"
        }
      ],
      "stateMutability": "view",
      "type": "function"
    },
    {
      "inputs": [],
      "name": "imx",
      "outputs": [
        {
          "internalType": "address",
          "name": "",
          "type": "address"
        }
      ],
      "stateMutability": "view",
      "type": "function"
    },
    {
      "inputs": [],
      "name": "kingdoms",
      "outputs": [
        {
          "internalType": "contract KingdomNFT",
          "name": "",
          "type": "address"
        }
      ],
      "stateMutability": "view",
      "type": "function"
    },
    {
      "inputs": [
        {
          "internalType": "address",
          "name": "user",
          "type": "address"
        },
        {
          "internalType": "uint256",
          "name": "quantity",
          "type": "uint256"
        },
        {
          "internalType": "bytes",
          "name": "mintingBlob",
          "type": "bytes"
        }
      ],
      "name": "mintFor",
      "outputs": [],
      "stateMutability": "nonpayable",
      "type": "function"
    },
    {
      "inputs": [],
      "name": "mintKingdomPenalty",
      "outputs": [
        {
          "internalType": "uint256",
          "name": "",
          "type": "uint256"
        }
      ],
      "stateMutability": "view",
      "type": "function"
    },
    {
      "inputs": [],
      "name": "mintKingdomPenaltyMultiplier",
      "outputs": [
        {
          "internalType": "uint256",
          "name": "",
          "type": "uint256"
        }
      ],
      "stateMutability": "view",
      "type": "function"
    },
    {
      "inputs": [],
      "name": "owner",
      "outputs": [
        {
          "internalType": "address",
          "name": "",
          "type": "address"
        }
      ],
      "stateMutability": "view",
      "type": "function"
    },
    {
      "inputs": [
        {
          "internalType": "uint256",
          "name": "",
          "type": "uint256"
        }
      ],
      "name": "pinMessages",
      "outputs": [
        {
          "internalType": "string",
          "name": "",
          "type": "string"
        }
      ],
      "stateMutability": "view",
      "type": "function"
    },
    {
      "inputs": [
        {
          "internalType": "uint256",
          "name": "",
          "type": "uint256"
        }
      ],
      "name": "pinTimestamps",
      "outputs": [
        {
          "internalType": "uint256",
          "name": "",
          "type": "uint256"
        }
      ],
      "stateMutability": "view",
      "type": "function"
    },
    {
      "inputs": [],
      "name": "renounceOwnership",
      "outputs": [],
      "stateMutability": "nonpayable",
      "type": "function"
    },
    {
      "inputs": [],
      "name": "token",
      "outputs": [
        {
          "internalType": "contract FadingHopeToken",
          "name": "",
          "type": "address"
        }
      ],
      "stateMutability": "view",
      "type": "function"
    },
    {
      "inputs": [
        {
          "internalType": "address",
          "name": "newOwner",
          "type": "address"
        }
      ],
      "name": "transferOwnership",
      "outputs": [],
      "stateMutability": "nonpayable",
      "type": "function"
    }
  ],
  "transactionHash": "0xe27f86ae073c76de1f4955576ecdeef2c23109453a92ae89e228abb5fc5351be",
  "args": [
    "0x629818C12CfE117a686aC219776B0c7d8f03d6e4",
    "0xEe6683D4553AA2E7519e2D65eB16815681B3B180",
    "0x6C21EC8DE44AE44D0992ec3e2d9f1aBb6207D864"
  ],
  "numDeployments": 3,
  "solcInputHash": "c03c0afb3c2dfdeacdc5fd93fac5b72d",
  "bytecode": "0x60806040526201518060065560026007553480156200001d57600080fd5b5060405162003c6438038062003c64833981810160405281019062000043919062000240565b62000063620000576200012f60201b60201c565b6200013760201b60201c565b82600460006101000a81548173ffffffffffffffffffffffffffffffffffffffff021916908373ffffffffffffffffffffffffffffffffffffffff16021790555081600360006101000a81548173ffffffffffffffffffffffffffffffffffffffff021916908373ffffffffffffffffffffffffffffffffffffffff16021790555080600560006101000a81548173ffffffffffffffffffffffffffffffffffffffff021916908373ffffffffffffffffffffffffffffffffffffffff16021790555050505062000340565b600033905090565b60008060009054906101000a900473ffffffffffffffffffffffffffffffffffffffff169050816000806101000a81548173ffffffffffffffffffffffffffffffffffffffff021916908373ffffffffffffffffffffffffffffffffffffffff1602179055508173ffffffffffffffffffffffffffffffffffffffff168173ffffffffffffffffffffffffffffffffffffffff167f8be0079c531659141344cd1fd0a4f28419497f9722a3daafe3b4186f6b6457e060405160405180910390a35050565b6000815190506200020c81620002f2565b92915050565b60008151905062000223816200030c565b92915050565b6000815190506200023a8162000326565b92915050565b6000806000606084860312156200025657600080fd5b6000620002668682870162000212565b9350506020620002798682870162000229565b92505060406200028c86828701620001fb565b9150509250925092565b6000620002a382620002d2565b9050919050565b6000620002b78262000296565b9050919050565b6000620002cb8262000296565b9050919050565b600073ffffffffffffffffffffffffffffffffffffffff82169050919050565b620002fd8162000296565b81146200030957600080fd5b50565b6200031781620002aa565b81146200032357600080fd5b50565b6200033181620002be565b81146200033d57600080fd5b50565b61391480620003506000396000f3fe608060405234801561001057600080fd5b50600436106101cf5760003560e01c8063735d64dd11610104578063d8ba84d7116100a2578063f2fde38b11610071578063f2fde38b14610503578063f87e716b1461051f578063f9714dbb1461053b578063fc0c546a1461056b576101cf565b8063d8ba84d71461046b578063dbd78b0c1461049b578063e7525d4f146104b7578063e96e00c2146104e7576101cf565b8063ac9101c2116100de578063ac9101c2146103e5578063be1c766b14610401578063c080322f1461041f578063c0a6eb3d1461043b576101cf565b8063735d64dd1461038d5780638da5cb5b146103a9578063901ef9ba146103c7576101cf565b8063518483e711610171578063668da47e1161014b578063668da47e1461031b57806366bf33be14610337578063711112be14610367578063715018a614610383576101cf565b8063518483e7146102c75780635a9b74a2146102e35780635acd72c7146102ff576101cf565b80631b355029116101ad5780631b3550291461023f5780633c4f2da51461025b578063420165bd146102795780634daf890c14610297576101cf565b80630f08025f146101d45780631069eb2e146101f257806319ee6e3f14610223575b600080fd5b6101dc610589565b6040516101e99190612e2f565b60405180910390f35b61020c600480360381019061020791906128ec565b6105af565b60405161021a929190612ed5565b60405180910390f35b61023d600480360381019061023891906127b5565b610879565b005b61025960048036038101906102549190612821565b610a82565b005b610263610ba4565b60405161027091906130aa565b60405180910390f35b610281610baa565b60405161028e91906130aa565b60405180910390f35b6102b160048036038101906102ac91906128ec565b610bb0565b6040516102be91906130aa565b60405180910390f35b6102e160048036038101906102dc91906128ec565b610bd4565b005b6102fd60048036038101906102f89190612866565b610bd7565b005b61031960048036038101906103149190612a7a565b610c14565b005b610335600480360381019061033091906128ab565b610c1a565b005b610351600480360381019061034c91906128ec565b610cb9565b60405161035e9190612f0c565b60405180910390f35b610381600480360381019061037c91906126e2565b610d59565b005b61038b610e0d565b005b6103a760048036038101906103a29190612736565b610e95565b005b6103b1610fdd565b6040516103be9190612e2f565b60405180910390f35b6103cf611006565b6040516103dc9190612f49565b60405180910390f35b6103ff60048036038101906103fa91906129aa565b61102c565b005b610409611160565b60405161041691906130aa565b60405180910390f35b61043960048036038101906104349190612a3e565b61116d565b005b610455600480360381019061045091906128ec565b6114bc565b6040516104629190612f88565b60405180910390f35b61048560048036038101906104809190612a3e565b611568565b60405161049291906130aa565b60405180910390f35b6104b560048036038101906104b091906128ec565b6115c0565b005b6104d160048036038101906104cc9190612a3e565b611950565b6040516104de91906130aa565b60405180910390f35b61050160048036038101906104fc9190612a02565b611979565b005b61051d60048036038101906105189190612690565b61197d565b005b6105396004803603810190610534919061293e565b611a75565b005b61055560048036038101906105509190612a3e565b611c4c565b60405161056291906130aa565b60405180910390f35b610573611c9e565b6040516105809190612f2e565b60405180910390f35b600560009054906101000a900473ffffffffffffffffffffffffffffffffffffffff1681565b6060808267ffffffffffffffff8111156105f2577f4e487b7100000000000000000000000000000000000000000000000000000000600052604160045260246000fd5b60405190808252806020026020018201604052801561062557816020015b60608152602001906001900390816106105790505b5091508267ffffffffffffffff811115610668577f4e487b7100000000000000000000000000000000000000000000000000000000600052604160045260246000fd5b6040519080825280602002602001820160405280156106965781602001602082028036833780820191505090505b50905060008383516106a891906133a3565b905060005b835182101561087257600182815481106106f0577f4e487b7100000000000000000000000000000000000000000000000000000000600052603260045260246000fd5b906000526020600020018054610705906134cc565b80601f0160208091040260200160405190810160405280929190818152602001828054610731906134cc565b801561077e5780601f106107535761010080835404028352916020019161077e565b820191906000526020600020905b81548152906001019060200180831161076157829003601f168201915b50505050508482815181106107bc577f4e487b7100000000000000000000000000000000000000000000000000000000600052603260045260246000fd5b602002602001018190525060028281548110610801577f4e487b7100000000000000000000000000000000000000000000000000000000600052603260045260246000fd5b9060005260206000200154838281518110610845577f4e487b7100000000000000000000000000000000000000000000000000000000600052603260045260246000fd5b602002602001018181525050808061085c9061352f565b915050818061086a9061352f565b9250506106ad565b5050915091565b600560009054906101000a900473ffffffffffffffffffffffffffffffffffffffff1673ffffffffffffffffffffffffffffffffffffffff163373ffffffffffffffffffffffffffffffffffffffff16148061090757506108d8610fdd565b73ffffffffffffffffffffffffffffffffffffffff163373ffffffffffffffffffffffffffffffffffffffff16145b610946576040517f08c379a000000000000000000000000000000000000000000000000000000000815260040161093d9061306a565b60405180910390fd5b60018314610989576040517f08c379a000000000000000000000000000000000000000000000000000000000815260040161098090612fea565b60405180910390fd5b6000806109968484611cc4565b91509150600360009054906101000a900473ffffffffffffffffffffffffffffffffffffffff1673ffffffffffffffffffffffffffffffffffffffff1663d0def521876109e285611ed9565b6040518363ffffffff1660e01b81526004016109ff929190612e7c565b602060405180830381600087803b158015610a1957600080fd5b505af1158015610a2d573d6000803e3d6000fd5b505050506040513d601f19601f82011682018060405250810190610a519190612915565b5080600960008481526020019081526020016000209080519060200190610a799291906123b8565b50505050505050565b610a8a612086565b73ffffffffffffffffffffffffffffffffffffffff16610aa8610fdd565b73ffffffffffffffffffffffffffffffffffffffff1614610afe576040517f08c379a0000000000000000000000000000000000000000000000000000000008152600401610af59061300a565b60405180910390fd5b60005b82829050811015610b9f57828282818110610b45577f4e487b7100000000000000000000000000000000000000000000000000000000600052603260045260246000fd5b90506020020135600a826101008110610b87577f4e487b7100000000000000000000000000000000000000000000000000000000600052603260045260246000fd5b01819055508080610b979061352f565b915050610b01565b505050565b60065481565b60075481565b60028181548110610bc057600080fd5b906000526020600020016000915090505481565b50565b7ff419b786d98b9272bc769f7e5437c247072be1ccc66f7e4be74dec87874632cd8282604051610c08929190612f64565b60405180910390a15050565b50505050565b600181908060018154018082558091505060019003906000526020600020016000909190919091509080519060200190610c5592919061243e565b5060024290806001815401808255809150506001900390600052602060002001600090919091909150557fd25cfcf1df45c6b69e723c4444d28d651b8a002c38172ef9bb9b8f97eb2e95dc81604051610cae9190612f88565b60405180910390a150565b60096020528060005260406000206000915090508054610cd8906134cc565b80601f0160208091040260200160405190810160405280929190818152602001828054610d04906134cc565b8015610d515780601f10610d2657610100808354040283529160200191610d51565b820191906000526020600020905b815481529060010190602001808311610d3457829003601f168201915b505050505081565b600360009054906101000a900473ffffffffffffffffffffffffffffffffffffffff1673ffffffffffffffffffffffffffffffffffffffff1663d0def52183836040518363ffffffff1660e01b8152600401610db6929190612e7c565b602060405180830381600087803b158015610dd057600080fd5b505af1158015610de4573d6000803e3d6000fd5b505050506040513d601f19601f82011682018060405250810190610e089190612915565b505050565b610e15612086565b73ffffffffffffffffffffffffffffffffffffffff16610e33610fdd565b73ffffffffffffffffffffffffffffffffffffffff1614610e89576040517f08c379a0000000000000000000000000000000000000000000000000000000008152600401610e809061300a565b60405180910390fd5b610e93600061208e565b565b6000600360009054906101000a900473ffffffffffffffffffffffffffffffffffffffff1673ffffffffffffffffffffffffffffffffffffffff1663d0def52185856040518363ffffffff1660e01b8152600401610ef4929190612e7c565b602060405180830381600087803b158015610f0e57600080fd5b505af1158015610f22573d6000803e3d6000fd5b505050506040513d601f19601f82011682018060405250810190610f469190612915565b9050600360009054906101000a900473ffffffffffffffffffffffffffffffffffffffff1673ffffffffffffffffffffffffffffffffffffffff1663162094c482846040518363ffffffff1660e01b8152600401610fa59291906130ee565b600060405180830381600087803b158015610fbf57600080fd5b505af1158015610fd3573d6000803e3d6000fd5b5050505050505050565b60008060009054906101000a900473ffffffffffffffffffffffffffffffffffffffff16905090565b600360009054906101000a900473ffffffffffffffffffffffffffffffffffffffff1681565b611034612086565b73ffffffffffffffffffffffffffffffffffffffff16611052610fdd565b73ffffffffffffffffffffffffffffffffffffffff16146110a8576040517f08c379a000000000000000000000000000000000000000000000000000000000815260040161109f9061300a565b60405180910390fd5b60005b8282905081101561115a578282828181106110ef577f4e487b7100000000000000000000000000000000000000000000000000000000600052603260045260246000fd5b9050602002013560086000868152602001908152602001600020826101008110611142577f4e487b7100000000000000000000000000000000000000000000000000000000600052603260045260246000fd5b018190555080806111529061352f565b9150506110ab565b50505050565b6000600180549050905090565b611175612086565b73ffffffffffffffffffffffffffffffffffffffff16600360009054906101000a900473ffffffffffffffffffffffffffffffffffffffff1673ffffffffffffffffffffffffffffffffffffffff1663372e1e09846040518263ffffffff1660e01b81526004016111e691906130aa565b60206040518083038186803b1580156111fe57600080fd5b505afa158015611212573d6000803e3d6000fd5b505050506040513d601f19601f8201168201806040525081019061123691906126b9565b73ffffffffffffffffffffffffffffffffffffffff161461128c576040517f08c379a00000000000000000000000000000000000000000000000000000000081526004016112839061308a565b60405180910390fd5b60006001600360009054906101000a900473ffffffffffffffffffffffffffffffffffffffff1673ffffffffffffffffffffffffffffffffffffffff166393f546eb85856002811115611308577f4e487b7100000000000000000000000000000000000000000000000000000000600052602160045260246000fd5b6040518363ffffffff1660e01b81526004016113259291906130c5565b60206040518083038186803b15801561133d57600080fd5b505afa158015611351573d6000803e3d6000fd5b505050506040513d601f19601f820116820180604052508101906113759190612915565b61137f91906132c2565b9050600061138d8383611568565b9050600460009054906101000a900473ffffffffffffffffffffffffffffffffffffffff1673ffffffffffffffffffffffffffffffffffffffff16639dc29fac6113d5612086565b836040518363ffffffff1660e01b81526004016113f3929190612eac565b600060405180830381600087803b15801561140d57600080fd5b505af1158015611421573d6000803e3d6000fd5b50505050600360009054906101000a900473ffffffffffffffffffffffffffffffffffffffff1673ffffffffffffffffffffffffffffffffffffffff1663b04275368585856040518463ffffffff1660e01b815260040161148493929190613147565b600060405180830381600087803b15801561149e57600080fd5b505af11580156114b2573d6000803e3d6000fd5b5050505050505050565b600181815481106114cc57600080fd5b9060005260206000200160009150905080546114e7906134cc565b80601f0160208091040260200160405190810160405280929190818152602001828054611513906134cc565b80156115605780601f1061153557610100808354040283529160200191611560565b820191906000526020600020905b81548152906001019060200180831161154357829003601f168201915b505050505081565b6000600860008481526020019081526020016000208261010081106115b6577f4e487b7100000000000000000000000000000000000000000000000000000000600052603260045260246000fd5b0154905092915050565b6000600360009054906101000a900473ffffffffffffffffffffffffffffffffffffffff1673ffffffffffffffffffffffffffffffffffffffff1663cec4267b836040518263ffffffff1660e01b815260040161161d91906130aa565b60206040518083038186803b15801561163557600080fd5b505afa158015611649573d6000803e3d6000fd5b505050506040513d601f19601f8201168201806040525081019061166d9190612915565b90508042116116b1576040517f08c379a00000000000000000000000000000000000000000000000000000000081526004016116a89061302a565b60405180910390fd5b600081426116bf91906133a3565b90506000600360009054906101000a900473ffffffffffffffffffffffffffffffffffffffff1673ffffffffffffffffffffffffffffffffffffffff166393f546eb8560006040518363ffffffff1660e01b81526004016117219291906130c5565b60206040518083038186803b15801561173957600080fd5b505afa15801561174d573d6000803e3d6000fd5b505050506040513d601f19601f820116820180604052508101906117719190612915565b9050600061177f8284611c4c565b9050600360009054906101000a900473ffffffffffffffffffffffffffffffffffffffff1673ffffffffffffffffffffffffffffffffffffffff166351df4f5b86426040518363ffffffff1660e01b81526004016117de92919061311e565b600060405180830381600087803b1580156117f857600080fd5b505af115801561180c573d6000803e3d6000fd5b50505050600460009054906101000a900473ffffffffffffffffffffffffffffffffffffffff1673ffffffffffffffffffffffffffffffffffffffff166340c10f19600360009054906101000a900473ffffffffffffffffffffffffffffffffffffffff1673ffffffffffffffffffffffffffffffffffffffff1663372e1e09886040518263ffffffff1660e01b81526004016118a991906130aa565b60206040518083038186803b1580156118c157600080fd5b505afa1580156118d5573d6000803e3d6000fd5b505050506040513d601f19601f820116820180604052508101906118f991906126b9565b836040518363ffffffff1660e01b8152600401611917929190612eac565b600060405180830381600087803b15801561193157600080fd5b505af1158015611945573d6000803e3d6000fd5b505050505050505050565b600860205281600052604060002081610100811061196d57600080fd5b01600091509150505481565b5050565b611985612086565b73ffffffffffffffffffffffffffffffffffffffff166119a3610fdd565b73ffffffffffffffffffffffffffffffffffffffff16146119f9576040517f08c379a00000000000000000000000000000000000000000000000000000000081526004016119f09061300a565b60405180910390fd5b600073ffffffffffffffffffffffffffffffffffffffff168173ffffffffffffffffffffffffffffffffffffffff161415611a69576040517f08c379a0000000000000000000000000000000000000000000000000000000008152600401611a6090612fca565b60405180910390fd5b611a728161208e565b50565b611a7d612086565b73ffffffffffffffffffffffffffffffffffffffff16600360009054906101000a900473ffffffffffffffffffffffffffffffffffffffff1673ffffffffffffffffffffffffffffffffffffffff1663372e1e09866040518263ffffffff1660e01b8152600401611aee91906130aa565b60206040518083038186803b158015611b0657600080fd5b505afa158015611b1a573d6000803e3d6000fd5b505050506040513d601f19601f82011682018060405250810190611b3e91906126b9565b73ffffffffffffffffffffffffffffffffffffffff1614611b94576040517f08c379a0000000000000000000000000000000000000000000000000000000008152600401611b8b9061308a565b60405180910390fd5b600360009054906101000a900473ffffffffffffffffffffffffffffffffffffffff1673ffffffffffffffffffffffffffffffffffffffff1663d0def5218484846040518463ffffffff1660e01b8152600401611bf393929190612e4a565b602060405180830381600087803b158015611c0d57600080fd5b505af1158015611c21573d6000803e3d6000fd5b505050506040513d601f19601f82011682018060405250810190611c459190612915565b5050505050565b6000600a836101008110611c89577f4e487b7100000000000000000000000000000000000000000000000000000000600052603260045260246000fd5b015482611c969190613349565b905092915050565b600460009054906101000a900473ffffffffffffffffffffffffffffffffffffffff1681565b600060606000611d4f85858080601f016020809104026020016040519081016040528093929190818152602001838380828437600081840152601f19601f820116905080830192505050505050506040518060400160405280600181526020017f3a000000000000000000000000000000000000000000000000000000000000008152506000612152565b90506000811215611d95576040517f08c379a0000000000000000000000000000000000000000000000000000000008152600401611d8c9061304a565b60405180910390fd5b6000611e018686600190600186611dac91906133a3565b92611db99392919061328f565b8080601f016020809104026020016040519081016040528093929190818152602001838380828437600081840152601f19601f820116905080830192505050505050506122bc565b9050600060038388889050611e1691906133a3565b611e2091906133a3565b90506000811415611e4857816040518060200160405280600081525094509450505050611ed2565b3660008888600287611e5a91906132c2565b9060018c8c9050611e6b91906133a3565b92611e789392919061328f565b9150915083828281818080601f016020809104026020016040519081016040528093929190818152602001838380828437600081840152601f19601f82011690508083019250505050505050905090509650965050505050505b9250929050565b60606000821415611f21576040518060400160405280600181526020017f30000000000000000000000000000000000000000000000000000000000000008152509050612081565b600082905060005b60008214611f53578080611f3c9061352f565b915050600a82611f4c9190613318565b9150611f29565b60008167ffffffffffffffff811115611f95577f4e487b7100000000000000000000000000000000000000000000000000000000600052604160045260246000fd5b6040519080825280601f01601f191660200182016040528015611fc75781602001600182028036833780820191505090505b5090505b6000851461207a57600182611fe091906133a3565b9150600a85611fef9190613578565b6030611ffb91906132c2565b60f81b818381518110612037577f4e487b7100000000000000000000000000000000000000000000000000000000600052603260045260246000fd5b60200101907effffffffffffffffffffffffffffffffffffffffffffffffffffffffffffff1916908160001a905350600a856120739190613318565b9450611fcb565b8093505050505b919050565b600033905090565b60008060009054906101000a900473ffffffffffffffffffffffffffffffffffffffff169050816000806101000a81548173ffffffffffffffffffffffffffffffffffffffff021916908373ffffffffffffffffffffffffffffffffffffffff1602179055508173ffffffffffffffffffffffffffffffffffffffff168173ffffffffffffffffffffffffffffffffffffffff167f8be0079c531659141344cd1fd0a4f28419497f9722a3daafe3b4186f6b6457e060405160405180910390a35050565b6000808390506001815114612190577f4e487b7100000000000000000000000000000000000000000000000000000000600052600160045260246000fd5b60008390505b855181101561228f57816000815181106121d9577f4e487b7100000000000000000000000000000000000000000000000000000000600052603260045260246000fd5b602001015160f81c60f81b7effffffffffffffffffffffffffffffffffffffffffffffffffffffffffffff191686828151811061223f577f4e487b7100000000000000000000000000000000000000000000000000000000600052603260045260246000fd5b602001015160f81c60f81b7effffffffffffffffffffffffffffffffffffffffffffffffffffffffffffff1916141561227c5780925050506122b5565b80806122879061352f565b915050612196565b507fffffffffffffffffffffffffffffffffffffffffffffffffffffffffffffffff9150505b9392505050565b6000806000905060005b83518110156123ae57600084828151811061230a577f4e487b7100000000000000000000000000000000000000000000000000000000600052603260045260246000fd5b602001015160f81c60f81b60f81c60ff1690506030811015801561232f575060398111155b1561235f5760308161234191906133a3565b600a8461234e9190613349565b61235891906132c2565b925061239a565b6040517f08c379a000000000000000000000000000000000000000000000000000000000815260040161239190612faa565b60405180910390fd5b5080806123a69061352f565b9150506122c6565b5080915050919050565b8280546123c4906134cc565b90600052602060002090601f0160209004810192826123e6576000855561242d565b82601f106123ff57805160ff191683800117855561242d565b8280016001018555821561242d579182015b8281111561242c578251825591602001919060010190612411565b5b50905061243a91906124c4565b5090565b82805461244a906134cc565b90600052602060002090601f01602090048101928261246c57600085556124b3565b82601f1061248557805160ff19168380011785556124b3565b828001600101855582156124b3579182015b828111156124b2578251825591602001919060010190612497565b5b5090506124c091906124c4565b5090565b5b808211156124dd5760008160009055506001016124c5565b5090565b60006124f46124ef846131a3565b61317e565b90508281526020810184848401111561250c57600080fd5b61251784828561348a565b509392505050565b60008135905061252e81613899565b92915050565b60008151905061254381613899565b92915050565b60008083601f84011261255b57600080fd5b8235905067ffffffffffffffff81111561257457600080fd5b60208301915083602082028301111561258c57600080fd5b9250929050565b6000813590506125a2816138b0565b92915050565b60008083601f8401126125ba57600080fd5b8235905067ffffffffffffffff8111156125d357600080fd5b6020830191508360018202830111156125eb57600080fd5b9250929050565b60008083601f84011261260457600080fd5b8235905067ffffffffffffffff81111561261d57600080fd5b60208301915083600182028301111561263557600080fd5b9250929050565b600082601f83011261264d57600080fd5b813561265d8482602086016124e1565b91505092915050565b600081359050612675816138c7565b92915050565b60008151905061268a816138c7565b92915050565b6000602082840312156126a257600080fd5b60006126b08482850161251f565b91505092915050565b6000602082840312156126cb57600080fd5b60006126d984828501612534565b91505092915050565b600080604083850312156126f557600080fd5b60006127038582860161251f565b925050602083013567ffffffffffffffff81111561272057600080fd5b61272c8582860161263c565b9150509250929050565b60008060006060848603121561274b57600080fd5b60006127598682870161251f565b935050602084013567ffffffffffffffff81111561277657600080fd5b6127828682870161263c565b925050604084013567ffffffffffffffff81111561279f57600080fd5b6127ab8682870161263c565b9150509250925092565b600080600080606085870312156127cb57600080fd5b60006127d98782880161251f565b94505060206127ea87828801612666565b935050604085013567ffffffffffffffff81111561280757600080fd5b612813878288016125a8565b925092505092959194509250565b6000806020838503121561283457600080fd5b600083013567ffffffffffffffff81111561284e57600080fd5b61285a85828601612549565b92509250509250929050565b6000806020838503121561287957600080fd5b600083013567ffffffffffffffff81111561289357600080fd5b61289f858286016125f2565b92509250509250929050565b6000602082840312156128bd57600080fd5b600082013567ffffffffffffffff8111156128d757600080fd5b6128e38482850161263c565b91505092915050565b6000602082840312156128fe57600080fd5b600061290c84828501612666565b91505092915050565b60006020828403121561292757600080fd5b60006129358482850161267b565b91505092915050565b6000806000806060858703121561295457600080fd5b600061296287828801612666565b94505060206129738782880161251f565b935050604085013567ffffffffffffffff81111561299057600080fd5b61299c878288016125f2565b925092505092959194509250565b6000806000604084860312156129bf57600080fd5b60006129cd86828701612666565b935050602084013567ffffffffffffffff8111156129ea57600080fd5b6129f686828701612549565b92509250509250925092565b60008060408385031215612a1557600080fd5b6000612a2385828601612666565b9250506020612a3485828601612593565b9150509250929050565b60008060408385031215612a5157600080fd5b6000612a5f85828601612666565b9250506020612a7085828601612666565b9150509250929050565b60008060008060608587031215612a9057600080fd5b6000612a9e87828801612666565b9450506020612aaf87828801612666565b935050604085013567ffffffffffffffff811115612acc57600080fd5b612ad8878288016125f2565b925092505092959194509250565b6000612af28383612c87565b905092915050565b6000612b068383612e11565b60208301905092915050565b612b1b816133d7565b82525050565b6000612b2c826131f4565b612b36818561323a565b935083602082028501612b48856131d4565b8060005b85811015612b845784840389528151612b658582612ae6565b9450612b7083613220565b925060208a01995050600181019050612b4c565b50829750879550505050505092915050565b6000612ba1826131ff565b612bab818561324b565b9350612bb6836131e4565b8060005b83811015612be7578151612bce8882612afa565b9750612bd98361322d565b925050600181019050612bba565b5085935050505092915050565b6000612bff8261320a565b612c09818561325c565b9350612c19818560208601613499565b612c2281613694565b840191505092915050565b612c3681613430565b82525050565b612c4581613454565b82525050565b612c5481613478565b82525050565b6000612c66838561327e565b9350612c7383858461348a565b612c7c83613694565b840190509392505050565b6000612c9282613215565b612c9c818561326d565b9350612cac818560208601613499565b612cb581613694565b840191505092915050565b6000612ccb82613215565b612cd5818561327e565b9350612ce5818560208601613499565b612cee81613694565b840191505092915050565b6000612d0660238361327e565b9150612d11826136a5565b604082019050919050565b6000612d2960268361327e565b9150612d34826136f4565b604082019050919050565b6000612d4c601a8361327e565b9150612d5782613743565b602082019050919050565b6000612d6f60208361327e565b9150612d7a8261376c565b602082019050919050565b6000612d9260248361327e565b9150612d9d82613795565b604082019050919050565b6000612db560148361327e565b9150612dc0826137e4565b602082019050919050565b6000612dd8602b8361327e565b9150612de38261380d565b604082019050919050565b6000612dfb60148361327e565b9150612e068261385c565b602082019050919050565b612e1a81613426565b82525050565b612e2981613426565b82525050565b6000602082019050612e446000830184612b12565b92915050565b6000604082019050612e5f6000830186612b12565b8181036020830152612e72818486612c5a565b9050949350505050565b6000604082019050612e916000830185612b12565b8181036020830152612ea38184612cc0565b90509392505050565b6000604082019050612ec16000830185612b12565b612ece6020830184612e20565b9392505050565b60006040820190508181036000830152612eef8185612b21565b90508181036020830152612f038184612b96565b90509392505050565b60006020820190508181036000830152612f268184612bf4565b905092915050565b6000602082019050612f436000830184612c2d565b92915050565b6000602082019050612f5e6000830184612c3c565b92915050565b60006020820190508181036000830152612f7f818486612c5a565b90509392505050565b60006020820190508181036000830152612fa28184612cc0565b905092915050565b60006020820190508181036000830152612fc381612cf9565b9050919050565b60006020820190508181036000830152612fe381612d1c565b9050919050565b6000602082019050818103600083015261300381612d3f565b9050919050565b6000602082019050818103600083015261302381612d62565b9050919050565b6000602082019050818103600083015261304381612d85565b9050919050565b6000602082019050818103600083015261306381612da8565b9050919050565b6000602082019050818103600083015261308381612dcb565b9050919050565b600060208201905081810360008301526130a381612dee565b9050919050565b60006020820190506130bf6000830184612e20565b92915050565b60006040820190506130da6000830185612e20565b6130e76020830184612c4b565b9392505050565b60006040820190506131036000830185612e20565b81810360208301526131158184612cc0565b90509392505050565b60006040820190506131336000830185612e20565b6131406020830184612e20565b9392505050565b600060608201905061315c6000830186612e20565b6131696020830185612e20565b6131766040830184612e20565b949350505050565b6000613188613199565b905061319482826134fe565b919050565b6000604051905090565b600067ffffffffffffffff8211156131be576131bd613665565b5b6131c782613694565b9050602081019050919050565b6000819050602082019050919050565b6000819050602082019050919050565b600081519050919050565b600081519050919050565b600081519050919050565b600081519050919050565b6000602082019050919050565b6000602082019050919050565b600082825260208201905092915050565b600082825260208201905092915050565b600082825260208201905092915050565b600082825260208201905092915050565b600082825260208201905092915050565b6000808585111561329f57600080fd5b838611156132ac57600080fd5b6001850283019150848603905094509492505050565b60006132cd82613426565b91506132d883613426565b9250827fffffffffffffffffffffffffffffffffffffffffffffffffffffffffffffffff0382111561330d5761330c6135a9565b5b828201905092915050565b600061332382613426565b915061332e83613426565b92508261333e5761333d6135d8565b5b828204905092915050565b600061335482613426565b915061335f83613426565b9250817fffffffffffffffffffffffffffffffffffffffffffffffffffffffffffffffff0483118215151615613398576133976135a9565b5b828202905092915050565b60006133ae82613426565b91506133b983613426565b9250828210156133cc576133cb6135a9565b5b828203905092915050565b60006133e282613406565b9050919050565b6000819050919050565b600081905061340182613885565b919050565b600073ffffffffffffffffffffffffffffffffffffffff82169050919050565b6000819050919050565b600061343b82613442565b9050919050565b600061344d82613406565b9050919050565b600061345f82613466565b9050919050565b600061347182613406565b9050919050565b6000613483826133f3565b9050919050565b82818337600083830152505050565b60005b838110156134b757808201518184015260208101905061349c565b838111156134c6576000848401525b50505050565b600060028204905060018216806134e457607f821691505b602082108114156134f8576134f7613636565b5b50919050565b61350782613694565b810181811067ffffffffffffffff8211171561352657613525613665565b5b80604052505050565b600061353a82613426565b91507fffffffffffffffffffffffffffffffffffffffffffffffffffffffffffffffff82141561356d5761356c6135a9565b5b600182019050919050565b600061358382613426565b915061358e83613426565b92508261359e5761359d6135d8565b5b828206905092915050565b7f4e487b7100000000000000000000000000000000000000000000000000000000600052601160045260246000fd5b7f4e487b7100000000000000000000000000000000000000000000000000000000600052601260045260246000fd5b7f4e487b7100000000000000000000000000000000000000000000000000000000600052602160045260246000fd5b7f4e487b7100000000000000000000000000000000000000000000000000000000600052602260045260246000fd5b7f4e487b7100000000000000000000000000000000000000000000000000000000600052604160045260246000fd5b6000601f19601f8301169050919050565b7f696e76616c696420696e7075742c206f6e6c79206e756d6265727320616c6c6f60008201527f7765640000000000000000000000000000000000000000000000000000000000602082015250565b7f4f776e61626c653a206e6577206f776e657220697320746865207a65726f206160008201527f6464726573730000000000000000000000000000000000000000000000000000602082015250565b7f4d696e7461626c653a20696e76616c6964207175616e74697479000000000000600082015250565b7f4f776e61626c653a2063616c6c6572206973206e6f7420746865206f776e6572600082015250565b7f63616e277420636c61696d20726577617264206265666f726520636c61696d2060008201527f74696d6500000000000000000000000000000000000000000000000000000000602082015250565b7f536570617261746f72206d757374206578697374000000000000000000000000600082015250565b7f46756e6374696f6e2063616e206f6e6c792062652063616c6c6564206279206f60008201527f776e6572206f7220494d58000000000000000000000000000000000000000000602082015250565b7f6e6f742072756c6572206f66206b696e67646f6d000000000000000000000000600082015250565b6003811061389657613895613607565b5b50565b6138a2816133d7565b81146138ad57600080fd5b50565b6138b9816133e9565b81146138c457600080fd5b50565b6138d081613426565b81146138db57600080fd5b5056fea2646970667358221220005348f31e58eab5cfb012eb10acbce5e3a393d4dfcb881a4087291d507bc1b364736f6c63430008040033",
  "devdoc": {
    "kind": "dev",
    "methods": {
      "owner()": {
        "details": "Returns the address of the current owner."
      },
      "renounceOwnership()": {
        "details": "Leaves the contract without owner. It will not be possible to call `onlyOwner` functions anymore. Can only be called by the current owner. NOTE: Renouncing ownership will leave the contract without an owner, thereby removing any functionality that is only available to the owner."
      },
      "transferOwnership(address)": {
        "details": "Transfers ownership of the contract to a new account (`newOwner`). Can only be called by the current owner."
      }
    },
    "version": 1
  },
  "userdoc": {
    "kind": "user",
    "methods": {
      "ClaimKingdomReward(uint256)": {
        "notice": "Claim rewards and Mint token for player"
      },
      "MintPlayerKingdom(uint256,address,string)": {
        "notice": "To mint new kingdom, only owner of another kingdom can mint. Some penalty will be enforced. To have cost of creating new kingdom."
      },
      "SetBuildingCost(uint256,uint256[])": {
        "notice": "Setup data Function"
      },
      "SetTownCenterIncome(uint256[])": {
        "notice": "Setup data Function"
      },
      "calculateTownIncome(uint256,uint256)": {
        "notice": "GetPlayerReward based on time passed"
      }
    },
    "notice": "So this contract will handle most of logic in game without modular code. Store most of logic here. The master contract have authority to change storage on NFT. But the complexity to write set/get function for all kind of static storage is too long to implemented.",
    "version": 1
  },
  "storageLayout": {
    "storage": [
      {
        "astId": 389,
        "contract": "contracts/MasterContract.sol:MasterContract",
        "label": "_owner",
        "offset": 0,
        "slot": "0",
        "type": "t_address"
      },
      {
        "astId": 3262,
        "contract": "contracts/MasterContract.sol:MasterContract",
        "label": "pinMessages",
        "offset": 0,
        "slot": "1",
        "type": "t_array(t_string_storage)dyn_storage"
      },
      {
        "astId": 3265,
        "contract": "contracts/MasterContract.sol:MasterContract",
        "label": "pinTimestamps",
        "offset": 0,
        "slot": "2",
        "type": "t_array(t_uint256)dyn_storage"
      },
      {
        "astId": 3961,
        "contract": "contracts/MasterContract.sol:MasterContract",
        "label": "kingdoms",
        "offset": 0,
        "slot": "3",
        "type": "t_contract(KingdomNFT)3939"
      },
      {
        "astId": 3964,
        "contract": "contracts/MasterContract.sol:MasterContract",
        "label": "token",
        "offset": 0,
        "slot": "4",
        "type": "t_contract(FadingHopeToken)3452"
      },
      {
        "astId": 3966,
        "contract": "contracts/MasterContract.sol:MasterContract",
        "label": "imx",
        "offset": 0,
        "slot": "5",
        "type": "t_address"
      },
      {
        "astId": 4011,
        "contract": "contracts/MasterContract.sol:MasterContract",
        "label": "mintKingdomPenalty",
        "offset": 0,
        "slot": "6",
        "type": "t_uint256"
      },
      {
        "astId": 4014,
        "contract": "contracts/MasterContract.sol:MasterContract",
        "label": "mintKingdomPenaltyMultiplier",
        "offset": 0,
        "slot": "7",
        "type": "t_uint256"
      },
      {
        "astId": 4020,
        "contract": "contracts/MasterContract.sol:MasterContract",
        "label": "buildingCosts",
        "offset": 0,
        "slot": "8",
        "type": "t_mapping(t_uint256,t_array(t_uint256)256_storage)"
      },
      {
        "astId": 4024,
        "contract": "contracts/MasterContract.sol:MasterContract",
        "label": "blueprints",
        "offset": 0,
        "slot": "9",
        "type": "t_mapping(t_uint256,t_bytes_storage)"
      },
      {
        "astId": 4028,
        "contract": "contracts/MasterContract.sol:MasterContract",
        "label": "towncenterIncomePerSecond",
        "offset": 0,
        "slot": "10",
        "type": "t_array(t_uint256)256_storage"
      }
    ],
    "types": {
      "t_address": {
        "encoding": "inplace",
        "label": "address",
        "numberOfBytes": "20"
      },
      "t_array(t_string_storage)dyn_storage": {
        "base": "t_string_storage",
        "encoding": "dynamic_array",
        "label": "string[]",
        "numberOfBytes": "32"
      },
      "t_array(t_uint256)256_storage": {
        "base": "t_uint256",
        "encoding": "inplace",
        "label": "uint256[256]",
        "numberOfBytes": "8192"
      },
      "t_array(t_uint256)dyn_storage": {
        "base": "t_uint256",
        "encoding": "dynamic_array",
        "label": "uint256[]",
        "numberOfBytes": "32"
      },
      "t_bytes_storage": {
        "encoding": "bytes",
        "label": "bytes",
        "numberOfBytes": "32"
      },
      "t_contract(FadingHopeToken)3452": {
        "encoding": "inplace",
        "label": "contract FadingHopeToken",
        "numberOfBytes": "20"
      },
      "t_contract(KingdomNFT)3939": {
        "encoding": "inplace",
        "label": "contract KingdomNFT",
        "numberOfBytes": "20"
      },
      "t_mapping(t_uint256,t_array(t_uint256)256_storage)": {
        "encoding": "mapping",
        "key": "t_uint256",
        "label": "mapping(uint256 => uint256[256])",
        "numberOfBytes": "32",
        "value": "t_array(t_uint256)256_storage"
      },
      "t_mapping(t_uint256,t_bytes_storage)": {
        "encoding": "mapping",
        "key": "t_uint256",
        "label": "mapping(uint256 => bytes)",
        "numberOfBytes": "32",
        "value": "t_bytes_storage"
      },
      "t_string_storage": {
        "encoding": "bytes",
        "label": "string",
        "numberOfBytes": "32"
      },
      "t_uint256": {
        "encoding": "inplace",
        "label": "uint256",
        "numberOfBytes": "32"
      }
    }
  }
}