{
  "address": "0x55e8A203ECB17aC68233CBe6fa4Acb7AE513Badd",
  "abi": [
    {
      "inputs": [
        {
          "internalType": "address",
          "name": "_admin",
          "type": "address"
        }
      ],
      "stateMutability": "nonpayable",
      "type": "constructor"
    },
    {
      "anonymous": false,
      "inputs": [
        {
          "indexed": true,
          "internalType": "address",
          "name": "owner",
          "type": "address"
        },
        {
          "indexed": true,
          "internalType": "address",
          "name": "approved",
          "type": "address"
        },
        {
          "indexed": true,
          "internalType": "uint256",
          "name": "tokenId",
          "type": "uint256"
        }
      ],
      "name": "Approval",
      "type": "event"
    },
    {
      "anonymous": false,
      "inputs": [
        {
          "indexed": true,
          "internalType": "address",
          "name": "owner",
          "type": "address"
        },
        {
          "indexed": true,
          "internalType": "address",
          "name": "operator",
          "type": "address"
        },
        {
          "indexed": false,
          "internalType": "bool",
          "name": "approved",
          "type": "bool"
        }
      ],
      "name": "ApprovalForAll",
      "type": "event"
    },
    {
      "anonymous": false,
      "inputs": [
        {
          "indexed": true,
          "internalType": "bytes32",
          "name": "role",
          "type": "bytes32"
        },
        {
          "indexed": true,
          "internalType": "bytes32",
          "name": "previousAdminRole",
          "type": "bytes32"
        },
        {
          "indexed": true,
          "internalType": "bytes32",
          "name": "newAdminRole",
          "type": "bytes32"
        }
      ],
      "name": "RoleAdminChanged",
      "type": "event"
    },
    {
      "anonymous": false,
      "inputs": [
        {
          "indexed": true,
          "internalType": "bytes32",
          "name": "role",
          "type": "bytes32"
        },
        {
          "indexed": true,
          "internalType": "address",
          "name": "account",
          "type": "address"
        },
        {
          "indexed": true,
          "internalType": "address",
          "name": "sender",
          "type": "address"
        }
      ],
      "name": "RoleGranted",
      "type": "event"
    },
    {
      "anonymous": false,
      "inputs": [
        {
          "indexed": true,
          "internalType": "bytes32",
          "name": "role",
          "type": "bytes32"
        },
        {
          "indexed": true,
          "internalType": "address",
          "name": "account",
          "type": "address"
        },
        {
          "indexed": true,
          "internalType": "address",
          "name": "sender",
          "type": "address"
        }
      ],
      "name": "RoleRevoked",
      "type": "event"
    },
    {
      "anonymous": false,
      "inputs": [
        {
          "indexed": true,
          "internalType": "address",
          "name": "from",
          "type": "address"
        },
        {
          "indexed": true,
          "internalType": "address",
          "name": "to",
          "type": "address"
        },
        {
          "indexed": true,
          "internalType": "uint256",
          "name": "tokenId",
          "type": "uint256"
        }
      ],
      "name": "Transfer",
      "type": "event"
    },
    {
      "inputs": [],
      "name": "DEFAULT_ADMIN_ROLE",
      "outputs": [
        {
          "internalType": "bytes32",
          "name": "",
          "type": "bytes32"
        }
      ],
      "stateMutability": "view",
      "type": "function"
    },
    {
      "inputs": [],
      "name": "URI_BARRACK",
      "outputs": [
        {
          "internalType": "bytes32",
          "name": "",
          "type": "bytes32"
        }
      ],
      "stateMutability": "view",
      "type": "function"
    },
    {
      "inputs": [],
      "name": "URI_ICON",
      "outputs": [
        {
          "internalType": "bytes32",
          "name": "",
          "type": "bytes32"
        }
      ],
      "stateMutability": "view",
      "type": "function"
    },
    {
      "inputs": [],
      "name": "URI_TOWNCENTER",
      "outputs": [
        {
          "internalType": "bytes32",
          "name": "",
          "type": "bytes32"
        }
      ],
      "stateMutability": "view",
      "type": "function"
    },
    {
      "inputs": [],
      "name": "URI_WALL",
      "outputs": [
        {
          "internalType": "bytes32",
          "name": "",
          "type": "bytes32"
        }
      ],
      "stateMutability": "view",
      "type": "function"
    },
    {
      "inputs": [
        {
          "internalType": "address",
          "name": "to",
          "type": "address"
        },
        {
          "internalType": "uint256",
          "name": "tokenId",
          "type": "uint256"
        }
      ],
      "name": "approve",
      "outputs": [],
      "stateMutability": "nonpayable",
      "type": "function"
    },
    {
      "inputs": [
        {
          "internalType": "address",
          "name": "owner",
          "type": "address"
        }
      ],
      "name": "balanceOf",
      "outputs": [
        {
          "internalType": "uint256",
          "name": "",
          "type": "uint256"
        }
      ],
      "stateMutability": "view",
      "type": "function"
    },
    {
      "inputs": [
        {
          "internalType": "uint256",
          "name": "tokenID",
          "type": "uint256"
        }
      ],
      "name": "claimReward",
      "outputs": [],
      "stateMutability": "nonpayable",
      "type": "function"
    },
    {
      "inputs": [
        {
          "internalType": "uint256",
          "name": "tokenID",
          "type": "uint256"
        }
      ],
      "name": "destroyKingdom",
      "outputs": [],
      "stateMutability": "nonpayable",
      "type": "function"
    },
    {
      "inputs": [
        {
          "internalType": "uint256",
          "name": "tokenId",
          "type": "uint256"
        }
      ],
      "name": "getApproved",
      "outputs": [
        {
          "internalType": "address",
          "name": "",
          "type": "address"
        }
      ],
      "stateMutability": "view",
      "type": "function"
    },
    {
      "inputs": [
        {
          "internalType": "uint256",
          "name": "tokenID",
          "type": "uint256"
        },
        {
          "internalType": "uint256",
          "name": "_buildingId",
          "type": "uint256"
        }
      ],
      "name": "getBuildingLevel",
      "outputs": [
        {
          "internalType": "uint256",
          "name": "",
          "type": "uint256"
        }
      ],
      "stateMutability": "view",
      "type": "function"
    },
    {
      "inputs": [
        {
          "internalType": "uint256",
          "name": "tokenID",
          "type": "uint256"
        },
        {
          "internalType": "uint256[]",
          "name": "_buildingIds",
          "type": "uint256[]"
        }
      ],
      "name": "getBuildingsLevel",
      "outputs": [
        {
          "internalType": "uint256[]",
          "name": "",
          "type": "uint256[]"
        }
      ],
      "stateMutability": "view",
      "type": "function"
    },
    {
      "inputs": [
        {
          "internalType": "uint256",
          "name": "tokenID",
          "type": "uint256"
        }
      ],
      "name": "getName",
      "outputs": [
        {
          "internalType": "string",
          "name": "",
          "type": "string"
        }
      ],
      "stateMutability": "view",
      "type": "function"
    },
    {
      "inputs": [
        {
          "internalType": "bytes32",
          "name": "role",
          "type": "bytes32"
        }
      ],
      "name": "getRoleAdmin",
      "outputs": [
        {
          "internalType": "bytes32",
          "name": "",
          "type": "bytes32"
        }
      ],
      "stateMutability": "view",
      "type": "function"
    },
    {
      "inputs": [
        {
          "internalType": "uint256",
          "name": "tokenId",
          "type": "uint256"
        }
      ],
      "name": "getRuler",
      "outputs": [
        {
          "internalType": "address",
          "name": "",
          "type": "address"
        }
      ],
      "stateMutability": "view",
      "type": "function"
    },
    {
      "inputs": [
        {
          "internalType": "uint256",
          "name": "tokenId",
          "type": "uint256"
        },
        {
          "internalType": "bytes32",
          "name": "uri",
          "type": "bytes32"
        }
      ],
      "name": "getTokenURI",
      "outputs": [
        {
          "internalType": "string",
          "name": "",
          "type": "string"
        }
      ],
      "stateMutability": "view",
      "type": "function"
    },
    {
      "inputs": [
        {
          "internalType": "uint256",
          "name": "tokenId",
          "type": "uint256"
        },
        {
          "internalType": "bytes32[]",
          "name": "uriList",
          "type": "bytes32[]"
        }
      ],
      "name": "getTokenURIs",
      "outputs": [
        {
          "internalType": "string[]",
          "name": "",
          "type": "string[]"
        }
      ],
      "stateMutability": "view",
      "type": "function"
    },
    {
      "inputs": [
        {
          "internalType": "bytes32",
          "name": "role",
          "type": "bytes32"
        },
        {
          "internalType": "address",
          "name": "account",
          "type": "address"
        }
      ],
      "name": "grantRole",
      "outputs": [],
      "stateMutability": "nonpayable",
      "type": "function"
    },
    {
      "inputs": [
        {
          "internalType": "bytes32",
          "name": "role",
          "type": "bytes32"
        },
        {
          "internalType": "address",
          "name": "account",
          "type": "address"
        }
      ],
      "name": "hasRole",
      "outputs": [
        {
          "internalType": "bool",
          "name": "",
          "type": "bool"
        }
      ],
      "stateMutability": "view",
      "type": "function"
    },
    {
      "inputs": [
        {
          "internalType": "address",
          "name": "owner",
          "type": "address"
        },
        {
          "internalType": "address",
          "name": "operator",
          "type": "address"
        }
      ],
      "name": "isApprovedForAll",
      "outputs": [
        {
          "internalType": "bool",
          "name": "",
          "type": "bool"
        }
      ],
      "stateMutability": "view",
      "type": "function"
    },
    {
      "inputs": [
        {
          "internalType": "address",
          "name": "to",
          "type": "address"
        },
        {
          "internalType": "string",
          "name": "kingdomName",
          "type": "string"
        }
      ],
      "name": "mint",
      "outputs": [],
      "stateMutability": "nonpayable",
      "type": "function"
    },
    {
      "inputs": [],
      "name": "name",
      "outputs": [
        {
          "internalType": "string",
          "name": "",
          "type": "string"
        }
      ],
      "stateMutability": "view",
      "type": "function"
    },
    {
      "inputs": [
        {
          "internalType": "uint256",
          "name": "tokenId",
          "type": "uint256"
        }
      ],
      "name": "ownerOf",
      "outputs": [
        {
          "internalType": "address",
          "name": "",
          "type": "address"
        }
      ],
      "stateMutability": "view",
      "type": "function"
    },
    {
      "inputs": [
        {
          "internalType": "bytes32",
          "name": "role",
          "type": "bytes32"
        },
        {
          "internalType": "address",
          "name": "account",
          "type": "address"
        }
      ],
      "name": "renounceRole",
      "outputs": [],
      "stateMutability": "nonpayable",
      "type": "function"
    },
    {
      "inputs": [
        {
          "internalType": "bytes32",
          "name": "role",
          "type": "bytes32"
        },
        {
          "internalType": "address",
          "name": "account",
          "type": "address"
        }
      ],
      "name": "revokeRole",
      "outputs": [],
      "stateMutability": "nonpayable",
      "type": "function"
    },
    {
      "inputs": [
        {
          "internalType": "address",
          "name": "from",
          "type": "address"
        },
        {
          "internalType": "address",
          "name": "to",
          "type": "address"
        },
        {
          "internalType": "uint256",
          "name": "tokenId",
          "type": "uint256"
        }
      ],
      "name": "safeTransferFrom",
      "outputs": [],
      "stateMutability": "nonpayable",
      "type": "function"
    },
    {
      "inputs": [
        {
          "internalType": "address",
          "name": "from",
          "type": "address"
        },
        {
          "internalType": "address",
          "name": "to",
          "type": "address"
        },
        {
          "internalType": "uint256",
          "name": "tokenId",
          "type": "uint256"
        },
        {
          "internalType": "bytes",
          "name": "_data",
          "type": "bytes"
        }
      ],
      "name": "safeTransferFrom",
      "outputs": [],
      "stateMutability": "nonpayable",
      "type": "function"
    },
    {
      "inputs": [
        {
          "internalType": "address",
          "name": "operator",
          "type": "address"
        },
        {
          "internalType": "bool",
          "name": "approved",
          "type": "bool"
        }
      ],
      "name": "setApprovalForAll",
      "outputs": [],
      "stateMutability": "nonpayable",
      "type": "function"
    },
    {
      "inputs": [
        {
          "internalType": "uint256",
          "name": "tokenId",
          "type": "uint256"
        },
        {
          "internalType": "bytes32",
          "name": "uri",
          "type": "bytes32"
        },
        {
          "internalType": "string",
          "name": "data",
          "type": "string"
        }
      ],
      "name": "setTokenURI",
      "outputs": [],
      "stateMutability": "nonpayable",
      "type": "function"
    },
    {
      "inputs": [
        {
          "internalType": "uint256",
          "name": "tokenId",
          "type": "uint256"
        },
        {
          "internalType": "bytes32[]",
          "name": "uri",
          "type": "bytes32[]"
        },
        {
          "internalType": "string[]",
          "name": "data",
          "type": "string[]"
        }
      ],
      "name": "setTokenURIs",
      "outputs": [],
      "stateMutability": "nonpayable",
      "type": "function"
    },
    {
      "inputs": [
        {
          "internalType": "bytes4",
          "name": "interfaceId",
          "type": "bytes4"
        }
      ],
      "name": "supportsInterface",
      "outputs": [
        {
          "internalType": "bool",
          "name": "",
          "type": "bool"
        }
      ],
      "stateMutability": "view",
      "type": "function"
    },
    {
      "inputs": [],
      "name": "symbol",
      "outputs": [
        {
          "internalType": "string",
          "name": "",
          "type": "string"
        }
      ],
      "stateMutability": "view",
      "type": "function"
    },
    {
      "inputs": [
        {
          "internalType": "uint256",
          "name": "index",
          "type": "uint256"
        }
      ],
      "name": "tokenByIndex",
      "outputs": [
        {
          "internalType": "uint256",
          "name": "",
          "type": "uint256"
        }
      ],
      "stateMutability": "view",
      "type": "function"
    },
    {
      "inputs": [
        {
          "internalType": "address",
          "name": "owner",
          "type": "address"
        },
        {
          "internalType": "uint256",
          "name": "index",
          "type": "uint256"
        }
      ],
      "name": "tokenOfOwnerByIndex",
      "outputs": [
        {
          "internalType": "uint256",
          "name": "",
          "type": "uint256"
        }
      ],
      "stateMutability": "view",
      "type": "function"
    },
    {
      "inputs": [
        {
          "internalType": "uint256",
          "name": "tokenId",
          "type": "uint256"
        }
      ],
      "name": "tokenURI",
      "outputs": [
        {
          "internalType": "string",
          "name": "",
          "type": "string"
        }
      ],
      "stateMutability": "view",
      "type": "function"
    },
    {
      "inputs": [],
      "name": "totalSupply",
      "outputs": [
        {
          "internalType": "uint256",
          "name": "",
          "type": "uint256"
        }
      ],
      "stateMutability": "view",
      "type": "function"
    },
    {
      "inputs": [
        {
          "internalType": "address",
          "name": "from",
          "type": "address"
        },
        {
          "internalType": "address",
          "name": "to",
          "type": "address"
        },
        {
          "internalType": "uint256",
          "name": "tokenId",
          "type": "uint256"
        }
      ],
      "name": "transferFrom",
      "outputs": [],
      "stateMutability": "nonpayable",
      "type": "function"
    },
    {
      "inputs": [
        {
          "internalType": "uint256",
          "name": "tokenID",
          "type": "uint256"
        },
        {
          "internalType": "uint256",
          "name": "_buildingId",
          "type": "uint256"
        }
      ],
      "name": "upgradeBuilding",
      "outputs": [],
      "stateMutability": "nonpayable",
      "type": "function"
    }
  ],
  "transactionHash": "0xfeaa4e285d037869446950b3ebb5ee881f64727591ab44da94f29a08658cbf64",
  "args": [
    "0xA0B434f834b7fa9CD4d28923E6f56a9035F52604"
  ],
  "numDeployments": 2,
  "solcInputHash": "4a2bdcd0d1b558b5684c3aacbe43b1ec",
  "bytecode": "0x60806040526000600b553480156200001657600080fd5b50604051620052663803806200526683398181016040528101906200003c919062000338565b6040518060400160405280600781526020017f4b696e67646f6d000000000000000000000000000000000000000000000000008152506040518060400160405280600381526020017f4b444d00000000000000000000000000000000000000000000000000000000008152508160019080519060200190620000c092919062000271565b508060029080519060200190620000d992919062000271565b505050620000f16000801b82620000f860201b60201c565b5062000417565b6200010a82826200010e60201b60201c565b5050565b620001208282620001ff60201b60201c565b620001fb57600160008084815260200190815260200160002060000160008373ffffffffffffffffffffffffffffffffffffffff1673ffffffffffffffffffffffffffffffffffffffff16815260200190815260200160002060006101000a81548160ff021916908315150217905550620001a06200026960201b60201c565b73ffffffffffffffffffffffffffffffffffffffff168173ffffffffffffffffffffffffffffffffffffffff16837f2f8788117e7eff1d82e926ec794901d17c78024a50270940304540a733656f0d60405160405180910390a45b5050565b600080600084815260200190815260200160002060000160008373ffffffffffffffffffffffffffffffffffffffff1673ffffffffffffffffffffffffffffffffffffffff16815260200190815260200160002060009054906101000a900460ff16905092915050565b600033905090565b8280546200027f9062000398565b90600052602060002090601f016020900481019282620002a35760008555620002ef565b82601f10620002be57805160ff1916838001178555620002ef565b82800160010185558215620002ef579182015b82811115620002ee578251825591602001919060010190620002d1565b5b509050620002fe919062000302565b5090565b5b808211156200031d57600081600090555060010162000303565b5090565b6000815190506200033281620003fd565b92915050565b6000602082840312156200034b57600080fd5b60006200035b8482850162000321565b91505092915050565b6000620003718262000378565b9050919050565b600073ffffffffffffffffffffffffffffffffffffffff82169050919050565b60006002820490506001821680620003b157607f821691505b60208210811415620003c857620003c7620003ce565b5b50919050565b7f4e487b7100000000000000000000000000000000000000000000000000000000600052602260045260246000fd5b620004088162000364565b81146200041457600080fd5b50565b614e3f80620004276000396000f3fe608060405234801561001057600080fd5b50600436106102315760003560e01c80635d63ae8511610130578063ae169a50116100b8578063d0def5211161007c578063d0def521146106e6578063d547741f14610702578063d7f7c7ab1461071e578063e985e9c51461074e578063fdf29be71461077e57610231565b8063ae169a5014610644578063b88d4fde14610660578063c39688e11461067c578063c87b56dd1461069a578063cc157ac9146106ca57610231565b8063887f7bd2116100ff578063887f7bd21461059e57806391d14854146105bc57806395d89b41146105ec578063a217fddf1461060a578063a22cb4651461062857610231565b80635d63ae85146104de5780636352211e1461050e5780636b8ff5741461053e57806370a082311461056e57610231565b8063248a9ca3116101be578063372e1e0911610182578063372e1e091461041657806342842e0e146104465780634f6ccce71461046257806352efe8c914610492578063531b8708146104ae57610231565b8063248a9ca3146103625780632919aec0146103925780632f2ff15d146103ae5780632f745c59146103ca57806336568abe146103fa57610231565b8063081812fc11610205578063081812fc146102c0578063095ea7b3146102f0578063156d95341461030c57806318160ddd1461032857806323b872dd1461034657610231565b80629ccf991461023657806301ffc9a71461025457806306fdde03146102845780630745ce32146102a2575b600080fd5b61023e6107ae565b60405161024b9190614046565b60405180910390f35b61026e60048036038101906102699190613773565b6107d2565b60405161027b919061402b565b60405180910390f35b61028c61084c565b6040516102999190614061565b60405180910390f35b6102aa6108de565b6040516102b79190614046565b60405180910390f35b6102da60048036038101906102d591906137c5565b610902565b6040516102e79190613f80565b60405180910390f35b61030a600480360381019061030591906136d2565b610987565b005b61032660048036038101906103219190613846565b610a9f565b005b610330610b87565b60405161033d91906142e3565b60405180910390f35b610360600480360381019061035b9190613578565b610b94565b005b61037c6004803603810190610377919061370e565b610bf4565b6040516103899190614046565b60405180910390f35b6103ac60048036038101906103a791906137c5565b610c13565b005b6103c860048036038101906103c39190613737565b610c2c565b005b6103e460048036038101906103df91906136d2565b610c55565b6040516103f191906142e3565b60405180910390f35b610414600480360381019061040f9190613737565b610cfa565b005b610430600480360381019061042b91906137c5565b610d7d565b60405161043d9190613f80565b60405180910390f35b610460600480360381019061045b9190613578565b610d8f565b005b61047c600480360381019061047791906137c5565b610daf565b60405161048991906142e3565b60405180910390f35b6104ac60048036038101906104a791906139ca565b610e46565b005b6104c860048036038101906104c391906137ee565b610e60565b6040516104d59190613fe7565b60405180910390f35b6104f860048036038101906104f39190613927565b611043565b6040516105059190614061565b60405180910390f35b610528600480360381019061052391906137c5565b6110fd565b6040516105359190613f80565b60405180910390f35b610558600480360381019061055391906137c5565b6111af565b6040516105659190614061565b60405180910390f35b61058860048036038101906105839190613513565b611254565b60405161059591906142e3565b60405180910390f35b6105a661130c565b6040516105b39190614046565b60405180910390f35b6105d660048036038101906105d19190613737565b611330565b6040516105e3919061402b565b60405180910390f35b6105f461139a565b6040516106019190614061565b60405180910390f35b61061261142c565b60405161061f9190614046565b60405180910390f35b610642600480360381019061063d9190613642565b611433565b005b61065e600480360381019061065991906137c5565b611449565b005b61067a600480360381019061067591906135c7565b61144c565b005b6106846114ae565b6040516106919190614046565b60405180910390f35b6106b460048036038101906106af91906137c5565b6114d2565b6040516106c19190614061565b60405180910390f35b6106e460048036038101906106df9190613963565b6115f9565b005b61070060048036038101906106fb919061367e565b611650565b005b61071c60048036038101906107179190613737565b6117a1565b005b610738600480360381019061073391906138cf565b6117ca565b6040516107459190614009565b60405180910390f35b6107686004803603810190610763919061353c565b611921565b604051610775919061402b565b60405180910390f35b610798600480360381019061079391906139ca565b6119b5565b6040516107a591906142e3565b60405180910390f35b7fcc5faa872a37c5575e04ea46ccf01121d23b96eed3ab70ffdac63f3a0516fbfb81565b60007fa49a5839000000000000000000000000000000000000000000000000000000007bffffffffffffffffffffffffffffffffffffffffffffffffffffffff1916827bffffffffffffffffffffffffffffffffffffffffffffffffffffffff191614806108455750610844826119ec565b5b9050919050565b60606001805461085b906146a1565b80601f0160208091040260200160405190810160405280929190818152602001828054610887906146a1565b80156108d45780601f106108a9576101008083540402835291602001916108d4565b820191906000526020600020905b8154815290600101906020018083116108b757829003601f168201915b5050505050905090565b7fdafd93e73fb5d836b5a36c01aa89d633b0cb96e1844aca9fa2ef20910fcea16d81565b600061090d82611a66565b61094c576040517f08c379a000000000000000000000000000000000000000000000000000000000815260040161094390614203565b60405180910390fd5b6005600083815260200190815260200160002060009054906101000a900473ffffffffffffffffffffffffffffffffffffffff169050919050565b6000610992826110fd565b90508073ffffffffffffffffffffffffffffffffffffffff168373ffffffffffffffffffffffffffffffffffffffff161415610a03576040517f08c379a00000000000000000000000000000000000000000000000000000000081526004016109fa90614243565b60405180910390fd5b8073ffffffffffffffffffffffffffffffffffffffff16610a22611ad2565b73ffffffffffffffffffffffffffffffffffffffff161480610a515750610a5081610a4b611ad2565b611921565b5b610a90576040517f08c379a0000000000000000000000000000000000000000000000000000000008152600401610a8790614183565b60405180910390fd5b610a9a8383611ada565b505050565b60005b84849050811015610b7f57828282818110610ae6577f4e487b7100000000000000000000000000000000000000000000000000000000600052603260045260246000fd5b9050602002810190610af891906142fe565b600e60008981526020019081526020016000206002016000888886818110610b49577f4e487b7100000000000000000000000000000000000000000000000000000000600052603260045260246000fd5b9050602002013581526020019081526020016000209190610b6b9291906131be565b508080610b7790614704565b915050610aa2565b505050505050565b6000600980549050905090565b610ba5610b9f611ad2565b82611b93565b610be4576040517f08c379a0000000000000000000000000000000000000000000000000000000008152600401610bdb90614263565b60405180910390fd5b610bef838383611c71565b505050565b6000806000838152602001908152602001600020600101549050919050565b6000801b610c2881610c23611ad2565b611ed8565b5050565b610c3582610bf4565b610c4681610c41611ad2565b611ed8565b610c508383611f75565b505050565b6000610c6083611254565b8210610ca1576040517f08c379a0000000000000000000000000000000000000000000000000000000008152600401610c98906140a3565b60405180910390fd5b600760008473ffffffffffffffffffffffffffffffffffffffff1673ffffffffffffffffffffffffffffffffffffffff168152602001908152602001600020600083815260200190815260200160002054905092915050565b610d02611ad2565b73ffffffffffffffffffffffffffffffffffffffff168173ffffffffffffffffffffffffffffffffffffffff1614610d6f576040517f08c379a0000000000000000000000000000000000000000000000000000000008152600401610d66906142c3565b60405180910390fd5b610d798282612055565b5050565b6000610d88826110fd565b9050919050565b610daa8383836040518060200160405280600081525061144c565b505050565b6000610db9610b87565b8210610dfa576040517f08c379a0000000000000000000000000000000000000000000000000000000008152600401610df190614283565b60405180910390fd5b60098281548110610e34577f4e487b7100000000000000000000000000000000000000000000000000000000600052603260045260246000fd5b90600052602060002001549050919050565b6000801b610e5b81610e56611ad2565b611ed8565b505050565b60606000600e6000868152602001908152602001600020905060008484905067ffffffffffffffff811115610ebe577f4e487b7100000000000000000000000000000000000000000000000000000000600052604160045260246000fd5b604051908082528060200260200182016040528015610ef157816020015b6060815260200190600190039081610edc5790505b50905060005b8585905081101561103657826002016000878784818110610f41577f4e487b7100000000000000000000000000000000000000000000000000000000600052603260045260246000fd5b9050602002013581526020019081526020016000208054610f61906146a1565b80601f0160208091040260200160405190810160405280929190818152602001828054610f8d906146a1565b8015610fda5780601f10610faf57610100808354040283529160200191610fda565b820191906000526020600020905b815481529060010190602001808311610fbd57829003601f168201915b5050505050828281518110611018577f4e487b7100000000000000000000000000000000000000000000000000000000600052603260045260246000fd5b6020026020010181905250808061102e90614704565b915050610ef7565b5080925050509392505050565b6060600e600084815260200190815260200160002060020160008381526020019081526020016000208054611077906146a1565b80601f01602080910402602001604051908101604052809291908181526020018280546110a3906146a1565b80156110f05780601f106110c5576101008083540402835291602001916110f0565b820191906000526020600020905b8154815290600101906020018083116110d357829003601f168201915b5050505050905092915050565b6000806003600084815260200190815260200160002060009054906101000a900473ffffffffffffffffffffffffffffffffffffffff169050600073ffffffffffffffffffffffffffffffffffffffff168173ffffffffffffffffffffffffffffffffffffffff1614156111a6576040517f08c379a000000000000000000000000000000000000000000000000000000000815260040161119d906141c3565b60405180910390fd5b80915050919050565b6060600c600083815260200190815260200160002080546111cf906146a1565b80601f01602080910402602001604051908101604052809291908181526020018280546111fb906146a1565b80156112485780601f1061121d57610100808354040283529160200191611248565b820191906000526020600020905b81548152906001019060200180831161122b57829003601f168201915b50505050509050919050565b60008073ffffffffffffffffffffffffffffffffffffffff168273ffffffffffffffffffffffffffffffffffffffff1614156112c5576040517f08c379a00000000000000000000000000000000000000000000000000000000081526004016112bc906141a3565b60405180910390fd5b600460008373ffffffffffffffffffffffffffffffffffffffff1673ffffffffffffffffffffffffffffffffffffffff168152602001908152602001600020549050919050565b7fef1b99c34c40d6fd698ee4af86d352a2aaa62e93f09a2adf99e6fe693603996c81565b600080600084815260200190815260200160002060000160008373ffffffffffffffffffffffffffffffffffffffff1673ffffffffffffffffffffffffffffffffffffffff16815260200190815260200160002060009054906101000a900460ff16905092915050565b6060600280546113a9906146a1565b80601f01602080910402602001604051908101604052809291908181526020018280546113d5906146a1565b80156114225780601f106113f757610100808354040283529160200191611422565b820191906000526020600020905b81548152906001019060200180831161140557829003601f168201915b5050505050905090565b6000801b81565b61144561143e611ad2565b8383612136565b5050565b50565b61145d611457611ad2565b83611b93565b61149c576040517f08c379a000000000000000000000000000000000000000000000000000000000815260040161149390614263565b60405180910390fd5b6114a8848484846122a3565b50505050565b7fc8c395e8f0c96c46eca54ec28b38f7d316f4b29ea3fb48dd4e2522d2b73dc58381565b60606000600e600084815260200190815260200160002060020160007fef1b99c34c40d6fd698ee4af86d352a2aaa62e93f09a2adf99e6fe693603996c81526020019081526020016000208054611528906146a1565b80601f0160208091040260200160405190810160405280929190818152602001828054611554906146a1565b80156115a15780601f10611576576101008083540402835291602001916115a1565b820191906000526020600020905b81548152906001019060200180831161158457829003601f168201915b5050505050905060008151116115c657604051806020016040528060008152506115f1565b806115d0846122ff565b6040516020016115e1929190613f22565b6040516020818303038152906040525b915050919050565b6000801b61160e81611609611ad2565b611ed8565b81600e600086815260200190815260200160002060020160008581526020019081526020016000209080519060200190611649929190613244565b5050505050565b6000801b61166581611660611ad2565b611ed8565b60008251116116a9576040517f08c379a00000000000000000000000000000000000000000000000000000000081526004016116a090614223565b60405180910390fd5b60006116b4836124ac565b146116f4576040517f08c379a00000000000000000000000000000000000000000000000000000000081526004016116eb906142a3565b60405180910390fd5b600b600081548092919061170790614704565b91905055506000600b54905061171d84826124d4565b82600c60008381526020019081526020016000209080519060200190611744929190613244565b5080600d846040516117569190613f0b565b9081526020016040518091039020819055506000600e600083815260200190815260200160002090506001816001016000808152602001908152602001600020819055505050505050565b6117aa82610bf4565b6117bb816117b6611ad2565b611ed8565b6117c58383612055565b505050565b60606000600e6000868152602001908152602001600020905060008484905067ffffffffffffffff811115611828577f4e487b7100000000000000000000000000000000000000000000000000000000600052604160045260246000fd5b6040519080825280602002602001820160405280156118565781602001602082028036833780820191505090505b50905060005b85859050811015611914578260010160008787848181106118a6577f4e487b7100000000000000000000000000000000000000000000000000000000600052603260045260246000fd5b905060200201358152602001908152602001600020548282815181106118f5577f4e487b7100000000000000000000000000000000000000000000000000000000600052603260045260246000fd5b602002602001018181525050808061190c90614704565b91505061185c565b5080925050509392505050565b6000600660008473ffffffffffffffffffffffffffffffffffffffff1673ffffffffffffffffffffffffffffffffffffffff16815260200190815260200160002060008373ffffffffffffffffffffffffffffffffffffffff1673ffffffffffffffffffffffffffffffffffffffff16815260200190815260200160002060009054906101000a900460ff16905092915050565b600080600e600085815260200190815260200160002090508060010160008481526020019081526020016000205491505092915050565b60007f780e9d63000000000000000000000000000000000000000000000000000000007bffffffffffffffffffffffffffffffffffffffffffffffffffffffff1916827bffffffffffffffffffffffffffffffffffffffffffffffffffffffff19161480611a5f5750611a5e826126ae565b5b9050919050565b60008073ffffffffffffffffffffffffffffffffffffffff166003600084815260200190815260200160002060009054906101000a900473ffffffffffffffffffffffffffffffffffffffff1673ffffffffffffffffffffffffffffffffffffffff1614159050919050565b600033905090565b816005600083815260200190815260200160002060006101000a81548173ffffffffffffffffffffffffffffffffffffffff021916908373ffffffffffffffffffffffffffffffffffffffff160217905550808273ffffffffffffffffffffffffffffffffffffffff16611b4d836110fd565b73ffffffffffffffffffffffffffffffffffffffff167f8c5be1e5ebec7d5bd14f71427d1e84f3dd0314c0f7b2291e5b200ac8c7c3b92560405160405180910390a45050565b6000611b9e82611a66565b611bdd576040517f08c379a0000000000000000000000000000000000000000000000000000000008152600401611bd490614163565b60405180910390fd5b6000611be8836110fd565b90508073ffffffffffffffffffffffffffffffffffffffff168473ffffffffffffffffffffffffffffffffffffffff161480611c5757508373ffffffffffffffffffffffffffffffffffffffff16611c3f84610902565b73ffffffffffffffffffffffffffffffffffffffff16145b80611c685750611c678185611921565b5b91505092915050565b8273ffffffffffffffffffffffffffffffffffffffff16611c91826110fd565b73ffffffffffffffffffffffffffffffffffffffff1614611ce7576040517f08c379a0000000000000000000000000000000000000000000000000000000008152600401611cde906140e3565b60405180910390fd5b600073ffffffffffffffffffffffffffffffffffffffff168273ffffffffffffffffffffffffffffffffffffffff161415611d57576040517f08c379a0000000000000000000000000000000000000000000000000000000008152600401611d4e90614123565b60405180910390fd5b611d62838383612790565b611d6d600082611ada565b6001600460008573ffffffffffffffffffffffffffffffffffffffff1673ffffffffffffffffffffffffffffffffffffffff1681526020019081526020016000206000828254611dbd9190614583565b925050819055506001600460008473ffffffffffffffffffffffffffffffffffffffff1673ffffffffffffffffffffffffffffffffffffffff1681526020019081526020016000206000828254611e1491906144a2565b92505081905550816003600083815260200190815260200160002060006101000a81548173ffffffffffffffffffffffffffffffffffffffff021916908373ffffffffffffffffffffffffffffffffffffffff160217905550808273ffffffffffffffffffffffffffffffffffffffff168473ffffffffffffffffffffffffffffffffffffffff167fddf252ad1be2c89b69c2b068fc378daa952ba7f163c4a11628f55a4df523b3ef60405160405180910390a4611ed38383836128a4565b505050565b611ee28282611330565b611f7157611f078173ffffffffffffffffffffffffffffffffffffffff1660146128a9565b611f158360001c60206128a9565b604051602001611f26929190613f46565b6040516020818303038152906040526040517f08c379a0000000000000000000000000000000000000000000000000000000008152600401611f689190614061565b60405180910390fd5b5050565b611f7f8282611330565b61205157600160008084815260200190815260200160002060000160008373ffffffffffffffffffffffffffffffffffffffff1673ffffffffffffffffffffffffffffffffffffffff16815260200190815260200160002060006101000a81548160ff021916908315150217905550611ff6611ad2565b73ffffffffffffffffffffffffffffffffffffffff168173ffffffffffffffffffffffffffffffffffffffff16837f2f8788117e7eff1d82e926ec794901d17c78024a50270940304540a733656f0d60405160405180910390a45b5050565b61205f8282611330565b1561213257600080600084815260200190815260200160002060000160008373ffffffffffffffffffffffffffffffffffffffff1673ffffffffffffffffffffffffffffffffffffffff16815260200190815260200160002060006101000a81548160ff0219169083151502179055506120d7611ad2565b73ffffffffffffffffffffffffffffffffffffffff168173ffffffffffffffffffffffffffffffffffffffff16837ff6391f5c32d9c69d2a47ea670b442974b53935d1edc7fd64eb21e047a839171b60405160405180910390a45b5050565b8173ffffffffffffffffffffffffffffffffffffffff168373ffffffffffffffffffffffffffffffffffffffff1614156121a5576040517f08c379a000000000000000000000000000000000000000000000000000000000815260040161219c90614143565b60405180910390fd5b80600660008573ffffffffffffffffffffffffffffffffffffffff1673ffffffffffffffffffffffffffffffffffffffff16815260200190815260200160002060008473ffffffffffffffffffffffffffffffffffffffff1673ffffffffffffffffffffffffffffffffffffffff16815260200190815260200160002060006101000a81548160ff0219169083151502179055508173ffffffffffffffffffffffffffffffffffffffff168373ffffffffffffffffffffffffffffffffffffffff167f17307eab39ab6107e8899845ad3d59bd9653f200f220920489ca2b5937696c3183604051612296919061402b565b60405180910390a3505050565b6122ae848484611c71565b6122ba84848484612ba3565b6122f9576040517f08c379a00000000000000000000000000000000000000000000000000000000081526004016122f0906140c3565b60405180910390fd5b50505050565b60606000821415612347576040518060400160405280600181526020017f300000000000000000000000000000000000000000000000000000000000000081525090506124a7565b600082905060005b6000821461237957808061236290614704565b915050600a8261237291906144f8565b915061234f565b60008167ffffffffffffffff8111156123bb577f4e487b7100000000000000000000000000000000000000000000000000000000600052604160045260246000fd5b6040519080825280601f01601f1916602001820160405280156123ed5781602001600182028036833780820191505090505b5090505b600085146124a0576001826124069190614583565b9150600a85612415919061474d565b603061242191906144a2565b60f81b81838151811061245d577f4e487b7100000000000000000000000000000000000000000000000000000000600052603260045260246000fd5b60200101907effffffffffffffffffffffffffffffffffffffffffffffffffffffffffffff1916908160001a905350600a8561249991906144f8565b94506123f1565b8093505050505b919050565b6000600d826040516124be9190613f0b565b9081526020016040518091039020549050919050565b600073ffffffffffffffffffffffffffffffffffffffff168273ffffffffffffffffffffffffffffffffffffffff161415612544576040517f08c379a000000000000000000000000000000000000000000000000000000000815260040161253b906141e3565b60405180910390fd5b61254d81611a66565b1561258d576040517f08c379a000000000000000000000000000000000000000000000000000000000815260040161258490614103565b60405180910390fd5b61259960008383612790565b6001600460008473ffffffffffffffffffffffffffffffffffffffff1673ffffffffffffffffffffffffffffffffffffffff16815260200190815260200160002060008282546125e991906144a2565b92505081905550816003600083815260200190815260200160002060006101000a81548173ffffffffffffffffffffffffffffffffffffffff021916908373ffffffffffffffffffffffffffffffffffffffff160217905550808273ffffffffffffffffffffffffffffffffffffffff16600073ffffffffffffffffffffffffffffffffffffffff167fddf252ad1be2c89b69c2b068fc378daa952ba7f163c4a11628f55a4df523b3ef60405160405180910390a46126aa600083836128a4565b5050565b60007f80ac58cd000000000000000000000000000000000000000000000000000000007bffffffffffffffffffffffffffffffffffffffffffffffffffffffff1916827bffffffffffffffffffffffffffffffffffffffffffffffffffffffff1916148061277957507f5b5e139f000000000000000000000000000000000000000000000000000000007bffffffffffffffffffffffffffffffffffffffffffffffffffffffff1916827bffffffffffffffffffffffffffffffffffffffffffffffffffffffff1916145b80612789575061278882612d3a565b5b9050919050565b61279b838383612db4565b600073ffffffffffffffffffffffffffffffffffffffff168373ffffffffffffffffffffffffffffffffffffffff1614156127de576127d981612db9565b61281d565b8173ffffffffffffffffffffffffffffffffffffffff168373ffffffffffffffffffffffffffffffffffffffff161461281c5761281b8382612e02565b5b5b600073ffffffffffffffffffffffffffffffffffffffff168273ffffffffffffffffffffffffffffffffffffffff1614156128605761285b81612f6f565b61289f565b8273ffffffffffffffffffffffffffffffffffffffff168273ffffffffffffffffffffffffffffffffffffffff161461289e5761289d82826130b2565b5b5b505050565b505050565b6060600060028360026128bc9190614529565b6128c691906144a2565b67ffffffffffffffff811115612905577f4e487b7100000000000000000000000000000000000000000000000000000000600052604160045260246000fd5b6040519080825280601f01601f1916602001820160405280156129375781602001600182028036833780820191505090505b5090507f300000000000000000000000000000000000000000000000000000000000000081600081518110612995577f4e487b7100000000000000000000000000000000000000000000000000000000600052603260045260246000fd5b60200101907effffffffffffffffffffffffffffffffffffffffffffffffffffffffffffff1916908160001a9053507f780000000000000000000000000000000000000000000000000000000000000081600181518110612a1f577f4e487b7100000000000000000000000000000000000000000000000000000000600052603260045260246000fd5b60200101907effffffffffffffffffffffffffffffffffffffffffffffffffffffffffffff1916908160001a90535060006001846002612a5f9190614529565b612a6991906144a2565b90505b6001811115612b55577f3031323334353637383961626364656600000000000000000000000000000000600f861660108110612ad1577f4e487b7100000000000000000000000000000000000000000000000000000000600052603260045260246000fd5b1a60f81b828281518110612b0e577f4e487b7100000000000000000000000000000000000000000000000000000000600052603260045260246000fd5b60200101907effffffffffffffffffffffffffffffffffffffffffffffffffffffffffffff1916908160001a905350600485901c945080612b4e90614677565b9050612a6c565b5060008414612b99576040517f08c379a0000000000000000000000000000000000000000000000000000000008152600401612b9090614083565b60405180910390fd5b8091505092915050565b6000612bc48473ffffffffffffffffffffffffffffffffffffffff16613131565b15612d2d578373ffffffffffffffffffffffffffffffffffffffff1663150b7a02612bed611ad2565b8786866040518563ffffffff1660e01b8152600401612c0f9493929190613f9b565b602060405180830381600087803b158015612c2957600080fd5b505af1925050508015612c5a57506040513d601f19601f82011682018060405250810190612c57919061379c565b60015b612cdd573d8060008114612c8a576040519150601f19603f3d011682016040523d82523d6000602084013e612c8f565b606091505b50600081511415612cd5576040517f08c379a0000000000000000000000000000000000000000000000000000000008152600401612ccc906140c3565b60405180910390fd5b805181602001fd5b63150b7a0260e01b7bffffffffffffffffffffffffffffffffffffffffffffffffffffffff1916817bffffffffffffffffffffffffffffffffffffffffffffffffffffffff191614915050612d32565b600190505b949350505050565b60007f7965db0b000000000000000000000000000000000000000000000000000000007bffffffffffffffffffffffffffffffffffffffffffffffffffffffff1916827bffffffffffffffffffffffffffffffffffffffffffffffffffffffff19161480612dad5750612dac82613154565b5b9050919050565b505050565b600980549050600a600083815260200190815260200160002081905550600981908060018154018082558091505060019003906000526020600020016000909190919091505550565b60006001612e0f84611254565b612e199190614583565b9050600060086000848152602001908152602001600020549050818114612efe576000600760008673ffffffffffffffffffffffffffffffffffffffff1673ffffffffffffffffffffffffffffffffffffffff168152602001908152602001600020600084815260200190815260200160002054905080600760008773ffffffffffffffffffffffffffffffffffffffff1673ffffffffffffffffffffffffffffffffffffffff168152602001908152602001600020600084815260200190815260200160002081905550816008600083815260200190815260200160002081905550505b6008600084815260200190815260200160002060009055600760008573ffffffffffffffffffffffffffffffffffffffff1673ffffffffffffffffffffffffffffffffffffffff16815260200190815260200160002060008381526020019081526020016000206000905550505050565b60006001600980549050612f839190614583565b90506000600a6000848152602001908152602001600020549050600060098381548110612fd9577f4e487b7100000000000000000000000000000000000000000000000000000000600052603260045260246000fd5b906000526020600020015490508060098381548110613021577f4e487b7100000000000000000000000000000000000000000000000000000000600052603260045260246000fd5b906000526020600020018190555081600a600083815260200190815260200160002081905550600a6000858152602001908152602001600020600090556009805480613096577f4e487b7100000000000000000000000000000000000000000000000000000000600052603160045260246000fd5b6001900381819060005260206000200160009055905550505050565b60006130bd83611254565b905081600760008573ffffffffffffffffffffffffffffffffffffffff1673ffffffffffffffffffffffffffffffffffffffff168152602001908152602001600020600083815260200190815260200160002081905550806008600084815260200190815260200160002081905550505050565b6000808273ffffffffffffffffffffffffffffffffffffffff163b119050919050565b60007f01ffc9a7000000000000000000000000000000000000000000000000000000007bffffffffffffffffffffffffffffffffffffffffffffffffffffffff1916827bffffffffffffffffffffffffffffffffffffffffffffffffffffffff1916149050919050565b8280546131ca906146a1565b90600052602060002090601f0160209004810192826131ec5760008555613233565b82601f1061320557803560ff1916838001178555613233565b82800160010185558215613233579182015b82811115613232578235825591602001919060010190613217565b5b50905061324091906132ca565b5090565b828054613250906146a1565b90600052602060002090601f01602090048101928261327257600085556132b9565b82601f1061328b57805160ff19168380011785556132b9565b828001600101855582156132b9579182015b828111156132b857825182559160200191906001019061329d565b5b5090506132c691906132ca565b5090565b5b808211156132e35760008160009055506001016132cb565b5090565b60006132fa6132f58461437a565b614355565b90508281526020810184848401111561331257600080fd5b61331d848285614635565b509392505050565b6000613338613333846143ab565b614355565b90508281526020810184848401111561335057600080fd5b61335b848285614635565b509392505050565b60008135905061337281614d96565b92915050565b60008083601f84011261338a57600080fd5b8235905067ffffffffffffffff8111156133a357600080fd5b6020830191508360208202830111156133bb57600080fd5b9250929050565b60008083601f8401126133d457600080fd5b8235905067ffffffffffffffff8111156133ed57600080fd5b60208301915083602082028301111561340557600080fd5b9250929050565b60008083601f84011261341e57600080fd5b8235905067ffffffffffffffff81111561343757600080fd5b60208301915083602082028301111561344f57600080fd5b9250929050565b60008135905061346581614dad565b92915050565b60008135905061347a81614dc4565b92915050565b60008135905061348f81614ddb565b92915050565b6000815190506134a481614ddb565b92915050565b600082601f8301126134bb57600080fd5b81356134cb8482602086016132e7565b91505092915050565b600082601f8301126134e557600080fd5b81356134f5848260208601613325565b91505092915050565b60008135905061350d81614df2565b92915050565b60006020828403121561352557600080fd5b600061353384828501613363565b91505092915050565b6000806040838503121561354f57600080fd5b600061355d85828601613363565b925050602061356e85828601613363565b9150509250929050565b60008060006060848603121561358d57600080fd5b600061359b86828701613363565b93505060206135ac86828701613363565b92505060406135bd868287016134fe565b9150509250925092565b600080600080608085870312156135dd57600080fd5b60006135eb87828801613363565b94505060206135fc87828801613363565b935050604061360d878288016134fe565b925050606085013567ffffffffffffffff81111561362a57600080fd5b613636878288016134aa565b91505092959194509250565b6000806040838503121561365557600080fd5b600061366385828601613363565b925050602061367485828601613456565b9150509250929050565b6000806040838503121561369157600080fd5b600061369f85828601613363565b925050602083013567ffffffffffffffff8111156136bc57600080fd5b6136c8858286016134d4565b9150509250929050565b600080604083850312156136e557600080fd5b60006136f385828601613363565b9250506020613704858286016134fe565b9150509250929050565b60006020828403121561372057600080fd5b600061372e8482850161346b565b91505092915050565b6000806040838503121561374a57600080fd5b60006137588582860161346b565b925050602061376985828601613363565b9150509250929050565b60006020828403121561378557600080fd5b600061379384828501613480565b91505092915050565b6000602082840312156137ae57600080fd5b60006137bc84828501613495565b91505092915050565b6000602082840312156137d757600080fd5b60006137e5848285016134fe565b91505092915050565b60008060006040848603121561380357600080fd5b6000613811868287016134fe565b935050602084013567ffffffffffffffff81111561382e57600080fd5b61383a86828701613378565b92509250509250925092565b60008060008060006060868803121561385e57600080fd5b600061386c888289016134fe565b955050602086013567ffffffffffffffff81111561388957600080fd5b61389588828901613378565b9450945050604086013567ffffffffffffffff8111156138b457600080fd5b6138c0888289016133c2565b92509250509295509295909350565b6000806000604084860312156138e457600080fd5b60006138f2868287016134fe565b935050602084013567ffffffffffffffff81111561390f57600080fd5b61391b8682870161340c565b92509250509250925092565b6000806040838503121561393a57600080fd5b6000613948858286016134fe565b92505060206139598582860161346b565b9150509250929050565b60008060006060848603121561397857600080fd5b6000613986868287016134fe565b93505060206139978682870161346b565b925050604084013567ffffffffffffffff8111156139b457600080fd5b6139c0868287016134d4565b9150509250925092565b600080604083850312156139dd57600080fd5b60006139eb858286016134fe565b92505060206139fc858286016134fe565b9150509250929050565b6000613a128383613b6b565b905092915050565b6000613a268383613eed565b60208301905092915050565b613a3b816145b7565b82525050565b6000613a4c826143fc565b613a568185614442565b935083602082028501613a68856143dc565b8060005b85811015613aa45784840389528151613a858582613a06565b9450613a9083614428565b925060208a01995050600181019050613a6c565b50829750879550505050505092915050565b6000613ac182614407565b613acb8185614453565b9350613ad6836143ec565b8060005b83811015613b07578151613aee8882613a1a565b9750613af983614435565b925050600181019050613ada565b5085935050505092915050565b613b1d816145c9565b82525050565b613b2c816145d5565b82525050565b6000613b3d82614412565b613b478185614464565b9350613b57818560208601614644565b613b608161483a565b840191505092915050565b6000613b768261441d565b613b808185614475565b9350613b90818560208601614644565b613b998161483a565b840191505092915050565b6000613baf8261441d565b613bb98185614486565b9350613bc9818560208601614644565b613bd28161483a565b840191505092915050565b6000613be88261441d565b613bf28185614497565b9350613c02818560208601614644565b80840191505092915050565b6000613c1b602083614486565b9150613c268261484b565b602082019050919050565b6000613c3e602b83614486565b9150613c4982614874565b604082019050919050565b6000613c61603283614486565b9150613c6c826148c3565b604082019050919050565b6000613c84602583614486565b9150613c8f82614912565b604082019050919050565b6000613ca7601c83614486565b9150613cb282614961565b602082019050919050565b6000613cca602483614486565b9150613cd58261498a565b604082019050919050565b6000613ced601983614486565b9150613cf8826149d9565b602082019050919050565b6000613d10602c83614486565b9150613d1b82614a02565b604082019050919050565b6000613d33603883614486565b9150613d3e82614a51565b604082019050919050565b6000613d56602a83614486565b9150613d6182614aa0565b604082019050919050565b6000613d79602983614486565b9150613d8482614aef565b604082019050919050565b6000613d9c602083614486565b9150613da782614b3e565b602082019050919050565b6000613dbf602c83614486565b9150613dca82614b67565b604082019050919050565b6000613de2601c83614486565b9150613ded82614bb6565b602082019050919050565b6000613e05602183614486565b9150613e1082614bdf565b604082019050919050565b6000613e28603183614486565b9150613e3382614c2e565b604082019050919050565b6000613e4b602c83614486565b9150613e5682614c7d565b604082019050919050565b6000613e6e601783614497565b9150613e7982614ccc565b601782019050919050565b6000613e91601283614486565b9150613e9c82614cf5565b602082019050919050565b6000613eb4601183614497565b9150613ebf82614d1e565b601182019050919050565b6000613ed7602f83614486565b9150613ee282614d47565b604082019050919050565b613ef68161462b565b82525050565b613f058161462b565b82525050565b6000613f178284613bdd565b915081905092915050565b6000613f2e8285613bdd565b9150613f3a8284613bdd565b91508190509392505050565b6000613f5182613e61565b9150613f5d8285613bdd565b9150613f6882613ea7565b9150613f748284613bdd565b91508190509392505050565b6000602082019050613f956000830184613a32565b92915050565b6000608082019050613fb06000830187613a32565b613fbd6020830186613a32565b613fca6040830185613efc565b8181036060830152613fdc8184613b32565b905095945050505050565b600060208201905081810360008301526140018184613a41565b905092915050565b600060208201905081810360008301526140238184613ab6565b905092915050565b60006020820190506140406000830184613b14565b92915050565b600060208201905061405b6000830184613b23565b92915050565b6000602082019050818103600083015261407b8184613ba4565b905092915050565b6000602082019050818103600083015261409c81613c0e565b9050919050565b600060208201905081810360008301526140bc81613c31565b9050919050565b600060208201905081810360008301526140dc81613c54565b9050919050565b600060208201905081810360008301526140fc81613c77565b9050919050565b6000602082019050818103600083015261411c81613c9a565b9050919050565b6000602082019050818103600083015261413c81613cbd565b9050919050565b6000602082019050818103600083015261415c81613ce0565b9050919050565b6000602082019050818103600083015261417c81613d03565b9050919050565b6000602082019050818103600083015261419c81613d26565b9050919050565b600060208201905081810360008301526141bc81613d49565b9050919050565b600060208201905081810360008301526141dc81613d6c565b9050919050565b600060208201905081810360008301526141fc81613d8f565b9050919050565b6000602082019050818103600083015261421c81613db2565b9050919050565b6000602082019050818103600083015261423c81613dd5565b9050919050565b6000602082019050818103600083015261425c81613df8565b9050919050565b6000602082019050818103600083015261427c81613e1b565b9050919050565b6000602082019050818103600083015261429c81613e3e565b9050919050565b600060208201905081810360008301526142bc81613e84565b9050919050565b600060208201905081810360008301526142dc81613eca565b9050919050565b60006020820190506142f86000830184613efc565b92915050565b6000808335600160200384360303811261431757600080fd5b80840192508235915067ffffffffffffffff82111561433557600080fd5b60208301925060018202360383131561434d57600080fd5b509250929050565b600061435f614370565b905061436b82826146d3565b919050565b6000604051905090565b600067ffffffffffffffff8211156143955761439461480b565b5b61439e8261483a565b9050602081019050919050565b600067ffffffffffffffff8211156143c6576143c561480b565b5b6143cf8261483a565b9050602081019050919050565b6000819050602082019050919050565b6000819050602082019050919050565b600081519050919050565b600081519050919050565b600081519050919050565b600081519050919050565b6000602082019050919050565b6000602082019050919050565b600082825260208201905092915050565b600082825260208201905092915050565b600082825260208201905092915050565b600082825260208201905092915050565b600082825260208201905092915050565b600081905092915050565b60006144ad8261462b565b91506144b88361462b565b9250827fffffffffffffffffffffffffffffffffffffffffffffffffffffffffffffffff038211156144ed576144ec61477e565b5b828201905092915050565b60006145038261462b565b915061450e8361462b565b92508261451e5761451d6147ad565b5b828204905092915050565b60006145348261462b565b915061453f8361462b565b9250817fffffffffffffffffffffffffffffffffffffffffffffffffffffffffffffffff04831182151516156145785761457761477e565b5b828202905092915050565b600061458e8261462b565b91506145998361462b565b9250828210156145ac576145ab61477e565b5b828203905092915050565b60006145c28261460b565b9050919050565b60008115159050919050565b6000819050919050565b60007fffffffff0000000000000000000000000000000000000000000000000000000082169050919050565b600073ffffffffffffffffffffffffffffffffffffffff82169050919050565b6000819050919050565b82818337600083830152505050565b60005b83811015614662578082015181840152602081019050614647565b83811115614671576000848401525b50505050565b60006146828261462b565b915060008214156146965761469561477e565b5b600182039050919050565b600060028204905060018216806146b957607f821691505b602082108114156146cd576146cc6147dc565b5b50919050565b6146dc8261483a565b810181811067ffffffffffffffff821117156146fb576146fa61480b565b5b80604052505050565b600061470f8261462b565b91507fffffffffffffffffffffffffffffffffffffffffffffffffffffffffffffffff8214156147425761474161477e565b5b600182019050919050565b60006147588261462b565b91506147638361462b565b925082614773576147726147ad565b5b828206905092915050565b7f4e487b7100000000000000000000000000000000000000000000000000000000600052601160045260246000fd5b7f4e487b7100000000000000000000000000000000000000000000000000000000600052601260045260246000fd5b7f4e487b7100000000000000000000000000000000000000000000000000000000600052602260045260246000fd5b7f4e487b7100000000000000000000000000000000000000000000000000000000600052604160045260246000fd5b6000601f19601f8301169050919050565b7f537472696e67733a20686578206c656e67746820696e73756666696369656e74600082015250565b7f455243373231456e756d657261626c653a206f776e657220696e646578206f7560008201527f74206f6620626f756e6473000000000000000000000000000000000000000000602082015250565b7f4552433732313a207472616e7366657220746f206e6f6e20455243373231526560008201527f63656976657220696d706c656d656e7465720000000000000000000000000000602082015250565b7f4552433732313a207472616e736665722066726f6d20696e636f72726563742060008201527f6f776e6572000000000000000000000000000000000000000000000000000000602082015250565b7f4552433732313a20746f6b656e20616c7265616479206d696e74656400000000600082015250565b7f4552433732313a207472616e7366657220746f20746865207a65726f2061646460008201527f7265737300000000000000000000000000000000000000000000000000000000602082015250565b7f4552433732313a20617070726f766520746f2063616c6c657200000000000000600082015250565b7f4552433732313a206f70657261746f7220717565727920666f72206e6f6e657860008201527f697374656e7420746f6b656e0000000000000000000000000000000000000000602082015250565b7f4552433732313a20617070726f76652063616c6c6572206973206e6f74206f7760008201527f6e6572206e6f7220617070726f76656420666f7220616c6c0000000000000000602082015250565b7f4552433732313a2062616c616e636520717565727920666f7220746865207a6560008201527f726f206164647265737300000000000000000000000000000000000000000000602082015250565b7f4552433732313a206f776e657220717565727920666f72206e6f6e657869737460008201527f656e7420746f6b656e0000000000000000000000000000000000000000000000602082015250565b7f4552433732313a206d696e7420746f20746865207a65726f2061646472657373600082015250565b7f4552433732313a20617070726f76656420717565727920666f72206e6f6e657860008201527f697374656e7420746f6b656e0000000000000000000000000000000000000000602082015250565b7f4b696e67646f6d206e616d652063616e6e6f7420626520656d70747900000000600082015250565b7f4552433732313a20617070726f76616c20746f2063757272656e74206f776e6560008201527f7200000000000000000000000000000000000000000000000000000000000000602082015250565b7f4552433732313a207472616e736665722063616c6c6572206973206e6f74206f60008201527f776e6572206e6f7220617070726f766564000000000000000000000000000000602082015250565b7f455243373231456e756d657261626c653a20676c6f62616c20696e646578206f60008201527f7574206f6620626f756e64730000000000000000000000000000000000000000602082015250565b7f416363657373436f6e74726f6c3a206163636f756e7420000000000000000000600082015250565b7f4e616d6520616c72656164792065786973740000000000000000000000000000600082015250565b7f206973206d697373696e6720726f6c6520000000000000000000000000000000600082015250565b7f416363657373436f6e74726f6c3a2063616e206f6e6c792072656e6f756e636560008201527f20726f6c657320666f722073656c660000000000000000000000000000000000602082015250565b614d9f816145b7565b8114614daa57600080fd5b50565b614db6816145c9565b8114614dc157600080fd5b50565b614dcd816145d5565b8114614dd857600080fd5b50565b614de4816145df565b8114614def57600080fd5b50565b614dfb8161462b565b8114614e0657600080fd5b5056fea2646970667358221220fd113dd29682aa3b6569eae9814703e24206881e4790ac0043914c0e82290a2764736f6c63430008040033",
  "devdoc": {
    "kind": "dev",
    "methods": {
      "approve(address,uint256)": {
        "details": "See {IERC721-approve}."
      },
      "balanceOf(address)": {
        "details": "See {IERC721-balanceOf}."
      },
      "getApproved(uint256)": {
        "details": "See {IERC721-getApproved}."
      },
      "getRoleAdmin(bytes32)": {
        "details": "Returns the admin role that controls `role`. See {grantRole} and {revokeRole}. To change a role's admin, use {_setRoleAdmin}."
      },
      "grantRole(bytes32,address)": {
        "details": "Grants `role` to `account`. If `account` had not been already granted `role`, emits a {RoleGranted} event. Requirements: - the caller must have ``role``'s admin role."
      },
      "hasRole(bytes32,address)": {
        "details": "Returns `true` if `account` has been granted `role`."
      },
      "isApprovedForAll(address,address)": {
        "details": "See {IERC721-isApprovedForAll}."
      },
      "name()": {
        "details": "See {IERC721Metadata-name}."
      },
      "ownerOf(uint256)": {
        "details": "See {IERC721-ownerOf}."
      },
      "renounceRole(bytes32,address)": {
        "details": "Revokes `role` from the calling account. Roles are often managed via {grantRole} and {revokeRole}: this function's purpose is to provide a mechanism for accounts to lose their privileges if they are compromised (such as when a trusted device is misplaced). If the calling account had been revoked `role`, emits a {RoleRevoked} event. Requirements: - the caller must be `account`."
      },
      "revokeRole(bytes32,address)": {
        "details": "Revokes `role` from `account`. If `account` had been granted `role`, emits a {RoleRevoked} event. Requirements: - the caller must have ``role``'s admin role."
      },
      "safeTransferFrom(address,address,uint256)": {
        "details": "See {IERC721-safeTransferFrom}."
      },
      "safeTransferFrom(address,address,uint256,bytes)": {
        "details": "See {IERC721-safeTransferFrom}."
      },
      "setApprovalForAll(address,bool)": {
        "details": "See {IERC721-setApprovalForAll}."
      },
      "symbol()": {
        "details": "See {IERC721Metadata-symbol}."
      },
      "tokenByIndex(uint256)": {
        "details": "See {IERC721Enumerable-tokenByIndex}."
      },
      "tokenOfOwnerByIndex(address,uint256)": {
        "details": "See {IERC721Enumerable-tokenOfOwnerByIndex}."
      },
      "totalSupply()": {
        "details": "See {IERC721Enumerable-totalSupply}."
      },
      "transferFrom(address,address,uint256)": {
        "details": "See {IERC721-transferFrom}."
      }
    },
    "version": 1
  },
  "userdoc": {
    "kind": "user",
    "methods": {
      "URI_TOWNCENTER()": {
        "notice": "Kingdom data storage logic ///"
      },
      "mint(address,string)": {
        "notice": "Mint new kingdom token All building start from level 0. Towncenter start from lv 1."
      },
      "tokenURI(uint256)": {
        "notice": "Return default icon if have one."
      }
    },
    "notice": "Kingdom NFT only store data in kingdom contract, Logic will be handle on master contract. Master contract have authority to change all kingdom data. An extension version from ERC721Enumerable and ERC721URIStorage Enumerable to query current address have how many kingdom token",
    "version": 1
  },
  "storageLayout": {
    "storage": [
      {
        "astId": 24,
        "contract": "contracts/KingdomNFT.sol:KingdomNFT",
        "label": "_roles",
        "offset": 0,
        "slot": "0",
        "type": "t_mapping(t_bytes32,t_struct(RoleData)19_storage)"
      },
      {
        "astId": 590,
        "contract": "contracts/KingdomNFT.sol:KingdomNFT",
        "label": "_name",
        "offset": 0,
        "slot": "1",
        "type": "t_string_storage"
      },
      {
        "astId": 592,
        "contract": "contracts/KingdomNFT.sol:KingdomNFT",
        "label": "_symbol",
        "offset": 0,
        "slot": "2",
        "type": "t_string_storage"
      },
      {
        "astId": 596,
        "contract": "contracts/KingdomNFT.sol:KingdomNFT",
        "label": "_owners",
        "offset": 0,
        "slot": "3",
        "type": "t_mapping(t_uint256,t_address)"
      },
      {
        "astId": 600,
        "contract": "contracts/KingdomNFT.sol:KingdomNFT",
        "label": "_balances",
        "offset": 0,
        "slot": "4",
        "type": "t_mapping(t_address,t_uint256)"
      },
      {
        "astId": 604,
        "contract": "contracts/KingdomNFT.sol:KingdomNFT",
        "label": "_tokenApprovals",
        "offset": 0,
        "slot": "5",
        "type": "t_mapping(t_uint256,t_address)"
      },
      {
        "astId": 610,
        "contract": "contracts/KingdomNFT.sol:KingdomNFT",
        "label": "_operatorApprovals",
        "offset": 0,
        "slot": "6",
        "type": "t_mapping(t_address,t_mapping(t_address,t_bool))"
      },
      {
        "astId": 1579,
        "contract": "contracts/KingdomNFT.sol:KingdomNFT",
        "label": "_ownedTokens",
        "offset": 0,
        "slot": "7",
        "type": "t_mapping(t_address,t_mapping(t_uint256,t_uint256))"
      },
      {
        "astId": 1583,
        "contract": "contracts/KingdomNFT.sol:KingdomNFT",
        "label": "_ownedTokensIndex",
        "offset": 0,
        "slot": "8",
        "type": "t_mapping(t_uint256,t_uint256)"
      },
      {
        "astId": 1586,
        "contract": "contracts/KingdomNFT.sol:KingdomNFT",
        "label": "_allTokens",
        "offset": 0,
        "slot": "9",
        "type": "t_array(t_uint256)dyn_storage"
      },
      {
        "astId": 1590,
        "contract": "contracts/KingdomNFT.sol:KingdomNFT",
        "label": "_allTokensIndex",
        "offset": 0,
        "slot": "10",
        "type": "t_mapping(t_uint256,t_uint256)"
      },
      {
        "astId": 2741,
        "contract": "contracts/KingdomNFT.sol:KingdomNFT",
        "label": "tokenCounter",
        "offset": 0,
        "slot": "11",
        "type": "t_uint256"
      },
      {
        "astId": 2745,
        "contract": "contracts/KingdomNFT.sol:KingdomNFT",
        "label": "_tokenName",
        "offset": 0,
        "slot": "12",
        "type": "t_mapping(t_uint256,t_string_storage)"
      },
      {
        "astId": 2749,
        "contract": "contracts/KingdomNFT.sol:KingdomNFT",
        "label": "_nameToToken",
        "offset": 0,
        "slot": "13",
        "type": "t_mapping(t_string_memory_ptr,t_uint256)"
      },
      {
        "astId": 2755,
        "contract": "contracts/KingdomNFT.sol:KingdomNFT",
        "label": "_tokenData",
        "offset": 0,
        "slot": "14",
        "type": "t_mapping(t_uint256,t_struct(KingdomData)2738_storage)"
      }
    ],
    "types": {
      "t_address": {
        "encoding": "inplace",
        "label": "address",
        "numberOfBytes": "20"
      },
      "t_array(t_uint256)dyn_storage": {
        "base": "t_uint256",
        "encoding": "dynamic_array",
        "label": "uint256[]",
        "numberOfBytes": "32"
      },
      "t_bool": {
        "encoding": "inplace",
        "label": "bool",
        "numberOfBytes": "1"
      },
      "t_bytes32": {
        "encoding": "inplace",
        "label": "bytes32",
        "numberOfBytes": "32"
      },
      "t_mapping(t_address,t_bool)": {
        "encoding": "mapping",
        "key": "t_address",
        "label": "mapping(address => bool)",
        "numberOfBytes": "32",
        "value": "t_bool"
      },
      "t_mapping(t_address,t_mapping(t_address,t_bool))": {
        "encoding": "mapping",
        "key": "t_address",
        "label": "mapping(address => mapping(address => bool))",
        "numberOfBytes": "32",
        "value": "t_mapping(t_address,t_bool)"
      },
      "t_mapping(t_address,t_mapping(t_uint256,t_uint256))": {
        "encoding": "mapping",
        "key": "t_address",
        "label": "mapping(address => mapping(uint256 => uint256))",
        "numberOfBytes": "32",
        "value": "t_mapping(t_uint256,t_uint256)"
      },
      "t_mapping(t_address,t_uint256)": {
        "encoding": "mapping",
        "key": "t_address",
        "label": "mapping(address => uint256)",
        "numberOfBytes": "32",
        "value": "t_uint256"
      },
      "t_mapping(t_bytes32,t_string_storage)": {
        "encoding": "mapping",
        "key": "t_bytes32",
        "label": "mapping(bytes32 => string)",
        "numberOfBytes": "32",
        "value": "t_string_storage"
      },
      "t_mapping(t_bytes32,t_struct(RoleData)19_storage)": {
        "encoding": "mapping",
        "key": "t_bytes32",
        "label": "mapping(bytes32 => struct AccessControl.RoleData)",
        "numberOfBytes": "32",
        "value": "t_struct(RoleData)19_storage"
      },
      "t_mapping(t_string_memory_ptr,t_uint256)": {
        "encoding": "mapping",
        "key": "t_string_memory_ptr",
        "label": "mapping(string => uint256)",
        "numberOfBytes": "32",
        "value": "t_uint256"
      },
      "t_mapping(t_uint256,t_address)": {
        "encoding": "mapping",
        "key": "t_uint256",
        "label": "mapping(uint256 => address)",
        "numberOfBytes": "32",
        "value": "t_address"
      },
      "t_mapping(t_uint256,t_string_storage)": {
        "encoding": "mapping",
        "key": "t_uint256",
        "label": "mapping(uint256 => string)",
        "numberOfBytes": "32",
        "value": "t_string_storage"
      },
      "t_mapping(t_uint256,t_struct(KingdomData)2738_storage)": {
        "encoding": "mapping",
        "key": "t_uint256",
        "label": "mapping(uint256 => struct KingdomNFT.KingdomData)",
        "numberOfBytes": "32",
        "value": "t_struct(KingdomData)2738_storage"
      },
      "t_mapping(t_uint256,t_uint256)": {
        "encoding": "mapping",
        "key": "t_uint256",
        "label": "mapping(uint256 => uint256)",
        "numberOfBytes": "32",
        "value": "t_uint256"
      },
      "t_string_memory_ptr": {
        "encoding": "bytes",
        "label": "string",
        "numberOfBytes": "32"
      },
      "t_string_storage": {
        "encoding": "bytes",
        "label": "string",
        "numberOfBytes": "32"
      },
      "t_struct(KingdomData)2738_storage": {
        "encoding": "inplace",
        "label": "struct KingdomNFT.KingdomData",
        "members": [
          {
            "astId": 2729,
            "contract": "contracts/KingdomNFT.sol:KingdomNFT",
            "label": "lastClaimTime",
            "offset": 0,
            "slot": "0",
            "type": "t_uint256"
          },
          {
            "astId": 2733,
            "contract": "contracts/KingdomNFT.sol:KingdomNFT",
            "label": "buildings",
            "offset": 0,
            "slot": "1",
            "type": "t_mapping(t_uint256,t_uint256)"
          },
          {
            "astId": 2737,
            "contract": "contracts/KingdomNFT.sol:KingdomNFT",
            "label": "kingdomURIs",
            "offset": 0,
            "slot": "2",
            "type": "t_mapping(t_bytes32,t_string_storage)"
          }
        ],
        "numberOfBytes": "96"
      },
      "t_struct(RoleData)19_storage": {
        "encoding": "inplace",
        "label": "struct AccessControl.RoleData",
        "members": [
          {
            "astId": 16,
            "contract": "contracts/KingdomNFT.sol:KingdomNFT",
            "label": "members",
            "offset": 0,
            "slot": "0",
            "type": "t_mapping(t_address,t_bool)"
          },
          {
            "astId": 18,
            "contract": "contracts/KingdomNFT.sol:KingdomNFT",
            "label": "adminRole",
            "offset": 0,
            "slot": "1",
            "type": "t_bytes32"
          }
        ],
        "numberOfBytes": "64"
      },
      "t_uint256": {
        "encoding": "inplace",
        "label": "uint256",
        "numberOfBytes": "32"
      }
    }
  }
}