{
  "address": "0xA0B434f834b7fa9CD4d28923E6f56a9035F52604",
  "abi": [
    {
      "anonymous": false,
      "inputs": [
        {
          "indexed": true,
          "internalType": "address",
          "name": "previousOwner",
          "type": "address"
        },
        {
          "indexed": true,
          "internalType": "address",
          "name": "newOwner",
          "type": "address"
        }
      ],
      "name": "OwnershipTransferred",
      "type": "event"
    },
    {
      "inputs": [
        {
          "internalType": "address",
          "name": "_to",
          "type": "address"
        },
        {
          "internalType": "string",
          "name": "kingdomName",
          "type": "string"
        }
      ],
      "name": "freeMint",
      "outputs": [],
      "stateMutability": "nonpayable",
      "type": "function"
    },
    {
      "inputs": [],
      "name": "kingdomNFT",
      "outputs": [
        {
          "internalType": "contract IKingdom",
          "name": "",
          "type": "address"
        }
      ],
      "stateMutability": "view",
      "type": "function"
    },
    {
      "inputs": [],
      "name": "owner",
      "outputs": [
        {
          "internalType": "address",
          "name": "",
          "type": "address"
        }
      ],
      "stateMutability": "view",
      "type": "function"
    },
    {
      "inputs": [],
      "name": "renounceOwnership",
      "outputs": [],
      "stateMutability": "nonpayable",
      "type": "function"
    },
    {
      "inputs": [
        {
          "internalType": "contract IKingdom",
          "name": "_kingdomNFT",
          "type": "address"
        }
      ],
      "name": "setKingdomNFT",
      "outputs": [],
      "stateMutability": "nonpayable",
      "type": "function"
    },
    {
      "inputs": [
        {
          "internalType": "address",
          "name": "newOwner",
          "type": "address"
        }
      ],
      "name": "transferOwnership",
      "outputs": [],
      "stateMutability": "nonpayable",
      "type": "function"
    }
  ],
  "transactionHash": "0x90bc50e5e982b0cd69d6cc5a315422c56b7b3f7d56a3161e05981a6299232582",
  "args": [],
  "numDeployments": 2,
  "solcInputHash": "b978d9effa530cd594f696129e0528ff",
  "bytecode": "0x608060405234801561001057600080fd5b5061002d61002261003260201b60201c565b61003a60201b60201c565b6100fe565b600033905090565b60008060009054906101000a900473ffffffffffffffffffffffffffffffffffffffff169050816000806101000a81548173ffffffffffffffffffffffffffffffffffffffff021916908373ffffffffffffffffffffffffffffffffffffffff1602179055508173ffffffffffffffffffffffffffffffffffffffff168173ffffffffffffffffffffffffffffffffffffffff167f8be0079c531659141344cd1fd0a4f28419497f9722a3daafe3b4186f6b6457e060405160405180910390a35050565b6109d38061010d6000396000f3fe608060405234801561001057600080fd5b50600436106100625760003560e01c8063711112be14610067578063715018a6146100835780638da5cb5b1461008d578063b63f75f8146100ab578063ea219e1f146100c9578063f2fde38b146100e5575b600080fd5b610081600480360381019061007c91906105aa565b610101565b005b61008b610194565b005b61009561021c565b6040516100a291906106c4565b60405180910390f35b6100b3610245565b6040516100c0919061070f565b60405180910390f35b6100e360048036038101906100de91906105fe565b61026b565b005b6100ff60048036038101906100fa9190610581565b61032b565b005b600160009054906101000a900473ffffffffffffffffffffffffffffffffffffffff1673ffffffffffffffffffffffffffffffffffffffff1663d0def52183836040518363ffffffff1660e01b815260040161015e9291906106df565b600060405180830381600087803b15801561017857600080fd5b505af115801561018c573d6000803e3d6000fd5b505050505050565b61019c610423565b73ffffffffffffffffffffffffffffffffffffffff166101ba61021c565b73ffffffffffffffffffffffffffffffffffffffff1614610210576040517f08c379a00000000000000000000000000000000000000000000000000000000081526004016102079061074a565b60405180910390fd5b61021a600061042b565b565b60008060009054906101000a900473ffffffffffffffffffffffffffffffffffffffff16905090565b600160009054906101000a900473ffffffffffffffffffffffffffffffffffffffff1681565b610273610423565b73ffffffffffffffffffffffffffffffffffffffff1661029161021c565b73ffffffffffffffffffffffffffffffffffffffff16146102e7576040517f08c379a00000000000000000000000000000000000000000000000000000000081526004016102de9061074a565b60405180910390fd5b80600160006101000a81548173ffffffffffffffffffffffffffffffffffffffff021916908373ffffffffffffffffffffffffffffffffffffffff16021790555050565b610333610423565b73ffffffffffffffffffffffffffffffffffffffff1661035161021c565b73ffffffffffffffffffffffffffffffffffffffff16146103a7576040517f08c379a000000000000000000000000000000000000000000000000000000000815260040161039e9061074a565b60405180910390fd5b600073ffffffffffffffffffffffffffffffffffffffff168173ffffffffffffffffffffffffffffffffffffffff161415610417576040517f08c379a000000000000000000000000000000000000000000000000000000000815260040161040e9061072a565b60405180910390fd5b6104208161042b565b50565b600033905090565b60008060009054906101000a900473ffffffffffffffffffffffffffffffffffffffff169050816000806101000a81548173ffffffffffffffffffffffffffffffffffffffff021916908373ffffffffffffffffffffffffffffffffffffffff1602179055508173ffffffffffffffffffffffffffffffffffffffff168173ffffffffffffffffffffffffffffffffffffffff167f8be0079c531659141344cd1fd0a4f28419497f9722a3daafe3b4186f6b6457e060405160405180910390a35050565b60006105026104fd8461078f565b61076a565b90508281526020810184848401111561051a57600080fd5b610525848285610844565b509392505050565b60008135905061053c8161096f565b92915050565b60008135905061055181610986565b92915050565b600082601f83011261056857600080fd5b81356105788482602086016104ef565b91505092915050565b60006020828403121561059357600080fd5b60006105a18482850161052d565b91505092915050565b600080604083850312156105bd57600080fd5b60006105cb8582860161052d565b925050602083013567ffffffffffffffff8111156105e857600080fd5b6105f485828601610557565b9150509250929050565b60006020828403121561061057600080fd5b600061061e84828501610542565b91505092915050565b610630816107dc565b82525050565b61063f81610820565b82525050565b6000610650826107c0565b61065a81856107cb565b935061066a818560208601610853565b610673816108e6565b840191505092915050565b600061068b6026836107cb565b9150610696826108f7565b604082019050919050565b60006106ae6020836107cb565b91506106b982610946565b602082019050919050565b60006020820190506106d96000830184610627565b92915050565b60006040820190506106f46000830185610627565b81810360208301526107068184610645565b90509392505050565b60006020820190506107246000830184610636565b92915050565b600060208201905081810360008301526107438161067e565b9050919050565b60006020820190508181036000830152610763816106a1565b9050919050565b6000610774610785565b90506107808282610886565b919050565b6000604051905090565b600067ffffffffffffffff8211156107aa576107a96108b7565b5b6107b3826108e6565b9050602081019050919050565b600081519050919050565b600082825260208201905092915050565b60006107e782610800565b9050919050565b60006107f9826107dc565b9050919050565b600073ffffffffffffffffffffffffffffffffffffffff82169050919050565b600061082b82610832565b9050919050565b600061083d82610800565b9050919050565b82818337600083830152505050565b60005b83811015610871578082015181840152602081019050610856565b83811115610880576000848401525b50505050565b61088f826108e6565b810181811067ffffffffffffffff821117156108ae576108ad6108b7565b5b80604052505050565b7f4e487b7100000000000000000000000000000000000000000000000000000000600052604160045260246000fd5b6000601f19601f8301169050919050565b7f4f776e61626c653a206e6577206f776e657220697320746865207a65726f206160008201527f6464726573730000000000000000000000000000000000000000000000000000602082015250565b7f4f776e61626c653a2063616c6c6572206973206e6f7420746865206f776e6572600082015250565b610978816107dc565b811461098357600080fd5b50565b61098f816107ee565b811461099a57600080fd5b5056fea2646970667358221220aa61611bcb2b97f94045a41dc4f34b0e9c37ee7d759b52568ad4e45f1e218c3f64736f6c63430008040033",
  "devdoc": {
    "kind": "dev",
    "methods": {
      "owner()": {
        "details": "Returns the address of the current owner."
      },
      "renounceOwnership()": {
        "details": "Leaves the contract without owner. It will not be possible to call `onlyOwner` functions anymore. Can only be called by the current owner. NOTE: Renouncing ownership will leave the contract without an owner, thereby removing any functionality that is only available to the owner."
      },
      "transferOwnership(address)": {
        "details": "Transfers ownership of the contract to a new account (`newOwner`). Can only be called by the current owner."
      }
    },
    "version": 1
  },
  "userdoc": {
    "kind": "user",
    "methods": {},
    "notice": "Store most of logic here. It is the best that master contract only have logic and not store storage.",
    "version": 1
  },
  "storageLayout": {
    "storage": [
      {
        "astId": 7,
        "contract": "contracts/MasterContract.sol:MasterContract",
        "label": "_owner",
        "offset": 0,
        "slot": "0",
        "type": "t_address"
      },
      {
        "astId": 137,
        "contract": "contracts/MasterContract.sol:MasterContract",
        "label": "kingdomNFT",
        "offset": 0,
        "slot": "1",
        "type": "t_contract(IKingdom)303"
      }
    ],
    "types": {
      "t_address": {
        "encoding": "inplace",
        "label": "address",
        "numberOfBytes": "20"
      },
      "t_contract(IKingdom)303": {
        "encoding": "inplace",
        "label": "contract IKingdom",
        "numberOfBytes": "20"
      }
    }
  }
}